:100000000C947F000C94EA200C9417210C94A70008
:100010000C94A7000C94A7000C94A7000C94A700C4
:100020000C94A7000C94A7000C94A7000C94C31D7B
:100030000C94A7000C94A7000C94A7000C94A700A4
:100040000C9444210C94A7000C9456170C9492170E
:100050000C94A7000C94A7000C94A7000C94A70084
:100060000C94A7000C94A700084AD73B3BCE016E26
:1000700084BCBFFDC12F3D6C74319ABD56833DDAFF
:100080003D00C77F11BED9E4BB4C3E916BAAAABE0E
:10009000000000803F000000070002010000030490
:1000A00006000000000000000001020408102040CB
:1000B0008001020408102001020408102004040436
:1000C0000404040404020202020202030303030301
:1000D0000300000000230026002900000000002586
:1000E0000028002B0000000000240027002A000048
:1000F000E307B30DDA0F3A19181A7F33E1361124EA
:100100001FBECFEFD8E0DEBFCDBF12E0A0E0B1E070
:10011000E0E3FCE802C005900D92A23CB107D9F7DC
:1001200016E0A2ECB2E001C01D92AB37B107E1F7D7
:1001300010E0CEEFD0E004C02297FE010E94F34110
:10014000C03FD107C9F70E9495080C9416460C943D
:100150000000A0915505B0915605ED91FD9180816B
:10016000ED91FD919081ED91FD916C9163708E23E5
:1001700009F064609F2309F06860E9ECF0E0E60FA5
:10018000F11D659565956D936D917D918D919D9115
:10019000099423C01AC012C016C010C01EC009C0E6
:1001A00014C013C006C019C009C00DC007C00DC0DF
:1001B00014C062507040804090400BC0615070404D
:1001C0008040904006C06E5F01C06F5F7F4F8F4FD1
:1001D0009F4F9E938E937E936E930895CF93DF935C
:1001E000DA01EC01629620E030E08D919C9111974C
:1001F0004991FB01E80FF91F4083019611969C93EA
:100200008E932F5F3F4F2430310579F7DF91CF91E7
:100210000895CF93DF93EC0189850E943B222B81C7
:100220003C81AC01421B530B9A018A81882319F04F
:100230008FEF9FEF02C081E090E0289FB001299FDF
:10024000700D389F700D1124882777FD8095982FA9
:100250000E944340DC01CB018D839E83AF83B8872E
:10026000DF91CF910895EF92FF920F931F93CF9359
:10027000DF9300D0CDB7DEB77C018B015A83498371
:10028000CB01BE016F5F7F4F0E94103EDC01CB01AE
:10029000F70186839783A087B187C801BE016F5F8E
:1002A0007F4F0E94103EDC01CB01F70182879387CC
:1002B000A487B587C801BE016F5F7F4F0E94103EC3
:1002C000DC01CB01F70186879787A08BB18BC80132
:1002D000BE016F5F7F4F0E94103EDC01CB01F70132
:1002E000868F978FA0A3B1A3C801BE016F5F7F4F18
:1002F0000E94103EDC01CB01F701868B978BA08F0B
:10030000B18FC801BE016F5F7F4F0E94103EDC01BC
:10031000CB01F701828F938FA48FB58F0F900F9031
:10032000DF91CF911F910F91FF90EF900895A091D1
:100330005305B0915405ED91FD918081ED91FD91B2
:100340009081ED91FD916C9163708E2309F0646052
:100350009F2309F06860E7EBF1E0E60FF11D65957A
:1003600065956D936D917D918D919D91099423C0BB
:100370001AC012C016C010C01EC009C014C013C0DD
:1003800006C019C009C00DC007C00DC014C062501E
:100390007040804090400BC0615070408040904061
:1003A00006C06E5F01C06F5F7F4F8F4F9F4F9E9360
:1003B0008E937E936E9308950F931F93CF93DF9345
:1003C000EC01162F042F862F62E00E94E922802F75
:1003D00062E00E94E922212F30E0F901E354FF4F4F
:1003E000E491F0E0EE0FFF1FEF52FF4F85919491E3
:1003F0008883998327553F4FF90124912C83202F1F
:1004000030E0F901E354FF4FE491F0E0EE0FFF1FFD
:10041000EF52FF4F859194918A839B8327553F4FDD
:10042000F90124912D831F82188619861A8680ED82
:1004300097E00E94F321E881F98190818C819823D3
:1004400081E009F480E0EA81FB8120819D81922393
:1004500009F082608E831B86123019F01330D1F5BB
:100460000CC0D0935405C093530580E067E971E058
:1004700041E050E00E94BA200BC0D0935605C093D3
:10048000550581E069EA70E041E050E00E94BA2041
:100490008B858F5F8B87023019F00330C1F40CC05D
:1004A000D0935405C093530580E067E971E041E0C3
:1004B00050E00E94BA200BC0D0935605C09355055A
:1004C00081E069EA70E041E050E00E94BA208B854B
:1004D0008F5F8B87DF91CF911F910F910895CF93FD
:1004E000DF93C9E8D5E0CE0160E071E00E94CD1A4B
:1004F000409101055091020560910305709104053A
:10050000CE0122E030E00E947A1DCE0167E071E06A
:100510000E94CD1A40911E0550911F056091200543
:1005200070912105CE0122E030E00E947A1DCE01BB
:1005300061E171E00E94CD1A4091290550912A0590
:1005400060912B0570912C05CE0122E030E00E94D5
:100550007A1DCE016BE171E00E94CD1A40912F050A
:10056000509130056091310570913205CE0122E045
:1005700030E00E947D1DDF91CF910895AF92BF9230
:10058000CF92DF92EF92FF920F931F93CF93DF935F
:10059000CDB7DEB72C970FB6F894DEBF0FBECDBF38
:1005A0006E010894C11CD11C760108E0802F0E94C6
:1005B0003B22F701819391937F010F5F0E30B1F7DA
:1005C00009E815E06091C2027091C302C8014AE0D7
:1005D00050E00E947B1CC80162E271E00E94CD1ACB
:1005E0008E01035F1F4F0F2EF9E8EF2EF5E0FF2E6F
:1005F000F02D0F2EF2E2AF2EF1E0BF2EF02DF6011E
:10060000619171916F01C7014AE050E00E947B1C2B
:10061000C701B5010E94CD1AC016D10681F70E940C
:100620008E21AB01BC0109E815E0C8012AE030E0E9
:100630000E942D1CC8010E94F31A2C960FB6F89444
:10064000DEBF0FBECDBFDF91CF911F910F91FF9005
:10065000EF90DF90CF90BF90AF900895682F8DE01E
:100660000E941D2308954F925F926F927F928F9206
:100670009F92AF92BF92EF92FF920F931F93490107
:100680005A01905820E030E040E85FEB0F2EF0E098
:10069000EF2EF0E0FF2EF0E80F2FFFE31F2FF02DDD
:1006A0000E943B0A2B013C01C501B40120E030E06F
:1006B00040E85FEB0E943B0A4B015C01C301B201C1
:1006C00020E030E84BE354E40E94234120E030E096
:1006D00040EA52E40F2EF0E0EF2EF0E8FF2EFBE3AD
:1006E0000F2FF4E41F2FF02D0E94960A20E030E82F
:1006F0004BEB54E40E94DE3E0E941040AB01BC0173
:1007000086EE94E0BA010E94281FC501B401A80139
:1007100097010E94234120E030E040EA52E40E9429
:10072000960A20E030E44AEB54E40E94DE3E0E9448
:100730001040AB01BC0183EE94E0BA010E94281F77
:100740001F910F91FF90EF90BF90AF909F908F906F
:100750007F906F905F904F9008952F923F924F92AD
:100760005F926F927F928F929F92AF92BF92CF9241
:10077000DF92EF92FF920F931F93CF93DF9300D0FE
:1007800000D0CDB7DEB769837A838B839C83290140
:100790003A01809113058823E1F08091050590913D
:1007A00006050E94A4088091070590910805DC01C8
:1007B000ED91FC910190F081E02D09958091090562
:1007C00090910A05DC01ED91FC910190F081E02D02
:1007D0000995E0910705F09108056581768187818B
:1007E0009085E0910905F0910A05258136814781C0
:1007F00050850E94513F20E030E044E353E40E94E2
:1008000023412BED3FE049E450E40E94A83F0E94C1
:1008100010400E944340362EA72E082FB92E8090FC
:10082000050590900605F401448155816681778124
:1008300080911405882371F0832D9A2DA02FBB2D54
:100840008093010590930205A0930305B0930405DE
:1008500010921405CB01BA012091010530910205D7
:1008600040910305509104050E94DE3E20910B0546
:1008700030910C0540910D0550910E050E942341C9
:100880006B017C01832D9A2DA02FBB2DBC01CD01C6
:1008900020910F05309110054091110550911205DE
:1008A0000E9423419B01AC01C701B6010E94DE3EBC
:1008B000362E272EB82EA92E382F862F922DAB2D0F
:1008C000BA2D8093010590930205A0930305B09380
:1008D000040569817A818B819C81032D122D232F40
:1008E0003B2FA90198010E94DD3EC62ED72EE82E8F
:1008F000F92E462F572F682F792FCB01BA0120E010
:1009000030E0A9010E941841181624F0F7FAF0947B
:10091000F7F8F094C701B6012091F3023091F40288
:100920004091F5025091F6020E941841181684F485
:1009300080E090E0DC018093D7049093D804A093EA
:10094000D904B093DA046C017D012C013D0113C080
:10095000D401CD90DD90ED90FC908BEC94E0432D94
:10096000522D6B2D7A2D09811A812B813C810E9499
:1009700071096B017C01C701B601A30192010E94BC
:10098000DE3E4B015C01C701B601A30192010E944A
:10099000DD3E9B01AC01C501B4010E9433030F9001
:1009A0000F900F900F90DF91CF911F910F91FF90BB
:1009B000EF90DF90CF90BF90AF909F908F907F90FF
:1009C0006F905F904F903F902F9008954F925F925D
:1009D0006F927F928F929F92AF92BF92CF92DF924F
:1009E000EF92FF920F931F93CF93DF93CDB7DEB7B4
:1009F0002C970FB6F894DEBF0FBECDBF0E94A0218A
:100A000069877A878B879C878091C8029091C902F9
:100A1000A091CA02B091CB020097A105B10561F483
:100A200029853A854B855C852093C8023093C9029D
:100A30004093CA025093CB028091C8029091C902A0
:100A4000A091CA02B091CB0229853A854B855C857D
:100A5000281B390B4A0B5B0BCA01B9010E944140AC
:100A600020E034E244E759E40E94A83FDC01CB01D6
:100A70008093C4029093C502A093C602B093C702AC
:100A80000E948E212B013C018091C7049091C804E3
:100A9000A091C904B091CA04481659066A067B069B
:100AA00040F41092C7041092C8041092C904109226
:100AB000CA048CE193E00E94A80E8C011816190656
:100AC0000CF06DC00F2EF9E8AF2EF5E0BF2EF02D23
:100AD000C50164E271E00E94CD1AC501B8014AE087
:100AE00050E00E947B1C0F2EFCE1CF2EF3E0DF2EA6
:100AF000F02D0F2EFBE1EF2EFF24F02DEC0CFD1C52
:100B0000C601B70148EC50E00E94560E0F2EFCEED5
:100B10008F2EFFEF9F2EF02D8C0C9D1CC401B70172
:100B200040E050E098010E94F33618861F820FEFD4
:100B300013E0C401B801AE01495F5F4F0E94B737AF
:100B4000C5016EE271E00E94CD1A6F817885C50102
:100B50004AE050E00E94011C8BE492E09A83898372
:100B600080912D0390912E03A0912F03B09130031B
:100B70008B839C83AD83BE834091310350913203BC
:100B8000C601BE016F5F7F4F0E940F0F4F815885D6
:100B9000C601B8010E94F50EC6010E940A0F80919D
:100BA000C7049091C804A091C904B091CA048C50A4
:100BB0009E4FAF4FBF4F61E084159505A605B70561
:100BC00008F060E06093070388E093E00E945A38E1
:100BD0004091EF025091F0026091F1027091F202A7
:100BE00089E895E022E030E00E947A1D6091C4021D
:100BF0007091C5028091C6029091C7022AE037ED3C
:100C000043E25CE30E94184188230CF45EC08091AB
:100C1000DB029091DC02A091DD02B091DE028093B4
:100C2000CB049093CC04A093CD04B093CE048091D8
:100C3000DF029091E002A091E102B091E202809384
:100C4000CF049093D004A093D104B093D2048091A8
:100C5000E3029091E402A091E502B091E602809354
:100C6000D3049093D404A093D504B093D60489857B
:100C70009A85AB85BC858093C8029093C902A093E6
:100C8000CA02B093CB026091EB027091EC028091AA
:100C9000ED029091EE022091EF023091F00240912E
:100CA000F1025091F2020E94AD03809101059091F2
:100CB0000205A0910305B09104058093E70290938B
:100CC000E802A093E902B093EA022C960FB6F894DA
:100CD000DEBF0FBECDBFDF91CF911F910F91FF906F
:100CE000EF90DF90CF90BF90AF909F908F907F90CC
:100CF0006F905F904F900895EF92FF920F931F9324
:100D0000CF93DF93EC017B0109E815E0C80168E3AC
:100D100071E00E942B1BBE01882777FD8095982FDC
:100D20000E94CA21C80160E571E00E942B1B1E14BD
:100D30001F048CF4C0E0D0E00FE215E0C8010E946F
:100D4000190965E070E080E090E00E94CA212196D8
:100D5000CE15DF0599F78FE295E00E943F09C9E8BB
:100D6000D5E0CE016FE571E00E942B1BCE0165E757
:100D700071E00E94CD1A60913D0570913E05CE0153
:100D80004AE050E00E947B1CDF91CF911F910F91B0
:100D9000FF90EF9008958F929F92AF92BF92CF9263
:100DA000DF92EF92FF920F931F93CF93DF93CDB714
:100DB000DEB72C970FB6F894DEBF0FBECDBF8DE027
:100DC00061E00E94E92281E00E942E0309E815E01B
:100DD000C80140E052EC61E070E00E940C18C801CC
:100DE00061E871E00E942B1B81E08093FD0288EB9B
:100DF00092E29093060380930503DE011796E9EAD9
:100E0000F1E086E001900D928150E1F7FE01379606
:100E1000A7EFB2E0CE010D9621912D93E817F907C7
:100E2000D9F707EF12E087E595E0B8010E94070BBC
:100E30007C016091050370910603C80185960E94AC
:100E40002D0F81E0E114F10409F080E080930403A8
:100E500008E013E0C80165ED72E00E948D38C8011A
:100E60006CEC72E00E948D388AE097EDA3EABDEB4E
:100E70008093DB029093DC02A093DD02B093DE024C
:100E80008AE097EDA3EABBEB8093DF029093E00248
:100E9000A093E102B093E2028FE692E1A3E0BAE30D
:100EA0008093E3029093E402A093E502B093E602FC
:100EB00080E090E0A0E0B1EC8093EB029093EC0234
:100EC000A093ED02B093EE0280E090E0DC0180930D
:100ED000EF029093F002A093F102B093F20280E04F
:100EE00090E0A0E4B0E48093F3029093F402A09326
:100EF000F502B093F60289E895E060E971E00E949E
:100F0000CD1A8E010D5F1F4F0F2EF7E0EF2EFF243D
:100F1000F02DEC0EFD1E0F2EF7E5AF2EF5E0BF2EE7
:100F2000F02D0F2EF9E8CF2EF5E0DF2EF02D0F2E4D
:100F3000F0EA8F2EF1E09F2EF02DCE010196B50143
:100F40000E946D0DF80161918F01C6014AE050E0E9
:100F50000E94131CC601B4010E94CD1A0E151F0574
:100F600061F709E815E0C8010E94F31A80ED97E0E7
:100F700068EC70E00E947C0683EE94E062E070E032
:100F80000E94131F86EE94E063E070E00E94131F3E
:100F9000C80162EA71E00E942B1B80E00E942E03D0
:100FA0002C960FB6F894DEBF0FBECDBFDF91CF9168
:100FB0001F910F91FF90EF90DF90CF90BF90AF9077
:100FC0009F908F900895CF92DF92EF92FF920F93B0
:100FD0001F93CF93DF938DE495E060E040E020E045
:100FE00000E00E94CD19CFE2D5E0CE0169E070E0CB
:100FF00020E030E040E85FE30E949C0823EB31E012
:1010000030932505209324058CE090E090932E05E5
:1010100080932D0584EF91E0909328058093270518
:1010200041E04093260530931A05209319052DE0E1
:1010300030E0309323052093220590931D05809383
:101040001C0540931B05D0930605C093050589E157
:1010500095E0909308058093070584E295E09093CE
:101060000A058093090588E491EEAAE7BFE380931F
:101070000B0590930C05A0930D05B0930E0580E031
:1010800097EDA3EABCE380930F0590931005A0931E
:101090001105B0931205409313054093140585EF95
:1010A00094E065E142E10E94DC0189EE94E064E1B4
:1010B00041E10E94DC0186EE94E00E948A1E83EEEC
:1010C00094E00E948A1E8BEC94E040E050E0BA016C
:1010D0008A019B016A017B010E945709CEEFD2E091
:1010E000CE010E94C319CE010A960E94F036CE01AD
:1010F0004E960E94660F85ED92E00E94FD3889EBC6
:1011000091E09093D6028093D5028FEF8093D7021F
:101110008CEC92E00E940D39DF91CF911F910F91DD
:10112000FF90EF90DF90CF9008950E94FD210E94E4
:10113000CB060E94E604FDCFFC0175876487208BF7
:10114000318B428B538B0895EF92FF920F931F9335
:10115000CF93DF93EC010E94A021DC01CB014A8DEB
:101160005B8D6C8D7D8D8C019D01041B150B260BF9
:10117000370B8A8F9B8FAC8FBD8FC901B8010E943E
:10118000434020E034E244E759E40E94A83FDC01F8
:10119000CB0188879987AA87BB878C850E943B22D1
:1011A0009C01B901882777FD8095982F0E944340C4
:1011B000162F072FF82EE92E6E857F85882777FD5D
:1011C0008095982F0E9443409B01AC01812F902F66
:1011D000AF2DBE2DBC01CD010E94DD3E288939898D
:1011E0004A895B890E942341262F372FF82FE92F48
:1011F000462F572F682F792F488359836A837B8323
:10120000822F932FAF2FBE2FBC01CD0128853985AA
:101210004A855B850E942341DC01CB018C839D8341
:10122000AE83BF83DF91CF911F910F91FF90EF901D
:101230000895CF92DF92EF92FF92CF93DF93EC016C
:10124000CC88DD88EE88FF888C850E943B22AA2707
:1012500097FDA095BA2FC80ED91EEA1EFB1ECC8A98
:10126000DD8AEE8AFF8A888D998D0196998F888F05
:10127000DF91CF91FF90EF90DF90CF900895CF93C3
:10128000DF93EC01288D398D40E050E06C897D8939
:101290008E899F890E94B4413F872E871C8A1D8AB0
:1012A0001E8A1F8A198E188EDF91CF910895CF92D2
:1012B000DF92EF92FF920F931F93FC0140835183C3
:1012C000628373830483158326833783C086D18624
:1012D000E286F3861F910F91FF90EF90DF90CF9001
:1012E00008954F925F926F927F929F92AF92BF92BA
:1012F000CF92DF92EF92FF920F931F93CF93DF93E2
:1013000000D000D0CDB7DEB75C012A013B01C90196
:10131000B801C982DA82EB82FC82A30192010E94A9
:10132000DD3E162F972EC82E092F862F992DAC2D16
:10133000B02FBC01CD01D5012D913D914D915C9116
:101340000E942341462EF72EE82ED92E812F992D6B
:10135000AC2DB02FBC01CD01F50124813581468132
:1013600057810E942341D5011C962D913D914D91AD
:101370005C911F970E94DE3EF62FE72F382F292F12
:10138000982F4F2F5E2F692F722FD5011C964D93EA
:101390005D936D937C931F97442D5F2D6E2D7D2D56
:1013A000CB01BA01422F0F2F1E2F232F342FA9015B
:1013B00098010E94DE3EE62EF72E182F092F698134
:1013C0007A818B819C81F501208531854285538509
:1013D0000E942341512F402F0E2D1F2D252F342FDA
:1013E000A90198010E94DE3E462F572F682F792FC2
:1013F000CB01BA010F900F900F900F90DF91CF911A
:101400001F910F91FF90EF90DF90CF90BF90AF9022
:101410009F907F906F905F904F9008952FE730E0FE
:10142000261B370B82179307C4F49B0120583040CA
:101430002817390794F4681779071CF4861B970B53
:10144000089522273327261B370B821793071CF496
:10145000860F971F089580E090E008959C0148173B
:1014600059073CF0862F972F821793071CF4C90168
:101470000895CA0108954F925F926F927F928F9262
:101480009F92AF92BF92CF92DF92EF92FF920F9313
:101490001F93CF93DF93B62EA72E982E892E722EF0
:1014A000632E542E452EDE2DCF2D862F972FA92D5E
:1014B000B82DBC01CD01CD2EDC2EE02EF12EA701E2
:1014C00096010E94184118168CF08B2D9A2DA92D8B
:1014D000B82DBC01CD01072D162D252D342DA901C8
:1014E00098010E94A43F882334F009C0BD2EAC2E81
:1014F000902E812E04C0B72CA62C952C842C8B2DDD
:101500009A2DA92DB82DBC01CD01DF91CF911F914E
:101510000F91FF90EF90DF90CF90BF90AF909F9092
:101520008F907F906F905F904F9008954F925F9251
:101530006F927F928F929F92AF92BF92CF92DF92E3
:10154000EF92FF920F931F93CF93DF934B015C01B8
:1015500029013A0167017801C701B6010E94DD3E09
:10156000A70196010E94A83FC62EC72FD82F192F7A
:10157000C501B40120E030E0A9010E94A43F882306
:1015800084F4C501B401A30192010E94DD3E412F04
:101590000C2D1C2F2D2F342FA90198010E942341BF
:1015A0001DC0C501B40120E030E0A9010E9418412E
:1015B000181684F4C501B401A30192010E94DE3E15
:1015C000412F0C2D1C2F2D2F342FA90198010E9483
:1015D000234104C060E070E080E090E0382F292FC4
:1015E000862F972FA32FB22FBC01CD01DF91CF9172
:1015F0001F910F91FF90EF90DF90CF90BF90AF9031
:101600009F908F907F906F905F904F900895CF92B2
:10161000DF92EF92FF920F931F93CF93DF93CDB79B
:10162000DEB76E970FB6F894DEBF0FBECDBF6C016C
:101630007B0182E690E00E94231A8C0182E6F80189
:1016400011928A95E9F7C801895B9F4F0E94660F46
:10165000F6011783068389E795E00E941C1489E050
:1016600090E0B70146E050E00E945A14CE0149963E
:1016700060E040E020E000E00E94CD198FE090E0C3
:10168000BE01655E7F4F44E050E00E945A14F601AF
:1016900086819781B70120E63AEE40E050E00F2EB8
:1016A000F0EAEF2EFFE0FF2EF0E00F2FF0E01F2F0B
:1016B000F02D0E9433338C018130910509F040C038
:1016C000F60166817781CE0143960E94162F8FE046
:1016D00090E0BE016B5E7F4F44E050E00E945A14E0
:1016E000F60166817781CE010D960E942C2F81E054
:1016F00090E0BE01615F7F4F44E050E00E945A14C9
:10170000F60166817781CE0107960E94212F85E040
:1017100090E0BE01675F7F4F44E050E00E945A14A2
:10172000F60166817781CE0101960E94422F8B815E
:101730009C81AD81BE81F60182839383A483B583AE
:10174000802F912F6E960FB6F894DEBF0FBECDBFDF
:10175000DF91CF911F910F91FF90EF90DF90CF908D
:1017600008958F929F92AF92BF92CF92DF92EF92A5
:10177000FF920F931F93CF93DF934C016B01EA010C
:10178000590189E795E00E941C1489E090E0B601B8
:1017900046E050E00E945A14BE016E5F7F4F8FE01A
:1017A00090E044E050E00E945A14B8016E5F7F4F11
:1017B00081E090E044E050E00E945A14B7016E5F6F
:1017C0007F4F85E090E044E050E00E945A14F5011C
:1017D00082819381A481B581F40182839383A48360
:1017E000B583DF91CF911F910F91FF90EF90DF9024
:1017F000CF90BF90AF909F908F9008956F927F92FF
:101800008F929F92AF92BF92CF92DF92EF92FF9210
:101810000F931F93CF93DF93CDB7DEB76E970FB6BD
:10182000F894DEBF0FBECDBF4C013B017A016901C8
:101830005801CE0149966FEF4FEF2FEF00E00E9465
:10184000CD192BE432E03C8B2B8BF7018281938105
:10185000A481B5818D8B9E8BAF8BB88F3E872D87F2
:10186000F60182819381A481B5818F87988BA98BA2
:10187000BA8B38872F83F50182819381A481B5814A
:1018800089879A87AB87BC873A8329838B8D9C8D08
:10189000AD8DBE8D8B839C83AD83BE83C401B301AC
:1018A000AE014D5E5F4F9E01235F3F4F8E01095F8A
:1018B0001F4F7E010894E11CF11C0E94B10B6E9633
:1018C0000FB6F894DEBF0FBECDBFDF91CF911F9151
:1018D0000F91FF90EF90DF90CF90BF90AF909F90CF
:1018E0008F907F906F900895EF92FF920F931F93C8
:1018F000CF93DF93CDB7DEB768970FB6F894DEBF0E
:101900000FBECDBF7B01DA0112964D915D916D91B5
:101910007C9115974D8B5E8B6F8B788FEBE4F2E0AB
:10192000FE87ED874F87588B698B7A8BF887EF831B
:10193000D90112960D911D912D913C911597098712
:101940001A872B873C87FA83E9834B835C836D83FB
:101950007E8321E02E83B701AE01435F5F4F9E017E
:10196000295F3F4F8E010F5F1F4F0E94FE0B68964D
:101970000FB6F894DEBF0FBECDBFDF91CF911F91A0
:101980000F91FF90EF900895CF93DF93CDB7DEB71F
:1019900062970FB6F894DEBF0FBECDBFFB01DA0130
:1019A00012964D915D916D917C9115974F87588B53
:1019B000698B7A8B2BE432E038872F8349875A87EB
:1019C0006B877C873A8329834B835C836D837E831B
:1019D00021E02E83BF01AE01495F5F4F9E012F5F63
:1019E0003F4F0E94740C62960FB6F894DEBF0FBE94
:1019F000CDBFDF91CF910895EF92FF920F931F9388
:101A0000CF93DF93CDB7DEB768970FB6F894DEBFFC
:101A10000FBECDBF7C01FC0186819781009709F440
:101A20004BC00E9451328C018230910521F08430EC
:101A3000910509F043C0F70166817781CE01439695
:101A40000E94162F8FE090E0BE016B5E7F4F44E056
:101A500050E00E945A14F70166817781CE010D96FD
:101A60000E942C2F81E090E0BE01615F7F4F44E037
:101A700050E00E945A14F70166817781CE010796E3
:101A80000E94212F85E090E0BE01675F7F4F44E018
:101A900050E00E945A14F70166817781CE010196C9
:101AA0000E94422F8B819C81AD81BE81F701828390
:101AB0009383A483B58302C000E010E0802F912FB0
:101AC00068960FB6F894DEBF0FBECDBFDF91CF9101
:101AD0001F910F91FF90EF900895CF93DF93EC014A
:101AE0000E94C319BE016E5F7F4F8FE090E044E01B
:101AF00050E00E94CD15CE01DF91CF910895CF9394
:101B0000DF93EC010E94C319BE016E5F7F4F85E039
:101B100090E044E050E00E94CD15CE01DF91CF91DE
:101B20000895CF93DF93EC010E94C319BE016E5F4D
:101B30007F4F81E090E044E050E00E94CD15CE015F
:101B4000DF91CF9108952BE432E0FC0131832083B3
:101B5000FB014281538164817581FC01428353837F
:101B60006483758308950F938BE695E060E040E011
:101B700020E000E00E94CD1987E595E00E94C3199E
:101B80000F910895DC01ED91FC91008CF18DE02D19
:101B9000099508952BE432E0FC0131832083FB0199
:101BA0004189528963897489FC0142835383648328
:101BB00075830895FC01858996890895FC01818DBE
:101BC000928D0895CF93DF930F92CDB7DEB76983DF
:101BD000DC01ED91FC910280F381E02DBE016F5F8D
:101BE0007F4F41E050E009950F90DF91CF9108952C
:101BF000CF92DF92EF92FF920F931F93CF93DF93D9
:101C0000CDB7DEB78C01CDB6DEB6DC0159968D912D
:101C10009C915A97009719F1FDB6EEB6F801418DE7
:101C2000528D8DB79EB7841B950B0FB6F8949EBF4F
:101C30000FBE8DBF6DB77EB76F5F7F4F0190F08194
:101C4000E02D008CF18DE02DC8010995FDBEEEBEA2
:101C5000D80159968D919C915A970097E9F60FB645
:101C6000F894DEBE0FBECDBEDF91CF911F910F91D4
:101C7000FF90EF90DF90CF900895CF93DF930F9276
:101C8000CDB7DEB7FC01818D928D009749F0848538
:101C9000BE016F5F7F4F0E946F11898190E002C08B
:101CA0008FEF9FEF0F90DF91CF910895CF93DF9348
:101CB000EC019A01498D5A8D41155105A9F024175F
:101CC000350720F08C850E94241104C08C85A90161
:101CD0000E9424111816190654F4298D3A8D281BD8
:101CE000390B3A8F298F05C08FEF9FEF02C08FEF1E
:101CF0009FEFDF91CF9108950F931F93CF93DF93C1
:101D00000F92CDB7DEB78C01FC01818D928D0097CB
:101D1000A1F08485BE016F5F7F4F41E050E00E94DB
:101D200024111816190664F4F801818D928D01971B
:101D3000928F818F898190E005C08FEF9FEF02C065
:101D40008FEF9FEF0F90DF91CF911F910F9108952B
:101D50000F931F93CF93DF93CDB7DEB728970FB6BE
:101D6000F894DEBF0FBECDBF8C01DC01ED91FC917C
:101D70000284F385E02D099589E795E0F8016485F3
:101D80000E94E714009721F1D8011C968C91BE01A6
:101D90006F5F7F4F48E050E00E942411181619062B
:101DA000CCF4C8010F96BE016F5F7F4F0E94F619F9
:101DB0009D8180E02E81820F911DF801968B858B8D
:101DC0009F8180E02885820F911D928F818F02C0B4
:101DD00080E090E028960FB6F894DEBF0FBECDBF2E
:101DE000DF91CF911F910F910895CF93DF93EC0175
:101DF0009B01FA016F89788D8C85A9019F010E9452
:101E00006C132F89388D280F391F388F2F8BDF9156
:101E1000CF910895FC0184850E94D8130895FC0198
:101E2000108E178A6E5F7F4F84850E94A0130895DD
:101E3000CF93DF93EC018C85843061F00E94E50F35
:101E4000EC85F0E0EE0FFF1FE15AFA4F118210828D
:101E500084E08C87DF91CF910895CF92DF92EF924B
:101E6000FF921F93CF93DF937C016B01FC0184856C
:101E7000843009F5C3E0D4E010E0CE010E94811463
:101E8000882311F0883119F4F701148705C01F5F0A
:101E9000C050DF4F143089F7F7018485843069F032
:101EA000D686C586128E118E62E0A60120E00E94C1
:101EB000FC0F81E003C080E001C080E0DF91CF91A2
:101EC0001F91FF90EF90DF90CF900895FC01138257
:101ED000128248EE53E060E070E0448355836683ED
:101EE00077838DEC91E09183808384E08487CF01B8
:101EF0000F960E94C3190895CF92DF92EF92FF923E
:101F00000F931F93CF93DF93CDB7DEB7E5970FB64F
:101F1000F894DEBF0FBECDBF7C018B016A01CE01FC
:101F200043960E94C319CE014B960E94660FCE01C4
:101F30000D960E94C319CE01079667E575E00E94D1
:101F4000A30DCE014396BE01695F7F4F0E948A3385
:101F5000CE014396B801AE01435F5F4F0E94423607
:101F600081309105C1F4D701ED91FC910088F18990
:101F7000E02D8BE492E09A8389838F859889A989E3
:101F8000BA898B839C83AD83BE83C701BE016F5F1B
:101F90007F4FA6010995E5960FB6F894DEBF0FBEF8
:101FA000CDBFDF91CF911F910F91FF90EF90DF9008
:101FB000CF9008950F9381E795E060E040E020E046
:101FC00000E00E94CD190F9108951F93CF93DF93E6
:101FD000182F89E795E0612F40E10E949A16D12FD2
:101FE00080E0C82FCE018E5F9B4F6FEF0E940314DD
:101FF000DF91CF911F910895CF92DF92EF92FF92E0
:102000001F93CF93DF93182FC62F7A01D22F862FDD
:1020100081508530B0F5812F0E94E50F812F90E02F
:102020000496D82ECC246D2F6C2BC6010E9403146D
:10203000E114F10459F0C60104966F2D0E940314B7
:10204000C60105966E2D0E94031413C0C09177053A
:10205000D09178052196D0937805C0937705C60175
:1020600004966D2F0E940314C60105966C2F0E94E2
:10207000031489E795E0612F41E00E949A1681E000
:1020800001C080E0DF91CF911F91FF90EF90DF9032
:10209000CF900895CF93C82F382F20E0C9018D5FCE
:1020A0009B4F0E948114833141F489E795E06C2FA6
:1020B00042E00E949A1681E001C080E0CF9108952D
:1020C000EF92FF921F93CF93DF93182FFB017A01BA
:1020D00080818F3F51F481818F3F91F482818F3FC6
:1020E00079F483818F3F61F42CC0882349F4818186
:1020F000882331F48281882319F48381882319F19C
:10210000E114F10411F1C12FD0E02496DC2FCC278B
:10211000CE010C96BF0144E050E00E945A14CE015B
:1021200040966F2D0E940314CE0141966E2D0E94A1
:10213000031489E795E0612F44E00E949A1681E03C
:1021400005C080E003C080E001C080E0DF91CF9156
:102150001F91FF90EF900895682F89E795E048E080
:102160000E949A1608956F927F928F929F92AF92DB
:10217000BF92CF92DF92EF92FF920F931F93CF9374
:10218000DF93F82E3B01A42EB52E81E0A81688E03F
:10219000B80620F0AA24BB246894B3F8CF2DD0E071
:1021A00024969C2E882484010D5F1F4F0F2EF9E783
:1021B000CF2EF5E0DF2EF02DC6016F2D0E94991471
:1021C000EC01C8010E948114873111F08C3121F497
:1021D000CA15DB0588F302C0AA24BB24C9E7D5E0F1
:1021E000CE016F2DA30195010E94C115CE016F2D67
:1021F00040E20E949A16E40122960BC0C8010E9498
:102200008114882331F48F2D0E94E50FAA24BB246A
:102210000AC0CE010E94811484FFF0CF8C2F9D2F25
:1022200060E10E9403148A2D9B2DDF91CF911F91B5
:102230000F91FF90EF90DF90CF90BF90AF909F9065
:102240008F907F906F900895AF92BF92CF92DF9260
:10225000EF92FF920F931F93CF93DF93182F6B0191
:10226000EA0189E795E0612F0E94E714E82EF92E34
:10227000E114F10471F4B12EAA24C5018D5F9B4FC6
:102280000E9481148431D1F08823C1F08C31B1F0E7
:1022900022C0CE15DF050CF47E011E141F0474F459
:1022A000C9E7D5E0CE01612FA601970100E00E94A9
:1022B0004216CE01612F40E40E949A168E2D9F2D6A
:1022C000DF91CF911F910F91FF90EF90DF90CF9012
:1022D000BF90AF900895EE24EA94FE2CEFCF0F93B9
:1022E000282FAB0189E795E0622F21E030E001E083
:1022F0000E94421681E090E00F910895AF92BF9244
:10230000CF92DF92FF920F931F93CF93DF93F82E1C
:102310005B01F90168018081882351F48181882360
:1023200039F48281882321F48381882309F453C0FE
:10233000C114D10409F452C0042F152F88E00130D4
:10234000180710F000E018E00115110509F448C065
:10235000CF2DD0E02496DC2FCC27CE010C96BF01E8
:1023600044E050E00E945A14CE0140966D2D0E9428
:102370000314CE0141966C2D0E9403140F2EF9E731
:10238000CF2EF5E0DF2EF02DC6016F2DA5019801AF
:102390000E94C115C6016F2D40E20E949A16229636
:1023A0000DC0CE010E94811483FF08C08F2D9C2D8B
:1023B00068E10E94031400E010E012C0FC2ECD2E54
:1023C000CE010E94811484FFECCF8C2F9D2F60E101
:1023D0000E94031405C000E010E002C000E010E01D
:1023E000802F912FDF91CF911F910F91FF90DF9060
:1023F000CF90BF90AF9008952F923F924F925F92EF
:102400006F927F928F929F92AF92BF92DF92EF92E4
:10241000FF920F931F93CF93DF93CDB7DEB72A9729
:102420000FB6F894DEBF0FBECDBFD82E3B015901C9
:1024300048014115510509F4E2C0082F10E00C5F76
:102440001F4F102F00270F2EF8E24F2E5524F02D8E
:10245000400E511EC2010E948114E82E0F2EF9E297
:102460002F2E3324F02D200E311EC1010E94811425
:10247000282F30E09E2D80E07901E82AF92AC80152
:102480000E94811490E0877090708330910509F468
:1024900044C08430910509F478C08230910509F078
:1024A000A5C089E795E06D2DA7019E012F5F3F4FE5
:1024B00008E010E00E94F415C70108969A87898702
:1024C0008981F50180838A8181838B8182838C81DC
:1024D00083839D8180E02E81820F911DF401918381
:1024E00080839F8180E028857C01E20EF11C89E7D2
:1024F00095E06D2D49855A85930187010E94F41559
:1025000009851A850E0D1F1DC201612F0E9403143B
:10251000C101602F0E9403146BC00F2EF9E78F2EAC
:10252000F5E09F2EF02DC4016D2DA7019E012F5FB8
:102530003F4F06E010E00E94F415C70106969A8707
:1025400089878981F50180838A8181838B81828358
:102550008C8183839D8180E02E817C01E20EF11CC1
:10256000C4016D2D49855A85930187010E94F41598
:1025700009851A850E0D1F1DC201612F0E940314CB
:10258000C101602F0E94031433C00F2EF9E78F2E74
:10259000F5E09F2EF02DC4016D2DA7019E012F5F48
:1025A0003F4F02E010E00E94F415AA24BB24689477
:1025B000A1F8AE0CBF1C398120E08A8190E002971F
:1025C0007C01E20EF31EC4016D2DA501930187016C
:1025D0000E94F41585010E0D1F1DC201612F0E947E
:1025E0000314C101602F0E94031402C0EE24FF24D3
:1025F00089E795E06D2D40E40E949A1602C0EE2412
:10260000FF248E2D9F2D2A960FB6F894DEBF0FBEA5
:10261000CDBFDF91CF911F910F91FF90EF90DF9091
:10262000BF90AF909F908F907F906F905F904F90F2
:102630003F902F900895DF92EF92FF920F931F9398
:10264000CF93DF93D82E9B01042F152F88E0013004
:10265000180710F000E018E00115110599F1C9E71D
:10266000D5E0CE016D2DA90198010E94C115CE01C2
:102670006D2D40E20E949A168D2D90E00496982FC1
:102680008827EC0122960F2EF3E0EF2EFF24F02D89
:10269000E80EF91E0EC0C7010E948114CE010E94EF
:1026A000811483FF06C08D2D0E94E50F00E010E02D
:1026B00009C0CE010E94811484FFEDCFCE0160E1FC
:1026C0000E940314802F912FDF91CF911F910F91C2
:1026D000FF90EF90DF900895AF92BF92CF92DF927C
:1026E000FF920F931F93CF93DF93C82F6B015A0173
:1026F000890189E795E06C2F0E9499148017910752
:1027000040F489E795E06C2F0E949914F82ED92F98
:1027100002C0F02ED12F89E795E06C2FA60195011C
:102720000F2D1D2F0E9436158F2D9D2FDF91CF91DC
:102730001F910F91FF90DF90CF90BF90AF900895C1
:102740000F931F93CF93DF93FB018A01908199230D
:1027500049F49181992331F49281992319F4938159
:102760009923E1F001151105E1F0C82FD0E024967E
:10277000DC2FCC27CE010C96BF0144E050E00E9434
:102780005A14CE014096612F0E940314CE01419647
:10279000602F0E94031481E090E005C080E090E08B
:1027A00002C080E090E0DF91CF911F910F910895DA
:1027B0001F93CF93DF93182F89E795E0612F40E2B5
:1027C0000E949A16D12F80E0C82FCE5FDB4F0CC03D
:1027D000CE010E94811483FF07C0CE0168E10E94F0
:1027E000031480E090E00BC0CE010E94811484FFAE
:1027F000EFCFCE0160E10E94031481E090E0DF9111
:10280000CF911F9108952A9820EF2EBD0DB407FE99
:10281000FDCF2EB59EBD0DB407FEFDCF9EB58EBD7E
:102820000DB407FEFDCF8EB56EBD0DB407FEFDCF16
:102830008EB52A9A81E00895CF93DF93EC016CE284
:1028400071E080E090E00E94CA210E947620229AE6
:1028500080E090E060E80E9403148BE190E065E581
:102860000E9403148AE190E065E50E94031480E071
:1028700090E49983888380E090E69987888780E058
:1028800098E49B838A8380E098E69B878A8780E030
:1028900090E59D838C8380E090E79D878C8780E026
:1028A00098E59F838E8380E098E79F878E87DF91EE
:1028B000CF9108954115510509F1E62FF72F9A019F
:1028C000280F391F70EF2A987EBD0DB407FEFDCF8B
:1028D0006EB59EBD0DB407FEFDCF6EB58EBD0DB4B9
:1028E00007FEFDCF6EB5019661916EBD0DB407FE7A
:1028F000FDCF6EB52A9A8217930729F7842F952F5B
:1029000008952A982FE02EBD0DB407FEFDCF2EB5F9
:102910009EBD0DB407FEFDCF9EB58EBD0DB407FE66
:10292000FDCF8EB51EBC0DB407FEFDCF8EB52A9A25
:1029300008958F929F92AF92BF92CF92DF92EF92C3
:10294000FF920F931F93CF93DF93862F90E004960F
:10295000982F8827AA24BB246894A5F8A80EB91E2E
:102960000F2EF1E2CF2EDD24F02DC80ED91E00E08F
:1029700010E0C5010E948114C82FC6010E94811475
:1029800090E0FC2EEE24EC01CE29DF29209769F09F
:10299000C5010E948114082FC6010E94811490E095
:1029A000902E88248C01082919290C171D0709F776
:1029B000802F912FDF91CF911F910F91FF90EF907A
:1029C000DF90CF90BF90AF909F908F9008958F929F
:1029D0009F92AF92BF92CF92DF92EF92FF920F93AE
:1029E0001F93CF93DF93862F90E00496982F88272C
:1029F0000F2EF6E2AF2EBB24F02DA80EB91E0F2E1F
:102A0000F7E2CF2EDD24F02DC80ED91E00E010E035
:102A1000C5010E948114C82FC6010E94811490E054
:102A2000FC2EEE24EC01CE29DF29209769F0C501A8
:102A30000E948114082FC6010E94811490E0902EFC
:102A400088248C01082919290C171D0709F7802FE4
:102A5000912FDF91CF911F910F91FF90EF90DF9019
:102A6000CF90BF90AF909F908F9008952F923F92FC
:102A70004F925F926F927F928F929F92AF92BF928E
:102A8000CF92DF92EF92FF920F931F93CF93DF933A
:102A90002C015A0119017801C62EDD24C6010496C5
:102AA000D82FCC270F2EF4E26F2E7724F02D6C0E4A
:102AB0007D1EC3010E948114182F0F2EF5E28F2E68
:102AC0009924F02D8C0E9D1EC4010E948114C82FE4
:102AD000D0E0912F80E08C2B9D2BEC01CA0DDB1DEB
:102AE000AE015770C601880F991F840D951DFC011A
:102AF000808191819A01280F391FCA018E0D9F1D77
:102B0000F8E081309F07D8F080E098E05C01A41ADB
:102B1000B50AC901B101A5010E945A14C601880F66
:102B2000991F840D951DB1016A0D7B1DA7014A19DE
:102B30005B09FC01808191810E945A1405C0C90182
:102B4000B101A7010E945A14CE0DDF1DC3016D2FE4
:102B50000E940314C4016C2F0E940314DF91CF91D3
:102B60001F910F91FF90EF90DF90CF90BF90AF90AB
:102B70009F908F907F906F905F904F903F902F909D
:102B800008950F931F93FA01890140E050E09F01DF
:102B90000E9436151F910F9108954115510509F1B5
:102BA000E62FF72F9A01280F391F7FE02A987EBD64
:102BB0000DB407FEFDCF6EB59EBD0DB407FEFDCF73
:102BC0006EB58EBD0DB407FEFDCF6EB501961EBC71
:102BD0000DB407FEFDCF6EB561932A9A8217930755
:102BE00029F7842F952F0895AF92BF92CF92DF924D
:102BF000EF92FF920F931F93CF93DF936C015901D4
:102C00005770C62FD0E0CE010496880F991F8C0D07
:102C10009D1DFC01808191819A01280F391FC801F7
:102C2000840F951FF8E081309F07E0F080E098E086
:102C30007C01E41AF50AC901B501A7010E94CD156E
:102C4000CE010496880F991F8C0D9D1DB5016E0D48
:102C50007F1DA8014E195F09FC01808191810E94AE
:102C6000CD1505C0C901B501A8010E94CD15DF91A0
:102C7000CF911F910F91FF90EF90DF90CF90BF9079
:102C8000AF9008954F925F926F927F928F929F9232
:102C9000AF92BF92CF92DF92FF920F931F93CF9389
:102CA000DF933C01162F2A016901F02EC62FD0E0D8
:102CB0002496DC2FCC270F2EF8E28F2E9924F02DAE
:102CC0008C0E9D1EC4010E948114082F0F2EF9E264
:102CD000AF2EBB24F02DAC0EBD1EC5010E94811489
:102CE000282F30E0902F80E0E901C82BD92BC301B9
:102CF000612FAE01920186010E94F415FF2051F46C
:102D0000CC0DDD1DC4016D2F0E940314C5016C2F75
:102D10000E940314DF91CF911F910F91FF90DF90DC
:102D2000CF90BF90AF909F908F907F906F905F906B
:102D30004F900895CF93DF93D62F80E0C82FCF5FB9
:102D4000DB4FCE01642F0E940314CE010E94811438
:102D50008823D9F7DF91CF910895FC01248535852B
:102D6000F901E05CFF4F808191812E5B3F4FF901BB
:102D700020813181821B930B8F7390700895FC0129
:102D800084859585FC01E05CFF4F20813181FC0149
:102D9000EE5BFF4F408151812417350759F0FC014C
:102DA000EE5BFF4F20813181820F931FFC018081F8
:102DB00090E008958FEF9FEF0895DC011C968D91B0
:102DC0009C911D97FC01E05CFF4F20813181FC014B
:102DD000EE5BFF4F408151812417350799F0FC01CC
:102DE000EE5BFF4F20813181820F931FDC018C91BC
:102DF000208131812F5F3F4F2F73307031832083CB
:102E000090E008958FEF9FEF0895DC011E96ED91FD
:102E1000FC911F97DF01A05CBF4FEE5BFF4F2D9130
:102E20003C9111978081918128173907C1F7089546
:102E30001F93CF93DF93EC01AE85BF85FD01E05C6E
:102E4000FF4F208131812F5F3F4F2F733070122F42
:102E5000732FFD01EE5BFF4F412F572F8081918132
:102E600028173907C9F3FD01E05CFF4F808191818C
:102E7000A80FB91F6C93EE85FF85E05CFF4F51836F
:102E80004083EE89FF89408121E030E0C9010D8C4B
:102E900002C0880F991F0A94E2F7842B808381E097
:102EA00090E0DF91CF911F91089508951F920F92A6
:102EB0000FB60F9211242F933F934F938F939F93AD
:102EC000EF93FF934091C60080912C0690912D06C0
:102ED00001968F73907020912E0630912F068217E5
:102EE000930759F0E0912C06F0912D06E451FA4F2A
:102EF000408390932D0680932C06FF91EF919F9134
:102F00008F914F913F912F910F900FBE0F901F9077
:102F1000189589E895E00E94AD16009711F00E947F
:102F2000551708951F920F920FB60F9211242F93E9
:102F30003F938F939F93EF93FF932091E8053091F8
:102F4000E9058091EA059091EB052817390731F4DE
:102F5000E1ECF0E080818F7D808314C0E091EA0590
:102F6000F091EB05E855FA4F20818091EA059091A8
:102F7000EB0501968F7390709093EB058093EA05B3
:102F80002093C600FF91EF919F918F913F912F91D8
:102F90000F900FBE0F901F9018958F92AF92BF9217
:102FA000CF92DF92EF92FF920F931F93CF93DF9315
:102FB000CDB7DEB7FC011382128288EE93E0A0E069
:102FC000B0E084839583A683B7838BE292E09183FC
:102FD00080837587648757874687318B208B138B57
:102FE000028BF58AE48AD78AC68AB18EA08E828E39
:102FF0008E85838F8F85848F8889858F8989868F39
:10300000DF91CF911F910F91FF90EF90DF90CF90C4
:10301000BF90AF908F9008952F923F924F925F9202
:103020006F927F928F929F92AF92BF92CF92DF92D8
:10303000EF92FF920F931F93CF93DF938C016A015E
:103040007B01C1E0403021EE520720E0620720E022
:10305000720721F4C0E002C0CD2F18C0222433240F
:1030600023940F2EF0E08F2EF9E09F2EFDE3AF2E7C
:10307000F0E0BF2EF02D0F2EF0E84F2EF4E85F2E7B
:10308000FEE16F2EF0E07F2EF02DD0E0CC23F1F0AA
:10309000D8015496ED91FC915597C1015E960C9024
:1030A00002C0880F991F0A94E2F78083C501B4011A
:1030B000A70196010E94B441DA01C9010197A10953
:1030C000B109B695A7959795879515C0D8015496DF
:1030D000ED91FC9155971082C301B201A7019601B1
:1030E0000E94B441DA01C9010197A109B109B6955D
:1030F000A79597958795B0E180309B0718F0CC2372
:1031000009F0AACFD8015096ED91FC915197908388
:103110005296ED91FC91539780835696ED91FC91D8
:103120005797408121E030E0C9015A960C905A9798
:1031300002C0880F991F0A94E2F7842B8083569669
:10314000ED91FC9157974081C9015B960C905B977C
:1031500002C0880F991F0A94E2F7842B8083569649
:10316000ED91FC9157974081C9015C960C905C975A
:1031700002C0880F991F0A94E2F7842B8083569629
:10318000ED91FC91579780815D960C905D9702C000
:10319000220F331F0A94E2F7209528232083DF9122
:1031A000CF911F910F91FF90EF90DF90CF90BF9044
:1031B000AF909F908F907F906F905F904F903F90D7
:1031C0002F900895CF93DF93EC01EE85FF85DF010B
:1031D000A05CBF4FEE5BFF4F8D919C9111972081BA
:1031E000318182179307C1F7EE89FF89408121E081
:1031F00030E0C9010A8C02C0880F991F0A94E2F7D7
:10320000809584238083EE89FF894081C9010B8CDE
:1032100002C0880F991F0A94E2F780958423808367
:10322000EE89FF894081C9010C8C02C0880F991F6B
:103230000A94E2F7809584238083EE89FF89808158
:103240000D8C02C0220F331F0A94E2F72095282329
:1032500020838C859D85FC01EE5BFF4F20813181B1
:10326000805C9F4FFC0131832083DF91CF910895D3
:1032700081E008958F92AF92BF92CF92DF92EF924A
:10328000FF920F931F9300D000D0EDB7FEB7319699
:1032900083E0ADB7BEB711968C9387E0818385E05C
:1032A000828381E0838389E895E06CEE75E048EAEB
:1032B00055E025EC30E004EC10E00F2EF0ECEF2EA2
:1032C000FF24F02D0F2EF1ECCF2EDD24F02D0F2E4C
:1032D000F6ECAF2EBB24F02D8824689482F80E946F
:1032E000CD170F900F900F900F901F910F91FF909F
:1032F000EF90DF90CF90BF90AF908F9008958F9216
:103300009F92AF92BF92CF92DF92EF92FF920F9374
:103310001F93CF93DF934C017B01AA24BB246894B5
:10332000A1F8A80EB91E00E010E0CC24DD24F501C0
:1033300061915F01C7014AE050E00E94131CEC015B
:10334000C7016EE20E94E01A8C0F9D1FC80ED91EA5
:103350000F5F1F4F0330110551F7C701F40165815D
:103360004AE050E00E94131C8C0D9D1DDF91CF910F
:103370001F910F91FF90EF90DF90CF90BF90AF9093
:103380009F908F900895FC018BE492E0918380835D
:10339000128213821482158208950F93FC018BE42C
:1033A00092E09183808362834383248305830F911A
:1033B0000895FC018BE492E09183808342835383E0
:1033C000648375830895CF93DF93FC018BE492E0CF
:1033D00091838083EB0188819981AA81BB8182835B
:1033E0009383A483B583DF91CF910895FB0140813E
:1033F000518162817381FC014283538364837583AD
:103400000895FC01428353836483758308959C016E
:103410002E5F3F4FCB01B90144E050E00E948E4443
:10342000282F392F81E02115310509F080E008951A
:103430000F9380E396E060E040E020E000E00E942F
:10344000CD190F9108950E94F74108950E948D4271
:10345000089521E030E0FC018081882311F020E014
:1034600030E0822F932F089521E0FC0120830895FE
:1034700008950895CF92DF92EF92FF920F931F93DA
:10348000CF93DF936C017B01EA01209791F000E07C
:1034900010E0D7016D917D01D601ED91FC91019075
:1034A000F081E02DC6010995080F191F219789F7B2
:1034B00002C000E010E0802F912FDF91CF911F918B
:1034C0000F91FF90EF90DF90CF900895EF92FF92D1
:1034D0000F931F93CF93DF937C01EB01FB0164916A
:1034E000662391F0219600E010E0F701A081B18100
:1034F000ED91FC91C7010995080F191FFE01219656
:103500006491662391F702C000E010E0802F912FB4
:10351000DF91CF911F910F91FF90EF900895AF929F
:10352000BF92CF92DF92EF92FF920F931F93CF93B0
:10353000DF935C016B01DB0114968D919C911597D3
:103540000097E1F000E010E0EE24FF24D501ED91BA
:10355000FC91C081D181C601B8010E944329682F26
:10356000C501FE010995E80EF91E0F5F1F4FF60118
:10357000848195810817190748F302C0EE24FF24BF
:103580008E2D9F2DDF91CF911F910F91FF90EF9086
:10359000DF90CF90BF90AF900895E62FF72FDF0117
:1035A0000D900020E9F7AD01415050404E1B5F0BDC
:1035B000DC01ED91FC910280F381E02D09950895E5
:1035C000DC01ED91FC910190F081E02D09950895C9
:1035D0009C01CB01DB01ED91FC910190F081E02D8C
:1035E000B901099508950F931F93CF93DF938C0131
:1035F0006DE00E94E01AEC01C8016AE00E94E01A46
:103600008C0F9D1FDF91CF911F910F9108950F9304
:103610001F93CF93DF938C010E94661AEC01C801BF
:103620000E94F31A8C0F9D1FDF91CF911F910F9174
:1036300008950F931F93CF93DF938C010E948F1AED
:10364000EC01C8010E94F31A8C0F9D1FDF91CF91EE
:103650001F910F9108950F931F93CF93DF938C01C8
:103660000E94CD1AEC01C8010E94F31A8C0F9D1F15
:10367000DF91CF911F910F9108950F931F93CF93D7
:10368000DF938C010E94E01AEC01C8010E94F31A3A
:103690008C0F9D1FDF91CF911F910F9108950F9374
:1036A0001F93CF93DF938C010E94E81AEC01C801AD
:1036B0000E94F31A8C0F9D1FDF91CF911F910F91E4
:1036C00008954F925F926F927F928F929F92AF92E6
:1036D000BF92CF92DF92EF92FF920F931F93CF93FF
:1036E000DF93CDB7DEB7A1970FB6F894DEBF0FBE5C
:1036F000CDBF4C01142F352F862F972F022F19A2E3
:10370000223008F40AE00F2EF1E2AF2EBB24F02D98
:10371000AC0EBD1E402E55246624772403C0122F04
:10372000842F952F612F732FA30192010E94B44122
:10373000C22ED32EE42EF52E029F802D1124181BAD
:103740000894A108B1081A3010F4105D01C0195C8A
:10375000D5011C93C114D104E104F10401F7EA2D51
:10376000FB2DDF010D900020E9F71197AD014E1BF5
:103770005F0BD401ED91FC910280F381E02DC40137
:10378000B5010995A1960FB6F894DEBF0FBECDBF67
:10379000DF91CF911F910F91FF90EF90DF90CF902D
:1037A000BF90AF909F908F907F906F905F904F9061
:1037B00008952115310549F4DC01ED91FC9101904A
:1037C000F081E02D642F099508950E94611B0895F2
:1037D0000F931F93CF93DF938C010E94D91BEC01B1
:1037E000C8010E94F31A8C0F9D1FDF91CF911F918A
:1037F0000F9108959A01AB0160E070E00E94D91B1F
:1038000008950F931F93CF93DF938C010E94FA1BAF
:10381000EC01C8010E94F31A8C0F9D1FDF91CF911C
:103820001F910F9108959A01462F50E060E070E0DB
:103830000E94D91B08950F931F93CF93DF938C01A0
:103840000E94131CEC01C8010E94F31A8C0F9D1FEB
:10385000DF91CF911F910F910895CF92DF92EF9258
:10386000FF920F931F93CF93DF93EC016A017B01CB
:103870002115310541F4E881F9810190F081E02DB5
:10388000642F09951DC02A303105C1F4772394F4C3
:103890006DE20E94E01A8C0144275527BA014C19A9
:1038A0005D096E097F09CE012AE00E94611B800F2D
:1038B000911F06C02AE00E94611B02C00E94611B8A
:1038C000DF91CF911F910F91FF90EF90DF90CF90FC
:1038D00008950F931F93CF93DF938C010E942D1CAB
:1038E000EC01C8010E94F31A8C0F9D1FDF91CF914C
:1038F0001F910F9108959A01FB01AF01662757FDB3
:103900006095762F0E942D1C08950F931F93CF93DF
:10391000DF938C010E947B1CEC01C8010E94F31A0A
:103920008C0F9D1FDF91CF911F910F9108954F92A2
:103930005F926F927F928F929F92AF92BF92DF922F
:10394000EF92FF920F931F93CF93DF933C014A01B5
:103950005B01E22ECB01BA0120E030E0A9010E9418
:10396000A43F882354F4C3016DE20E94E01A2C01A5
:10397000B7FAB094B7F8B09402C044245524EE20AE
:1039800009F4A3C0C0E050E040E030E02FE3852F11
:10399000942FA32FB22FBC01CD0120E030E040E2F4
:1039A00051E40E94A83F562F472F382F292FCF5F71
:1039B000CE1569F7C501B401E22F052F142F232F6F
:1039C0003E2FA90198010E94DE3E162F072FF82EE8
:1039D000D92E862F902FAF2DBD2DBC01CD010E9479
:1039E0001540C62FA72E882ED92F0E9441409B013B
:1039F000AC01812F902FAF2DBD2DBC01CD010E94B8
:103A0000DD3EF62ED72E182F092FC3014C2F5A2D2D
:103A1000682D7D2F2AE030E00E94D91BEC01C30104
:103A200063E572E00E94CD1AC80FD91F5E01A40C95
:103A3000B51C8F2D9D2DA12FB02FBC01CD0120E0F5
:103A400030E040E251E40E942341162F072FF82E68
:103A5000D92E862F902FAF2DBD2DBC01CD010E94F8
:103A60001040AB01BC01EA01C301BA014AE050E0D9
:103A70000E947B1CA80EB91EBE01882777FD809589
:103A8000982F0E9443409B01AC01812F902FAF2DB6
:103A9000BD2DBC01CD010E94DD3EF62ED72E182F84
:103AA000092FEA9431F68A2D9B2DDF91CF911F913A
:103AB0000F91FF90EF90DF90BF90AF909F908F900D
:103AC0007F906F905F904F900895C501B40120E002
:103AD00030E040E05FE30E94DE3E0E941540AB0113
:103AE000BC01C3012AE030E00E94D91B5C01A40C98
:103AF000B51CD9CF0E94971C08950F931F93CF93A5
:103B0000DF938C010E947A1DEC01C8010E94F31A18
:103B10008C0F9D1FDF91CF911F910F910895282F3A
:103B200030E0C901880F991F280F391FC901880F7C
:103B3000991F880F991FBC01FC01EE0FFF1F8E0F0C
:103B40009F1FFC01E85CF94F808186FD18C040E0B2
:103B500050E0CA01860F971F01969C01220F331F68
:103B6000820F931FFC01E85CF94F808186FD09C03C
:103B70004F5F5F4F4B30510561F780E0089581E062
:103B8000089581E008951F920F920FB60F921124AD
:103B90002F933F934F935F936F937F938F939F9355
:103BA000AF93BF93EF93FF938091370688232CF454
:103BB00010928500109284002DC020913706332783
:103BC00027FD30958091360690E02817390714F5C7
:103BD00080913706992787FD9095FC01EE0FFF1F16
:103BE0008E0F9F1FFC01E85CF94F808186FF12C099
:103BF00080913706992787FD9095FC01EE0FFF1FF6
:103C00008E0F9F1FFC01E85CF94F80818F7360E08D
:103C10000E941D23809137068F5F80933706209185
:103C20003706332727FD30958091360690E0281718
:103C300039070CF055C0809137068C300CF050C01D
:103C4000809184009091850020913706332727FDCD
:103C50003095F901EE0FFF1F2E0F3F1FF901E85CB1
:103C6000F94F21813281820F931F909389008093B5
:103C7000880080913706992787FD9095FC01EE0F0B
:103C8000FF1F8E0F9F1FFC01E85CF94F808186FFAC
:103C900030C080913706992787FD9095FC01EE0F83
:103CA000FF1F8E0F9F1FFC01E85CF94F80818F730F
:103CB00061E00E941D231DC080E49CE9909389006F
:103CC0008093880009C080918400909185000496BB
:103CD00090938900809388008FEF8093370609C006
:103CE00080918400909185002CE98434920720F320
:103CF000EACFFF91EF91BF91AF919F918F917F910B
:103D00006F915F914F913F912F910F900FBE0F9048
:103D10001F901895FC01809136068C3098F48083B2
:103D20008F5F80933606808190E0FC01EE0FFF1FCD
:103D30008E0F9F1FFC01E85CF94F88EB9BE092839C
:103D4000818308958FEF80830895CF92DF92EF9261
:103D5000FF920F931F93CF938C01C62F7A016901B5
:103D6000FC0180818C3008F054C0862F61E00E94F5
:103D7000E922F8014081842F90E09C01220F331F3B
:103D8000820F931FFC01E85CF94FCF738081807C28
:103D9000C82BC08380E292E08E199F090AF4039633
:103DA0009595879595958795F801818380E699E0AB
:103DB0008C199D090AF40396959587959595879595
:103DC000F8018283842F6CE00E94A841C82F0E94D2
:103DD0008F1D882389F4CC2379F41092800082E02F
:103DE000809381001092850010928400B19AEFE6D2
:103DF000F0E0808182608083F801808190E0FC01A6
:103E0000EE0FFF1FE80FF91FE85CF94F8081806417
:103E10008083F8018081CF911F910F91FF90EF90E7
:103E2000DF90CF90089540E252E020E639E00E9412
:103E3000A51E0895FC01808190E0FC01EE0FFF1F9C
:103E4000E80FF91FE85CF94F80818F7B808308952C
:103E5000CF92DF92EF92FF92FC0140814C3008F04C
:103E600041C08181992787FD909528E830E0281B83
:103E7000390B220F331F220F331F6217730784F091
:103E80008281992787FD909528E532E0281B390B20
:103E9000220F331F220F331F621773070CF49B018D
:103EA000225030406901EE24D7FCE094FE2CCC0C6B
:103EB000DD1CEE1CFF1C8EEF9FEFAFEFBFE1C822B1
:103EC000D922EA22FB225FB7F894842F90E09C016C
:103ED000220F331F820F931FFC01E85CF94FD2823F
:103EE000C1825FBFFF90EF90DF90CF900895AF92B7
:103EF000BF92CF92DF92EF92FF920F931F93CF93D7
:103F0000DF93EC0182E0603278070CF04FC077233A
:103F100014F460E070E000D000D0EDB7FEB7319649
:103F2000653B710514F064EB70E0CB01AC016627D2
:103F300057FD6095762F8981992787FD909528E810
:103F400030E0281B390B5901AA0CBB1CAA0CBB1C66
:103F5000CC24B7FCC094DC2C8A81992787FD9095EE
:103F600028E532E0281B390BC901880F991F880FFB
:103F7000991FAA2797FDA095BA2F80839183A283CA
:103F8000B383CB01BA0120E030E0A9010F2EF4EB9E
:103F9000EF2EF0E0FF2EF0E00F2FF0E01F2FF02DBE
:103FA0000E94CD230F900F900F900F90CE010E9492
:103FB000281FDF91CF911F910F91FF90EF90DF901D
:103FC000CF90BF90AF900895FC0180818F3FC9F0E2
:103FD00090E0FC01EE0FFF1F8E0F9F1FFC01E85CBD
:103FE000F94F81819281880F991F880F991F880F3F
:103FF000991F929582958F7089279F7089270296C5
:10400000089580E090E008958F929F92AF92BF92C2
:10401000CF92DF92EF92FF920F931F93CF93DF9394
:10402000EC010E94E41F00D000D0AC014F5F5F4F55
:10403000662757FD6095762F8981992787FD909592
:104040000F2EF8E88F2E9924F02D881A990A880CE3
:10405000991C880C991CAA2497FCA094BA2C8A81DC
:10406000992787FD909528E532E0281B390B7901C7
:10407000EE0CFF1CEE0CFF1C0027F7FC0095102F28
:1040800084EB90E0A0E0B0E0EDB7FEB781839283CF
:10409000A383B483CB01BA01A5019401AA24BB2454
:1040A00065010E94CD230F900F900F900F90862FE7
:1040B000972FDF91CF911F910F91FF90EF90DF909D
:1040C000CF90BF90AF909F908F900895FC0180811A
:1040D00090E0FC01EE0FFF1F8E0F9F1FFC01E85CBC
:1040E000F94F908181E096FF80E008958DE061E0D6
:1040F0000E94E9228BE061E00E94E9228AE061E00F
:104100000E94E9228DE060E00E941D238BE060E0C8
:104110000E941D238AE061E00E941D238CB580610E
:104120008CBD8CB580648CBD08958CB58F7B8CBDA7
:104130000895882321F48CB580628CBD08958CB5D8
:104140008F7D8CBD08959CB5937F892B8CBD089580
:104150009CB5282F23709C7F922B9CBD2DB590E0A1
:1041600095958795959587958170922F9E7F892B40
:104170008DBD08958230E8F4E82FF0E0EE0FFF1FC8
:10418000E35AF94F71836083813041F08091690077
:104190008C7F842B80936900E89A08958091690050
:1041A000440F551F440F551F837F842B8093690054
:1041B000E99A0895823068F4813011F0E89801C0DE
:1041C000E998E82FF0E0EE0FFF1FE35AF94F118254
:1041D000108208951F920F920FB60F9211242F9301
:1041E0003F934F935F936F937F938F939F93AF937F
:1041F000BF93EF93FF9380915D0690915E060097C9
:1042000029F0E0915D06F0915E060995FF91EF912E
:10421000BF91AF919F918F917F916F915F914F91DE
:104220003F912F910F900FBE0F901F9018951F92E6
:104230000F920FB60F9211242F933F934F935F93DA
:104240006F937F938F939F93AF93BF93EF93FF935E
:1042500080915F0690916006009729F0E0915F06DB
:10426000F09160060995FF91EF91BF91AF919F91F9
:104270008F917F916F915F914F913F912F910F900F
:104280000FBE0F901F9018951F920F920FB60F92AE
:1042900011242F933F938F939F93AF93BF9380915C
:1042A000610690916206A0916306B0916406309118
:1042B0006906232F2D5F2D3720F40196A11DB11D16
:1042C00005C0232F2A570296A11DB11D2093690610
:1042D0008093610690936206A0936306B093640690
:1042E0008091650690916606A0916706B091680678
:1042F0000196A11DB11D8093650690936606A0935B
:104300006706B0936806BF91AF919F918F913F91DF
:104310002F910F900FBE0F901F9018950F931F9322
:104320008FB7F894009161061091620620916306A0
:10433000309164068FBFB801C9011F910F91089594
:104340000F931F939FB7F89400916506109166062E
:10435000209167063091680686B5A89B06C08F3FFE
:1043600021F00F5F1F4F2F4F3F4F9FBF322F212F45
:10437000102F0027080F111D211D311D42E0000FD5
:10438000111F221F331F4A95D1F7B801C9011F9190
:104390000F910895CF92DF92EF92FF92CF93DF9328
:1043A0006B017C010E94A021DC01CB01EC010FC05C
:1043B0000E94A0216C1B7D0B83E0683E780738F0DB
:1043C0000894C108D108E108F108C851DC4FC114B4
:1043D000D104E104F10461F7DF91CF91FF90EF90F8
:1043E000DF90CF900895019739F0880F991F880FBB
:1043F000991F02970197F1F70895789484B5826028
:1044000084BD84B5816084BD85B5826085BD85B578
:10441000816085BDEEE6F0E0808181608083E1E827
:10442000F0E010828081826080838081816080835F
:10443000E0E8F0E0808181608083E1EBF0E0808162
:1044400084608083E0EBF0E0808181608083EAE734
:10445000F0E08081846080838081826080838081BD
:10446000816080838081806880831092C10008957C
:1044700080935D0208958E3008F08E508770909181
:104480005D029295990F990F907C982B90937C00E8
:1044900080917A00806480937A0080917A0086FD12
:1044A000FCCF8091780090917900392F20E090E046
:1044B000822B932B08951F93CF93DF93182FEB013B
:1044C00061E00E94E922209711F4812F4CC0CF3F78
:1044D000D10511F4812F49C0E12FF0E0EB56FF4FD9
:1044E000E491E330C1F0E43028F4E13051F0E230FF
:1044F000B1F50CC0E63019F1E73049F1E43079F557
:1045000014C084B5806884BDC7BD32C084B58062E4
:1045100084BDC8BD2DC080918000806880938000DC
:10452000D0938900C093880023C08091800080626E
:1045300080938000D0938B00C0938A0019C0809133
:10454000B00080688093B000C093B30011C0809128
:10455000B00080628093B000C093B40009C0812F86
:10456000C038D10514F460E001C061E00E941D2351
:10457000DF91CF911F910895833071F0843028F43A
:104580008130A1F0823021F514C08630B1F087303F
:10459000D1F08430E9F404C0809180008F7703C0AB
:1045A000809180008F7D80938000089584B58F77FF
:1045B00002C084B58F7D84BD08958091B0008F774F
:1045C0008093B00008958091B0008F7D8093B000FB
:1045D000089590E0FC01E755FF4F249183549F4FCD
:1045E000FC018491882341F190E0880F991FFC0120
:1045F000EB51FF4F45915491DA0185529F4FFC01D9
:1046000085919491FC019FB7F8948C91662331F4C5
:10461000209582238C938081822308C0623049F4E4
:10462000322F309583238C938081822B80839FBF90
:104630000895822B8C939FBF08950F931F93CF9360
:10464000DF930F92CDB7DEB7282F30E0F901EB569C
:10465000FF4F8491F901E755FF4F1491F901E3549D
:10466000FF4F04910023D1F0882321F069830E9439
:10467000BC226981E02FF0E0EE0FFF1FE552FF4FF3
:1046800085919491DC019FB7F8948C91662319F47D
:104690001095812301C0812B8C939FBF0F90DF91D8
:1046A000CF911F910F910895CF93DF93282F30E082
:1046B000F901EB56FF4F8491F901E755FF4FC49183
:1046C000F901E354FF4FD491DD2391F0882311F0D9
:1046D0000E94BC22ED2FF0E0EE0FFF1FEF52FF4FC4
:1046E00085919491FC0120812C2381E090E011F4CC
:1046F00080E090E0DF91CF910895009729F0BC0110
:1047000080E090E00E9479430895CF92DF92EF928B
:10471000FF920F931F936B017C0161157105810559
:10472000910549F00E947443A70196010E94D64169
:104730008B019C0103C000E010E09801602F712FF5
:10474000822F932F1F910F91FF90EF90DF90CF90CA
:104750000895CF92DF92EF92FF926B017C01DA0114
:10476000C901C216D306E406F50674F48C199D0936
:10477000AE09BF09BC01CD010E948523DC01CB013C
:10478000C80ED91EEA1EFB1E6C2D7D2D8E2D9F2D71
:10479000FF90EF90DF90CF9008954F925F926F92CD
:1047A0007F92AF92BF92CF92DF92EF92FF920F93E0
:1047B0001F93CF93DF9300D000D0CDB7DEB7290190
:1047C0003A01E982FA820B831C8376016501621B40
:1047D000730B840B950B2D893E894F89588D2C19AD
:1047E0003D094E095F090E94894129813A814B8127
:1047F0005C8124193509460957090E94D641C20E29
:10480000D31EE41EF51E6C2D7D2D8E2D9F2D0F9039
:104810000F900F900F90DF91CF911F910F91FF900C
:10482000EF90DF90CF90BF90AF907F906F905F90B0
:104830004F900895089570E0382F20E0262B372BF5
:10484000822F932F0895FC01808191810E948D42D7
:104850000895CF93DF93EC0188819981009711F03F
:104860000E948D42198218821D821C821B821A822C
:10487000DF91CF9108950F931F93CF93DF93EC01B6
:104880008B016F5F7F4F888199810E948443282F1D
:10489000392F2115310531F0398328831B830A8391
:1048A00081E001C080E0DF91CF911F910F910895C9
:1048B000CF93DF93EC0188819981009729F08A8159
:1048C0009B818617970770F4CE010E943B248823B2
:1048D00059F08C819D81009749F4E881F98110821B
:1048E00081E005C081E003C080E001C081E0DF918C
:1048F000CF910895EF92FF920F931F93CF93DF9381
:10490000EC017B018A01BA010E945824882321F41A
:10491000CE010E94292407C01D830C8388819981C0
:10492000B7010E94CA448C2F9D2FDF91CF911F9118
:104930000F91FF90EF900895CF93DF93DC011196D4
:104940001C921E9213961C921E92129715961C9200
:104950001E92149716961C9216976115710569F0B0
:10496000E62FF72FEF0109900020E9F7AE01415043
:1049700050404E1B5F0B0E947A24DF91CF91089527
:10498000CF93DF93EC01FB018617970769F0208135
:1049900031812115310531F044815581B9010E94E1
:1049A0007A2402C00E9429248C2F9D2FDF91CF9161
:1049B0000895FC01118210821382128215821482E2
:1049C00016820E94C0240895CF93DF93C82FD92F59
:1049D0006115710571F0E62FF72FDF010D900020B2
:1049E000E9F7AD01415050404E1B5F0B0E947A2405
:1049F00002C00E9429248C2F9D2FDF91CF91089512
:104A00000F931F93CF93DF93CDB7DEB7A1970FB668
:104A1000F894DEBF0FBECDBF8C01FC011182108265
:104A200013821282158214821682CB01BA01AE0162
:104A30004F5F5F4F30E00E947D45C801BE016F5F50
:104A40007F4F0E94E424A1960FB6F894DEBF0FBEFC
:104A5000CDBFDF91CF911F910F9108950F931F93B9
:104A6000CF93DF93CDB7DEB7A2970FB6F894DEBF32
:104A70000FBECDBF8C01FC01118210821382128205
:104A8000158214821682CB01BA01AE014F5F5F4FCF
:104A900030E00E943445C801BE016F5F7F4F0E9425
:104AA000E424A2960FB6F894DEBF0FBECDBFDF910F
:104AB000CF911F910F9108950F931F93CF93DF9381
:104AC000CDB7DEB761970FB6F894DEBF0FBECDBF8E
:104AD0008C01CB01F801118210821382128215829F
:104AE00014821682BE016F5F7F4F50E00E94A24584
:104AF000C801BE016F5F7F4F0E94E42461960FB62C
:104B0000F894DEBF0FBECDBFDF91CF911F910F9103
:104B100008950F931F93CF93DF93CDB7DEB76297BE
:104B20000FB6F894DEBF0FBECDBF8C01CB01F801EC
:104B30001182108213821282158214821682BE01A3
:104B40006F5F7F4F50E00E941345C801BE016F5F49
:104B50007F4F0E94E42462960FB6F894DEBF0FBE2A
:104B6000CDBFDF91CF911F910F9108950F931F93A8
:104B7000CF93DF93CDB7DEB729970FB6F894DEBF9A
:104B80000FBECDBF8C01862FF801118210821382D7
:104B9000128215821482168290E0BE016F5F7F4FF1
:104BA00050E00E94A245C801BE016F5F7F4F0E9486
:104BB000E42429960FB6F894DEBF0FBECDBFDF9177
:104BC000CF911F910F910895CF93DF9300D0CDB770
:104BD000DEB7FC01118210821382128215821482C8
:104BE000168269831A82BE016F5F7F4F0E94E424A0
:104BF0000F900F90DF91CF910895EF92FF920F9356
:104C00001F93CF93DF938C017B01FC01C481D5817D
:104C100061157105C9F041155105C1F0C40FD51FCB
:104C2000BE010E945824882399F0F8018081918167
:104C300024813581820F931FB7010E94CA44F80175
:104C4000D583C48381E005C080E003C081E001C05A
:104C500080E0DF91CF911F910F91FF90EF90089529
:104C6000FB012081318144815581B9010E94FD25DC
:104C700008956115710571F0E62FF72FDF010D9092
:104C80000020E9F7AD01415050404E1B5F0B0E94E0
:104C9000FD25089580E00895CF93DF9300D0CDB730
:104CA000DEB769831A82BE016F5F7F4F41E050E03B
:104CB0000E94FD250F900F90DF91CF910895EF9204
:104CC000FF920F931F93CF93DF9300D000D0CDB707
:104CD000DEB77C01862F90E08E010F5F1F4FB80179
:104CE0004AE050E00E941345F80101900020E9F7E6
:104CF000AF0141505040401B510BC701B8010E9409
:104D0000FD250F900F900F900F90DF91CF911F9185
:104D10000F91FF90EF900895EF92FF920F931F93E2
:104D2000CF93DF93CDB7DEB727970FB6F894DEBFEA
:104D30000FBECDBF7C01CB018E010F5F1F4FB801AD
:104D40004AE050E00E941345F80101900020E9F785
:104D5000AF0141505040401B510BC701B8010E94A8
:104D6000FD2527960FB6F894DEBF0FBECDBFDF91AD
:104D7000CF911F910F91FF90EF900895EF92FF92C6
:104D80000F931F93CF93DF9300D000D000D0CDB707
:104D9000DEB77C01CB018E010F5F1F4FB8014AE0E7
:104DA00050E00E94A245F80101900020E9F7AF0110
:104DB00041505040401B510BC701B8010E94FD25D6
:104DC00026960FB6F894DEBF0FBECDBFDF91CF9110
:104DD0001F910F91FF90EF900895EF92FF920F9324
:104DE0001F93CF93DF93CDB7DEB72C970FB6F89410
:104DF000DEBF0FBECDBF7C01CB01BA018E010F5FBC
:104E00001F4FA8012AE030E00E943445F8010190CC
:104E10000020E9F7AF0141505040401B510BC70142
:104E2000B8010E94FD252C960FB6F894DEBF0FBE88
:104E3000CDBFDF91CF911F910F91FF90EF9008951B
:104E4000EF92FF920F931F93CF93DF93CDB7DEB70F
:104E50002B970FB6F894DEBF0FBECDBF7C01CB0100
:104E6000BA018E010F5F1F4FA8012AE030E00E94B7
:104E70007D45F80101900020E9F7AF014150504015
:104E8000401B510BC701B8010E94FD252B960FB6A0
:104E9000F894DEBF0FBECDBFDF91CF911F910F9170
:104EA000FF90EF900895CF93DF93C82FD92FFB0188
:104EB0002081318144815581B9010E94FD258823DB
:104EC00021F48C2F9D2F0E9429248C2F9D2FDF9160
:104ED000CF910895CF93DF93C82FD92F6115710516
:104EE00079F0E62FF72FDF010D900020E9F7AD01F3
:104EF000415050404E1B5F0B0E94FD25882321F43A
:104F00008C2F9D2F0E9429248C2F9D2FDF91CF91D4
:104F10000895CF93DF93D82FC92F0E944C26882362
:104F200021F48D2F9C2F0E9429248D2F9C2FDF91FF
:104F3000CF910895CF93DF93D82FC92F0E945F267A
:104F4000882321F48D2F9C2F0E9429248D2F9C2FA4
:104F5000DF91CF910895CF93DF93D82FC92F0E946F
:104F60008C26882321F48D2F9C2F0E9429248D2F9D
:104F70009C2FDF91CF910895CF93DF93D82FC92F26
:104F80000E94BE26882321F48D2F9C2F0E94292465
:104F90008D2F9C2FDF91CF910895CF93DF93D82F42
:104FA000C92F0E94ED26882321F48D2F9C2F0E946B
:104FB00029248D2F9C2FDF91CF910895CF93DF93DC
:104FC000D82FC92F0E942027882321F48D2F9C2FB2
:104FD0000E9429248D2F9C2FDF91CF910895DC0111
:104FE000FB018D919C911197009731F06081718147
:104FF00061157105D1F40EC0A081B1811097D1F077
:10500000848195810097C9F02C9130E030952195ED
:105010003F4F18C014962D913C91159721153105DD
:1050200079F0FC01208130E00DC00E94C144282F9E
:10503000392F08C020E030E005C020E030E002C099
:1050400020E030E0822F932F0895FC0124813581E8
:10505000FB01448155812417350739F40E94EF275D
:1050600021E0009719F020E001C020E0822F089590
:10507000FC0184819581009761F46115710539F017
:1050800081E0FB0190819923D9F080E0089581E0CF
:1050900008956115710549F40190F081E02D81E0DA
:1050A0009081992369F080E00895808191810E9428
:1050B000C144282F392F81E02115310509F080E006
:1050C00008950E94EF27892F881F8827881F089539
:1050D0000E94EF2721E0181619060CF020E0822F1D
:1050E00008950E94EF2721E0181619060CF420E01D
:1050F000822F08950E94EF27892F8095881F882787
:10510000881F0895EF92FF920F931F93CF93DF9321
:10511000DC01FB018617970729F114968D919C916C
:1051200015972481358182179307F1F40097F1F0E8
:10513000E080F1800D911C9111970DC090E00E94CC
:105140007E44EC01F70181917F0190E00E947E4452
:10515000C817D90769F4F80181918F01882371F785
:1051600081E007C081E005C080E003C081E001C0AC
:1051700080E0DF91CF911F910F91FF90EF90089504
:10518000FC01DB0114962D913C911597848195814A
:10519000821B930B84179507B8F08081918100974B
:1051A000A9F06D917C9111976115710589F0840FBB
:1051B000951FA9010E94D144282F392F81E0211584
:1051C000310539F080E0089580E0089580E0089589
:1051D00080E00895FC0124813581FB0144815581E3
:1051E0002417350728F040E050E00E94C0280895B9
:1051F00080E00895FC01DB018481958114962D9156
:105200003C91159782179307C8F040815181411551
:105210005105B1F06D917C9111976115710591F077
:10522000821B930B840F951F0E94C144282F392F96
:1052300081E02115310539F080E0089580E008957E
:1052400080E0089580E00895FC01848195816817CD
:10525000790730F480819181680F791FFB014083C9
:105260000895FC01848195816817790720F4808175
:105270009181009729F410926A068AE696E00895D3
:10528000860F971F0895FC0184819581681779071F
:1052900048F480819181009739F0680F791FFB01F4
:1052A0008081089580E0089580E008950E94432958
:1052B00008950F931F93CF93DF93FC01EB014115EA
:1052C0005105E9F02097D9F0848195812817390795
:1052D00010F0188214C0415050408C01021B130B77
:1052E0004017510708F48A0160817181620F731FB2
:1052F000CE01A8010E94DF44C00FD11F1882DF91A8
:10530000CF911F910F910895CF93DF93FC0184817A
:1053100095814817590768F4C081D181CE01840F67
:10532000951F70E00E94B644009731F08C1B9D0BD6
:1053300005C08FEF9FEF02C08FEF9FEFDF91CF91FE
:10534000089540E050E00E9484290895CF93DF93B0
:10535000FC01848195814817590778F4C081D18177
:10536000FB0160817181CE01840F951F0E94F94479
:10537000009731F08C1B9D0B05C08FEF9FEF02C093
:105380008FEF9FEFDF91CF91089540E050E00E94B2
:10539000A6290895DF92EF92FF920F931F93CF9368
:1053A000DF938C01DC0114968D919C911597481721
:1053B0005907E0F47A010894E11CF11CED91FC918D
:1053C0001197EE0DFF1DD0801082CD91DC91CE01A2
:1053D00070E00E94EE44CE0DDF1DD882009749F0A8
:1053E000F80120813181821B930B05C08FEF9FEF65
:1053F00002C08FEF9FEFDF91CF911F910F91FF9030
:10540000EF90DF900895FC01448155814150504058
:105410000E94CA290895AF92BF92CF92DF92EF9275
:10542000FF920F931F93CF93DF93FC016B017A01DF
:10543000DB0114962D913C9115972115310571F1E1
:1054400084819581009771F18217930778F148174D
:10545000590720F07C010894E108F108C081D1814E
:105460008E010E0D1F1D0C171D0720F1CE01AA2461
:10547000AA94BA2CF601608171810E94F9449C01C2
:105480000097D9F08C1B9D0BE816F90608F05C011B
:10549000C90101960817190768F70FC0AA24AA9432
:1054A000BA2C0BC0AA24AA94BA2C07C0AA24AA9486
:1054B000BA2C03C0AA24AA94BA2C8A2D9B2DDF9162
:1054C000CF911F910F91FF90EF90DF90CF90BF9001
:1054D000AF900895FC0144815581DB0114968D91B4
:1054E0009C911597481B590BCF010E940B2A0895D8
:1054F000BF92CF92DF92EF92FF920F931F93CF93C1
:10550000DF937C016B018A01E9012417350720F440
:10551000812F8901C42FD82FC7016EE572E00E9448
:105520009C24D60114968D919C9115978017910714
:10553000C8F08C179D0708F4EC01D601ED91FC91A1
:105540001197EC0FFD1FB08010826D917C91600F60
:10555000711FC7010E94E424F60180819181C80F68
:10556000D91FB882C701DF91CF911F910F91FF9092
:10557000EF90DF90CF90BF900895CF93DF93EC0131
:10558000FB01248135810E94782ACE01DF91CF91E1
:105590000895DC01ED91FC911197309761F08081C5
:1055A000882349F03196861719F4DF0111974C933F
:1055B00081918823C1F708954F925F926F927F92F5
:1055C0008F929F92AF92BF92CF92DF92EF92FF9213
:1055D0000F931F93CF93DF933C014B017A01FC01A2
:1055E000A480B580A114B10409F4CAC0FB01C48031
:1055F000D580C114D10409F4C3C0FA018481958116
:105600002C014C185D08C201F30100811181411485
:10561000510479F018C0F70160817181448155818E
:105620008C2F9D2F0E949B44F701048115810C0F44
:105630001D1FF40160817181C8010E94F944EC01D1
:10564000009749F79DC0992364F1E5013EC0E6014A
:10565000C01BD10B8A2D9B2D602F712F4C2F5D2FDE
:105660000E949B44CA0DDB1DF7016081718144815A
:1056700055818C2F9D2F0E949B44F7018481958139
:105680005E01A80EB91EF401848195818601080F80
:10569000191FF30184819581840D951D9583848361
:1056A00001C05801F40160817181C8010E94F94470
:1056B0006C01009761F6C501B8010E94CA4460C040
:1056C0008C010C0D1D1DC40DD51DF401608171816F
:1056D000C8010E94F944009799F7CA15DB0509F43F
:1056E0004FC0F301828193818C179D0708F042C05F
:1056F000C301BE010E943B24882309F441C03AC083
:105700005523F4F1C301B4010E940B2AEC01992343
:10571000BCF1F30160817181F401848195818C0F6A
:105720009D1F680F791FF30144815581481B590B58
:10573000CB01840D951D0E94A444F30184819581C1
:10574000840D951D9583848320813181820F931F61
:10575000FC011082F301808191818C0F9D1FF70164
:1057600060817181448155810E949B44AE0141500A
:105770005040C6CFF3014481558141505040C0CFC5
:10578000DF91CF911F910F91FF90EF90DF90CF901D
:10579000BF90AF909F908F907F906F905F904F9051
:1057A00008950F931F93CF93DF93FC01C081D181A4
:1057B000209779F08881882361F08E010F5F1F4F59
:1057C00090E00E947E448993F80181918F018823A3
:1057D000B9F7DF91CF911F910F9108950F931F9308
:1057E000CF93DF93FC01C081D181209779F088812C
:1057F000882361F08E010F5F1F4F90E00E94864466
:105800008993F80181918F018823B9F7DF91CF91B6
:105810001F910F910895AF92BF92CF92DF92EF92B6
:10582000FF920F931F93CF93DF937C01DC01CD9008
:10583000DC901197C114D104F1F11496AD90BC9095
:105840001597A114B104B9F1E6018E012196F80172
:10585000808190E00E9476440097B9F7E501219796
:10586000CC0DDD1D888190E00E9476440097C9F040
:10587000C017D107B0F02197F5CF8C2D9D2D602F4B
:10588000712F4C2F5D2F0E949B44D701ED91FC910D
:10589000119714968D919C911597E80FF91F10821E
:1058A0000AC02196C01BD10BF701D583C483C01653
:1058B000D10658F7E2CFDF91CF911F910F91FF9062
:1058C000EF90DF90CF90BF90AF9008950F931F930C
:1058D000FC0180819181009729F00E944F448B0147
:1058E0009C0103C000E010E09801602F712F822F0F
:1058F000932F1F910F9108950E96E82FF92F84E1B1
:10590000DF011D928A95E9F7089508952F923F923D
:105910004F925F926F927F928F929F92AF92BF92BF
:10592000CF92DF92EF92FF920F931F93CF93DF936B
:10593000CDB7DEB7E4970FB6F894DEBF0FBECDBF8C
:105940002C016A017B0119010E948E214B015C012F
:105950008201095B1F4F14C00E948E21DC01CB0124
:1059600088199909AA09BB09C816D906EA06FB06CF
:1059700008F440C262E370E080E090E00E94CA2137
:10598000702E612EC8010E94A80E1816190624F761
:10599000802F912FBE01695F7F4F42E250E00E944D
:1059A000560E8F81823009F01DC2F201E95BFF4F74
:1059B000858996898334910509F016C20B851C856B
:1059C0002D853E85432F552766277727B02FAA2799
:1059D00099278827482B592B6A2B7B2BB22FA12F75
:1059E000902F882780709070B070482B592B6A2BAD
:1059F0007B2BBB27A32F922F812F8070A070B070BC
:105A00006A017B01C82AD92AEA2AFB2AF101C0824D
:105A1000D182E282F382B201685F7F4FCE0183962A
:105A200046E050E00E948E44282F392F2115310581
:105A300099F4F20180819181A281B381C816D906BF
:105A4000EA06FB0648F084819581A681B7818C1512
:105A50009D05AE05BF0530F4872D962D0E94F80DEB
:105A60008824CAC18F89988DA98DBA8DF201868745
:105A70009787A08BB18B0EEC10E0872D962D0E949E
:105A80007C0E01501040C9F788240F2EF2E2EF2E51
:105A9000FF24F02DE40CF51C0F2EF6E2AF2EBB24F4
:105AA000F02DA40CB51CC2018A969AA789A7F20111
:105AB0007A96FAABE9ABC201885A9F4F9CAB8BAB8D
:105AC000F2017296FCA7EBA7C20146969EA78DA78E
:105AD00022243324F2017E96F8ABEFA7670179C147
