:100000000C9404010C9431010C9431010C943101D5
:100010000C9431010C9431010C9431010C94310198
:100020000C9431010C9431010C9431010C94310188
:100030000C9431010C9431010C9431010C94310178
:100040000C9431010C94AE080C9431010C943101E4
:100050000C9431010C9431010C9431010C94720117
:100060000C9431010C94B1030C9431010C943101C6
:100070000C9431010C9431010C9431010C94310138
:100080000C9481080C9431010C9431010C943101D1
:100090000C94E6030C9431010C9431010C94310161
:1000A0000C9431010C9431010C9454080C943101DE
:1000B0000C9431010C9431010C9431010C942708FB
:1000C0000C9431010C9431010C9431010C941B04FB
:1000D0000C9431010C9431010C9450040C943101B6
:1000E0000C94310100002100240027002A002D007B
:1000F0003000330001010000040107010A01000083
:100100002200250028002B002E00310034000201BF
:100110000000050108010B0100002000230026005B
:1001200029002C002F00320000010000030106010D
:10013000090105050505070508080808020202026D
:100140000A0A080804040404010101010101010173
:100150000303030303030303040707070C0C0C0C3E
:100160000C0C0C0C02020202060606060606060627
:100170000B0B0B0B0B0B0B0B0102102020080810B4
:100180002040102040800201020108040201010207
:1001900004081020408080402010080402018004E0
:1001A000020180402010080402010804020101023B
:1001B0000408102040800102040810204080000044
:1001C000090A02080B0C0D070603040100000000D9
:1001D000000000000000000000000000000000001F
:1001E00000000000000000000000100F0E000000E2
:1001F00000000000000000000000000000000000FF
:100200000000000034014C0511241FBECFEFD1E2E5
:10021000DEBFCDBF00E00CBF12E0A0E0B2E0EAE03C
:10022000F2E100E00BBF02C007900D92AA31B107C6
:10023000D9F71BBE15E0AAE1B2E001C01D92A435BA
:10024000B107E1F712E0C8E0D2E004C02297FE0156
:100250000E94FF08C430D107C9F70E946F010C94B7
:1002600003090C94000008950F931F9302E312E01A
:10027000C8010E944B07C80103960E944B07C801A2
:1002800006960E944B07C80109960E944B07C801B9
:100290000C960E944B07C8010F960E944B07C8019D
:1002A00042960E944B07C80145960E944B071F913A
:1002B0000F9108950F931F930E94510203E714E0DA
:1002C000C80140E855E260E070E00E948504C80182
:1002D00060E072E00E9440071F910F9108950E9414
:1002E0005A01FFCF1F920F920FB60F9211242F9336
:1002F0003F938F939F93AF93BF9380915E029091B2
:100300005F02A0916002B091610230916202019699
:10031000A11DB11D232F2D5F2D3720F02D570196E4
:10032000A11DB11D2093620280935E0290935F0233
:10033000A0936002B093610280915A0290915B0297
:10034000A0915C02B0915D020196A11DB11D809348
:100350005A0290935B02A0935C02B0935D02BF913E
:10036000AF919F918F913F912F910F900FBE0F9062
:100370001F9018958FB7F89420915E0230915F021C
:1003800040916002509161028FBFB901CA01089586
:100390009FB7F89420915A0230915B0240915C0221
:1003A00050915D0286B5A89B06C08F3F21F02F5F5C
:1003B0003F4F4F4F5F4F9FBF542F432F322F222766
:1003C000280F311D411D511D82E0220F331F441F94
:1003D000551F8A95D1F7B901CA0108959B01AC0157
:1003E0007FB7F89480915A0290915B02A0915C02D1
:1003F000B0915D0266B5A89B05C06F3F19F00196EC
:10040000A11DB11D7FBFBA2FA92F982F8827860F56
:10041000911DA11DB11D62E0880F991FAA1FBB1F6E
:100420006A95D1F7BC012DC0FFB7F89480915A02AC
:1004300090915B02A0915C02B0915D02E6B5A89B31
:1004400005C0EF3F19F00196A11DB11DFFBFBA2FE6
:10045000A92F982F88278E0F911DA11DB11DE2E0B5
:10046000880F991FAA1FBB1FEA95D1F7861B970B10
:10047000885E9340C8F2215030404040504068515F
:100480007C4F211531054105510571F608950197FD
:1004900039F0880F991F880F991F02970197F1F77C
:1004A0000895789484B5826084BD84B5816084BDEC
:1004B00085B5826085BD85B5816085BDEEE6F0E0DD
:1004C000808181608083E1E8F0E010828081826039
:1004D0008083808181608083E0E8F0E080818160BA
:1004E0008083E1EBF0E0808184608083E0EBF0E0EA
:1004F000808181608083E1E9F0E080818260808397
:10050000808181608083E0E9F0E080818160808388
:10051000E1EAF0E080818260808380818160808375
:10052000E0EAF0E0808181608083E1E2F1E08081B7
:1005300082608083808181608083E0E2F1E080815D
:1005400081608083EAE7F0E080818460808380813D
:1005500082608083808181608083808180688083E5
:100560001092C1000895482F50E0CA0188589E4F4C
:10057000FC0124914E5C5E4FFA0184918823C1F006
:10058000E82FF0E0EE0FFF1FEC51FF4FA591B49163
:10059000662341F49FB7F8948C91209582238C9325
:1005A0009FBF08959FB7F8948C91822B8C939FBF27
:1005B0000895893009F448C08A30A0F4843049F1A4
:1005C000853040F4823071F18330F8F4813009F0E5
:1005D00062C025C0873071F1883090F5863009F00F
:1005E0005AC024C08D3009F441C08E3028F48B30BD
:1005F000A9F18C30B8F52CC08F3009F441C08F3090
:10060000D8F1803109F047C041C0809180008F77D8
:1006100003C0809180008F7D80938000089584B511
:100620008F7702C084B58F7D84BD08958091B0001E
:100630008F7703C08091B0008F7D8093B0000895C4
:10064000809190008F7707C0809190008F7D03C0CC
:1006500080919000877F8093900008958091A00002
:100660008F7707C08091A0008F7D03C08091A0008C
:10067000877F8093A0000895809120018F7703C029
:10068000809120018F7D8093200108958091200129
:10069000877F809320010895FF920F931F93F62E7A
:1006A000482F50E0CA0182549E4FFC012491CA0198
:1006B00088589E4FFC0114914E5C5E4FFA010491E4
:1006C0000023D9F0222319F0822F0E94D902E02FB3
:1006D000F0E0EE0FFF1FE250FF4FA591B491FF2015
:1006E00031F49FB7F8948C911095812304C09FB783
:1006F000F8948C91812B8C939FBF1F910F91FF9049
:1007000008950F931F93482F50E0CA0182549E4FC3
:10071000FC012491CA0188589E4FFC0104914E5C53
:100720005E4FFA011491112319F420E030E015C056
:10073000222319F0822F0E94D902812F90E0880F86
:10074000991F885E9E4FFC01A591B4918C9120E089
:1007500030E0802311F021E030E0C9011F910F91BA
:1007600008951F920F920FB60F920BB60F9211249D
:100770002F933F934F938F939F93EF93FF934091CA
:10078000C600E091E302F091E40231969F012F77D9
:10079000307031978091E5029091E6022817390771
:1007A00039F0ED59FD4F40833093E4022093E3028A
:1007B000FF91EF919F918F914F913F912F910F90CA
:1007C0000BBE0F900FBE0F901F9018951F920F92A7
:1007D0000FB60F920BB60F9211242F933F934F93A6
:1007E0008F939F93EF93FF934091CE00E091670327
:1007F000F091680331969F012F7730703197809187
:10080000690390916A032817390739F0E951FD4FC0
:1008100040833093680320936703FF91EF919F918A
:100820008F914F913F912F910F900BBE0F900FBE64
:100830000F901F9018951F920F920FB60F920BB644
:100840000F9211242F933F934F938F939F93EF9386
:10085000FF934091D600E091EB03F091EC033196C9
:100860009F012F77307031978091ED039091EE03C7
:100870002817390739F0E559FC4F40833093EC03D2
:100880002093EB03FF91EF919F918F914F913F91B7
:100890002F910F900BBE0F900FBE0F901F901895C9
:1008A0001F920F920FB60F920BB60F9211242F9337
:1008B0003F934F938F939F93EF93FF934091360114
:1008C000E0916F04F091700431969F012F773070A2
:1008D000319780917104909172042817390739F08B
:1008E000E151FC4F40833093700420936F04FF91DB
:1008F000EF919F918F914F913F912F910F900BBE50
:100900000F900FBE0F901F901895CF93DF93EC01BF
:100910009A01AB01E885F985203081EE380780E047
:10092000480780E0580709F445C081E090E00A8854
:1009300002C0880F991F0A94E2F7808360E079E093
:100940008DE390E00E94DB08215030404040504051
:100950005695479537952795EC81FD813083EE813B
:10096000FF812083EA85FB85208141E050E0CA01B8
:100970000E8402C0880F991F0A94E2F7282B208367
:10098000EA85FB852081CA010F8402C0880F991F68
:100990000A94E2F7282B2083EA85FB85808108886A
:1009A00002C0440F551F0A94E2F7842B8083DF9125
:1009B000CF910895108220E130E0CECFDC01129675
:1009C000ED91FC911397E058FF4F21913191808177
:1009D0009181281B390B2F773070C9010895DC01F4
:1009E0001296ED91FC911397EE57FF4F20813181C4
:1009F00092918291E058F0408217930719F42FEFFB
:100A00003FEF05C0E20FF31F8081282F30E0C901BE
:100A10000895DC011296ED91FC911397DF01AE571A
:100A2000BF4F2D913C911197E058FF4F80819181EC
:100A3000E058F0408217930719F42FEF3FEF0BC0F7
:100A4000E20FF31F80812F5F3F4F2F7730702D9380
:100A50003C93282F30E0C9010895DC011296ED91F6
:100A6000FC911397EE57FF4F80819181929382936F
:100A70000895FC01A085B18521898C9190E0022E1A
:100A800002C0959587950A94E2F780FFF6CF04841B
:100A9000F585E02D608308952BE032E030937404F7
:100AA0002093730483E692E0909376048093750418
:100AB00085EC90E0909378048093770484EC90E048
:100AC00090937A048093790480EC90E090937C0476
:100AD00080937B0481EC90E090937E0480937D046E
:100AE00086EC90E09093800480937F04E4E0E093B0
:100AF000810473E07093820467E06093830455E09F
:100B00005093840441E040938504309387042093FC
:100B1000860487EE92E090938904809388048DEC9C
:100B200090E090938B0480938A048CEC90E09093F7
:100B30008D0480938C0488EC90E090938F048093D4
:100B40008E0489EC90E090939104809390048EEC55
:100B500090E09093930480939204E09394047093B4
:100B600095046093960450939704409398043093AF
:100B70009A04209399048BE693E090939C048093CD
:100B80009B0485ED90E090939E0480939D0484EDFA
:100B900090E09093A00480939F0480ED90E0909368
:100BA000A2048093A10481ED90E09093A40480932B
:100BB000A30486ED90E09093A6048093A504E093AF
:100BC000A7047093A8046093A9045093AA044093C7
:100BD000AB043093AD042093AC048FEE93E090937C
:100BE000AF048093AE0485E391E09093B1048093C9
:100BF000B00484E391E09093B3048093B20480E363
:100C000091E09093B5048093B40481E391E09093D4
:100C1000B7048093B60486E391E09093B90480937F
:100C2000B804E093BA047093BB046093BC0450937F
:100C3000BD044093BE0408950F931F93CF93DF9399
:100C40008C01EB0109C02196D801ED91FC91019036
:100C5000F081E02DC801199568816623A1F7DF9125
:100C6000CF911F910F910895EF92FF920F931F93D1
:100C7000CF93DF938C017B01EA010CC0D7016D910A
:100C80007D01D801ED91FC910190F081E02DC8012A
:100C900019952197209791F7DF91CF911F910F918F
:100CA000FF90EF900895DC01ED91FC910280F381BB
:100CB000E02D199508952F923F924F925F926F9277
:100CC0007F928F929F92AF92BF92CF92DF92EF92DC
:100CD000FF920F931F93DF93CF93CDB7DEB7A0970B
:100CE0000FB6F894DEBF0FBECDBF1C016A017B01B9
:100CF000411551056105710549F440E350E060E09C
:100D000070E020E030E00E94F30654C0882499246B
:100D10005401422E55246624772401E010E00C0F84
:100D20001D1F080D191DC701B601A30192010E94E4
:100D3000DB08F80160830894811C911CA11CB11C84
:100D4000C701B601A30192010E94DB08C901DA01C3
:100D50006C017D01C114D104E104F104F1F681E0DC
:100D6000E82EF12CEC0EFD1EE80CF91C3E01089457
:100D7000611C711CD501C4010197A109B1096C0165
:100D8000C818D90814C0F601EE0DFF1D40814A3085
:100D900010F4405D01C0495C50E060E070E0C101CA
:100DA00020E030E00E94F3060894E108F1086E1498
:100DB0007F0449F7A0960FB6F894DEBF0FBECDBFF3
:100DC000CF91DF911F910F91FF90EF90DF90CF9027
:100DD000BF90AF909F908F907F906F905F904F905B
:100DE0003F902F900895EF92FF920F931F93CF9310
:100DF000DF93EC017A018B012115310541F4E88183
:100E0000F9810190F081E02D642F19951BC02A30E3
:100E10003105B1F477FF10C04DE250E060E070E0C2
:100E200020E030E00E94F30610950095F094E094E5
:100E3000E11CF11C011D111DCE01B801A7012AE022
:100E40000E945B06DF91CF911F910F91FF90EF9071
:100E500008950F931F938C014DE050E060E070E027
:100E600020E030E00E94F306C8014AE050E060E074
:100E700070E020E030E00E94F3061F910F9108958A
:100E80000F931F938C010E945306C8010E942907EB
:100E90001F910F910895FC018091BF04803390F45D
:100EA00080838F5F8093BF04815090E0FC01EE0F40
:100EB000FF1FE80FF91FE054FB4F88EB9BE0928384
:100EC000818308958FEF80830895EF92FF920F93AF
:100ED0001F93CF93DF938B017A01C82FD0E0DE01FF
:100EE000A05BBA4F8C9187FF04C0FB011182108276
:100EF00037C0AE01440F551F4C0F5D1F440F551FE7
:100F0000440F551F2C91332727FD3095240F351F93
:100F10008091BF0490E02817390714F58C91992728
:100F200087FD9095840F951FFC01EE0FFF1FE80FC2
:100F3000F91FE054FB4F808186FF12C08C919927E6
:100F400087FD9095840F951FFC01EE0FFF1FE80FA2
:100F5000F91FE054FB4F80818F7360E00E944C03C7
:100F6000DE01A05BBA4F8C918F5F8C93AE01440F72
:100F7000551F4C0F5D1F440F551F440F551F2C91DB
:100F8000332727FD3095240F351F8091BF0490E053
:100F9000281739070CF04DC08C918C300CF049C0EB
:100FA000F801208131818C91992787FD9095840FDC
:100FB000951FFC01EE0FFF1FE80FF91FE054FB4FD8
:100FC00081819281280F391FF701318320838C9111
:100FD000992787FD9095840F951FFC01EE0FFF1F49
:100FE000E80FF91FE054FB4F808186FF29C08C91E8
:100FF000992787FD9095840F951FFC01EE0FFF1F29
:10100000E80FF91FE054FB4F80818F7361E00E946D
:101010004C0316C080E49CE904C0F80180819181F2
:101020000496F70191838083C05BDA4F8FEF88834A
:1010300007C0F8018081918184549C4958F3EDCF19
:10104000DF91CF911F910F91FF90EF9008951F9224
:101050000F920FB60F920BB60F9211242F933F935E
:101060004F935F936F937F938F939F93AF93BF93B0
:10107000EF93FF9380E064E271E048E251E00E9468
:101080006507FF91EF91BF91AF919F918F917F91F4
:101090006F915F914F913F912F910F900BBE0F90E9
:1010A0000FBE0F901F9018951F920F920FB60F92C0
:1010B0000BB60F9211242F933F934F935F936F932F
:1010C0007F938F939F93AF93BF93EF93FF9383E0AF
:1010D00064EA70E048EA50E00E946507FF91EF91F2
:1010E000BF91AF919F918F917F916F915F914F9140
:1010F0003F912F910F900BBE0F900FBE0F901F903E
:1011000018951F920F920FB60F920BB60F921124E3
:101110002F933F934F935F936F937F938F939F93FF
:10112000AF93BF93EF93FF9382E064E970E048E9E7
:1011300050E00E946507FF91EF91BF91AF919F91A1
:101140008F917F916F915F914F913F912F910F9070
:101150000BBE0F900FBE0F901F9018951F920F920D
:101160000FB60F920BB60F9211242F933F934F930C
:101170005F936F937F938F939F93AF93BF93EF93FF
:10118000FF9381E064E870E048E850E00E94650762
:10119000FF91EF91BF91AF919F918F917F916F914F
:1011A0005F914F913F912F910F900BBE0F900FBE0B
:1011B0000F901F901895A1E21A2EAA1BBB1BFD01D0
:1011C0000DC0AA1FBB1FEE1FFF1FA217B307E40726
:1011D000F50720F0A21BB30BE40BF50B661F771F7E
:1011E000881F991F1A9469F760957095809590955E
:1011F0009B01AC01BD01CF010895EE0FFF1F0590CB
:0A120000F491E02D1994F894FFCF4B
:10120A0052656164792E000000000039051C06341D
:0A121A0006DE040905EF042D0500AF
:00000001FF
