:100000000C9468000C9490000C9490000C94900058
:100010000C9490000C9490000C9490000C94900020
:100020000C9490000C9490000C9490000C94900010
:100030000C9490000C9490000C9490000C94900000
:100040000C94B8140C9490000C943B0E0C94770E06
:100050000C9490000C9490000C9490000C949000E0
:100060000C9490000C949000000000070002010026
:100070000003040600000000000000000102040864
:100080001020408001020408102001020408102002
:10009000040404040404040402020202020203032E
:1000A00003030303000000002300260029000000D2
:1000B0000000250028002B0000000000240027007D
:1000C0002A00D0019804BF061F10FD10C9252B2956
:1000D00011241FBECFEFD8E0DEBFCDBF12E0A0E0FD
:1000E000B1E0EEECF0E702C005900D92A831B10747
:1000F000D9F714E0A8E1B2E001C01D92A03FB1071A
:10010000E1F710E0C0EDD0E004C02297FE010E94AC
:100110004234C23CD107C9F70E94C9010C9465382A
:100120000C940000EF92FF920F931F93CF93DF93F5
:100130000E94711588E294E040E052EC61E070E0CA
:100140000E94F10E89E090E00E9408118C010E944B
:10015000C62B80912202882341F086EF93E06CE168
:1001600072E00E94EC017C0103C0EE24EA94FE2CB4
:10017000C1E4D2E060912A0270912B02CE010E946C
:100180001206689781E0E114F10409F080E08883A9
:100190008DE292E0B8010E947D2B88E294E060E05D
:1001A00071E00E941012DF91CF911F910F91FF908B
:1001B000EF9008954F925F926F927F928F929F92ED
:1001C000AF92BF92CF92DF92EF92FF920F931F9365
:1001D000CF93DF93CDB7DEB728970FB6F894DEBF85
:1001E0000FBECDBF0E9402152B013C018091EC0394
:1001F0009091ED03A091EE03B091EF0348165906DC
:100200006A067B0640F41092EC031092ED03109204
:10021000EE031092EF0381E492E00E948D058C01C1
:10022000181619060CF06DC00F2EF8E2AF2EF4E090
:10023000BF2EF02DC50167E071E00E94B211C5012B
:10024000B8014AE050E00E9460130F2EF1E4CF2E77
:10025000F2E0DF2EF02D0F2EFBE1EF2EFF24F02D2C
:10026000EC0CFD1CC601B70148EC50E00E943B05B8
:100270000F2EFCEE8F2EFFEF9F2EF02D8C0C9D1C71
:10028000C401B70140E050E098010E94E3291886BC
:100290001F8204E213E0C401B801AE01495F5F4F61
:1002A0000E94A72AC50161E171E00E94B2116F812D
:1002B0007885C5014AE050E00E94E61283EA91E0A9
:1002C0009A8389838091520290915302A0915402A3
:1002D000B09155028B839C83AD83BE8340915602BF
:1002E00050915702C601BE016F5F7F4F0E94F40517
:1002F0004F815885C601B8010E94DA05C6010E94E7
:10030000EF058091EC039091ED03A091EE03B09185
:10031000EF038C509E4FAF4FBF4F61E084159505A2
:10032000A605B70508F060E060932C028DE292E02C
:100330000E944A2B0E940215AB01BC018091180259
:1003400090911902A0911A02B0911B020097A10589
:10035000B10541F4409318025093190260931A02B8
:1003600070931B0228960FB6F894DEBF0FBECDBF68
:10037000DF91CF911F910F91FF90EF90DF90CF9081
:10038000BF90AF909F908F907F906F905F904F90B5
:1003900008950E9471150E9492000E94DA00FDCF1C
:1003A0000F93CF93DF9380EF93E060E040E020E095
:1003B00000E00E94B210C3E2D2E0CE010E94A81079
:1003C000CE010A960E94E029CE014E960E944B066D
:1003D000DF91CF910F910895CF92DF92EF92FF922C
:1003E0000F931F93CF93DF93CDB7DEB76E970FB602
:1003F000F894DEBF0FBECDBF6C017B0182E690E0BA
:100400000E9408118C0182E6F80111928A95E9F7A1
:10041000C801895B9F4F0E944B06F6011783068334
:1004200088E194E00E94010B89E090E0B70146E08A
:1004300050E00E943F0BCE01499660E040E020E092
:1004400000E00E94B2108FE090E0BE01655E7F4F39
:1004500044E050E00E943F0BF60186819781B7018E
:1004600020E63AEE40E050E00F2EF0EAEF2EFFE0FB
:10047000FF2EF0E00F2FF0E01F2FF02D0E947D25C2
:100480008C018130910509F040C0F60166817781C9
:10049000CE0143960E9460218FE090E0BE016B5E2A
:1004A0007F4F44E050E00E943F0BF6016681778168
:1004B000CE010D960E94762181E090E0BE01615F41
:1004C0007F4F44E050E00E943F0BF6016681778148
:1004D000CE0107960E946B2185E090E0BE01675F28
:1004E0007F4F44E050E00E943F0BF6016681778128
:1004F000CE0101960E948C218B819C81AD81BE81B1
:10050000F60182839383A483B583802F912F6E9607
:100510000FB6F894DEBF0FBECDBFDF91CF911F9114
:100520000F91FF90EF90DF90CF9008958F929F9260
:10053000AF92BF92CF92DF92EF92FF920F931F93F1
:10054000CF93DF934C016B01EA01590188E194E0FC
:100550000E94010B89E090E0B60146E050E00E9465
:100560003F0BBE016E5F7F4F8FE090E044E050E0B4
:100570000E943F0BB8016E5F7F4F81E090E044E046
:1005800050E00E943F0BB7016E5F7F4F85E090E027
:1005900044E050E00E943F0BF50182819381A481E9
:1005A000B581F40182839383A483B583DF91CF91D6
:1005B0001F910F91FF90EF90DF90CF90BF90AF9081
:1005C0009F908F9008956F927F928F929F92AF929B
:1005D000BF92CF92DF92EF92FF920F931F93CF9330
:1005E000DF93CDB7DEB76E970FB6F894DEBF0FBEC0
:1005F000CDBF4C013B017A0169015801CE014996FA
:100600006FEF4FEF2FEF00E00E94B21023EA31E0CE
:100610003C8B2B8BF70182819381A481B5818D8BDB
:100620009E8BAF8BB88F3E872D87F6018281938199
:10063000A481B5818F87988BA98BBA8B38872F833C
:10064000F50182819381A481B58189879A87AB87DF
:10065000BC873A8329838B8D9C8DAD8DBE8D8B831A
:100660009C83AD83BE83C401B301AE014D5E5F4F79
:100670009E01235F3F4F8E01095F1F4F7E0108944B
:10068000E11CF11C0E9496026E960FB6F894DEBF34
:100690000FBECDBFDF91CF911F910F91FF90EF90D3
:1006A000DF90CF90BF90AF909F908F907F906F9092
:1006B0000895EF92FF920F931F93CF93DF93CDB7DF
:1006C000DEB768970FB6F894DEBF0FBECDBF7B01D3
:1006D000DA0112964D915D916D917C9115974D8B3C
:1006E0005E8B6F8B788FE3EAF1E0FE87ED874F87B3
:1006F000588B698B7A8BF887EF83D90112960D910D
:100700001D912D913C91159709871A872B873C875E
:10071000FA83E9834B835C836D837E8321E02E83A0
:10072000B701AE01435F5F4F9E01295F3F4F8E01CE
:100730000F5F1F4F0E94E30268960FB6F894DEBF6A
:100740000FBECDBFDF91CF911F910F91FF90EF9022
:100750000895CF93DF93CDB7DEB762970FB6F894C5
:10076000DEBF0FBECDBFFB01DA0112964D915D9148
:100770006D917C9115974F87588B698B7A8B23EA03
:1007800031E038872F8349875A876B877C873A8384
:1007900029834B835C836D837E8321E02E83BF019D
:1007A000AE01495F5F4F9E012F5F3F4F0E9459038B
:1007B00062960FB6F894DEBF0FBECDBFDF91CF912A
:1007C0000895EF92FF920F931F93CF93DF93CDB7CE
:1007D000DEB768970FB6F894DEBF0FBECDBF7C01C1
:1007E000FC0186819781009709F44BC00E949B24ED
:1007F0008C018230910521F08430910509F043C0CD
:10080000F70166817781CE0143960E9460218FE0D7
:1008100090E0BE016B5E7F4F44E050E00E943F0BD2
:10082000F70166817781CE010D960E94762181E0E5
:1008300090E0BE01615F7F4F44E050E00E943F0BBB
:10084000F70166817781CE0107960E946B2185E0D2
:1008500090E0BE01675F7F4F44E050E00E943F0B95
:10086000F70166817781CE0101960E948C218B81F0
:100870009C81AD81BE81F70182839383A483B5837C
:1008800002C000E010E0802F912F68960FB6F89418
:10089000DEBF0FBECDBFDF91CF911F910F91FF90B3
:1008A000EF900895CF93DF93EC010E94A810BE0152
:1008B0006E5F7F4F8FE090E044E050E00E94B20C0A
:1008C000CE01DF91CF910895CF93DF93EC010E9489
:1008D000A810BE016E5F7F4F85E090E044E050E0DD
:1008E0000E94B20CCE01DF91CF910895CF93DF9398
:1008F000EC010E94A810BE016E5F7F4F81E090E086
:1009000044E050E00E94B20CCE01DF91CF910895F7
:1009100023EA31E0FC0131832083FB0142815381D2
:1009200064817581FC0142835383648375830895D8
:100930000F938AE094E060E040E020E000E00E9455
:10094000B21086EF93E00E94A8100F910895DC0189
:10095000ED91FC91008CF18DE02D0995089523EA2D
:1009600031E0FC0131832083FB0141895289638995
:100970007489FC0142835383648375830895FC0169
:10098000858996890895FC01818D928D0895CF9374
:10099000DF930F92CDB7DEB76983DC01ED91FC9157
:1009A0000280F381E02DBE016F5F7F4F41E050E098
:1009B00009950F90DF91CF910895CF92DF92EF923A
:1009C000FF920F931F93CF93DF93CDB7DEB78C01C8
:1009D000CDB6DEB6DC0159968D919C915A97009761
:1009E00019F1FDB6EEB6F801418D528D8DB79EB767
:1009F000841B950B0FB6F8949EBF0FBE8DBF6DB7CD
:100A00007EB76F5F7F4F0190F081E02D008CF18DFC
:100A1000E02DC8010995FDBEEEBED80159968D9115
:100A20009C915A970097E9F60FB6F894DEBE0FBE78
:100A3000CDBEDF91CF911F910F91FF90EF90DF908E
:100A4000CF900895CF93DF930F92CDB7DEB7FC011F
:100A5000818D928D009749F08485BE016F5F7F4F35
:100A60000E945408898190E002C08FEF9FEF0F90A1
:100A7000DF91CF910895CF93DF93EC019A01498DD7
:100A80005A8D41155105A9F02417350720F08C85A2
:100A90000E94090804C08C85A9010E940908181643
:100AA000190654F4298D3A8D281B390B3A8F298F5A
:100AB00005C08FEF9FEF02C08FEF9FEFDF91CF91C7
:100AC00008950F931F93CF93DF930F92CDB7DEB7A7
:100AD0008C01FC01818D928D0097A1F08485BE016F
:100AE0006F5F7F4F41E050E00E9409081816190619
:100AF00064F4F801818D928D0197928F818F8981A5
:100B000090E005C08FEF9FEF02C08FEF9FEF0F9037
:100B1000DF91CF911F910F9108950F931F93CF9362
:100B2000DF93CDB7DEB728970FB6F894DEBF0FBEC0
:100B3000CDBF8C01DC01ED91FC910284F385E02DA9
:100B4000099588E194E0F80164850E94CC0B009738
:100B500021F1D8011C968C91BE016F5F7F4F48E058
:100B600050E00E94090818161906CCF4C8010F9627
:100B7000BE016F5F7F4F0E94DB109D8180E02E8160
:100B8000820F911DF801968B858B9F8180E02885CF
:100B9000820F911D928F818F02C080E090E0289695
:100BA0000FB6F894DEBF0FBECDBFDF91CF911F917E
:100BB0000F910895CF93DF93EC019B01FA016F89A8
:100BC000788D8C85A9019F010E94510A2F89388D4B
:100BD000280F391F388F2F8BDF91CF910895FC019B
:100BE00084850E94BD0A0895FC01108E178A6E5FED
:100BF0007F4F84850E94850A0895CF93DF93EC018F
:100C00008C85843061F00E94CA06EC85F0E0EE0F1E
:100C1000FF1FE250FC4F1182108284E08C87DF912D
:100C2000CF910895CF92DF92EF92FF921F93CF93CF
:100C3000DF937C016B01FC018485843009F5C3E0FE
:100C4000D4E010E0CE010E94660B882311F08831B9
:100C500019F4F701148705C01F5FC050DF4F14302F
:100C600089F7F7018485843069F0D686C586128EAF
:100C7000118E62E0A60120E00E94E10681E003C03F
:100C800080E001C080E0DF91CF911F91FF90EF9055
:100C9000DF90CF900895FC011382128248EE53E05A
:100CA00060E070E0448355836683778385E291E05A
:100CB0009183808384E08487CF010F960E94A810DF
:100CC0000895CF92DF92EF92FF920F931F93CF93ED
:100CD000DF93CDB7DEB7E5970FB6F894DEBF0FBE52
:100CE000CDBF7C018B016A01CE0143960E94A81002
:100CF000CE014B960E944B06CE010D960E94A81085
:100D0000CE01079666EF73E00E948804CE014396F9
:100D1000BE01695F7F4F0E94D425CE014396B80182
:100D2000AE01435F5F4F0E948C2881309105C1F472
:100D3000D701ED91FC910088F189E02D83EA91E0E3
:100D40009A8389838F859889A989BA898B839C83A3
:100D5000AD83BE83C701BE016F5F7F4FA6010995BA
:100D6000E5960FB6F894DEBF0FBECDBFDF91CF91F1
:100D70001F910F91FF90EF90DF90CF9008950F9308
:100D800080E194E060E040E020E000E00E94B210EA
:100D90000F9108951F93CF93DF93182F88E194E06C
:100DA000612F40E10E947F0DD12F80E0C82FCE013E
:100DB0008E5F9B4F6FEF0E94E80ADF91CF911F91EA
:100DC0000895CF92DF92EF92FF921F93CF93DF931C
:100DD000182FC62F7A01D22F862F81508530B0F57B
:100DE000812F0E94CA06812F90E00496D82ECC2431
:100DF0006D2F6C2BC6010E94E80AE114F10459F032
:100E0000C60104966F2D0E94E80AC60105966E2D54
:100E10000E94E80A13C0C0911604D09117042196CD
:100E2000D0931704C0931604C60104966D2F0E9438
:100E3000E80AC60105966C2F0E94E80A88E194E052
:100E4000612F41E00E947F0D81E001C080E0DF91D1
:100E5000CF911F91FF90EF90DF90CF900895CF93A7
:100E6000C82F382F20E0C9018D5F9B4F0E94660B71
:100E7000833141F488E194E06C2F42E00E947F0DC1
:100E800081E001C080E0CF910895EF92FF921F931F
:100E9000CF93DF93182FFB017A0180818F3F51F4AC
:100EA00081818F3F91F482818F3F79F483818F3FDD
:100EB00061F42CC0882349F48181882331F4828134
:100EC000882319F48381882319F1E114F10411F1C5
:100ED000C12FD0E02496DC2FCC27CE010C96BF0189
:100EE00044E050E00E943F0BCE0140966F2D0E94DF
:100EF000E80ACE0141966E2D0E94E80A88E194E04E
:100F0000612F44E00E947F0D81E005C080E003C0B6
:100F100080E001C080E0DF91CF911F91FF90EF90C2
:100F20000895682F88E194E048E00E947F0D0895BD
:100F30006F927F928F929F92AF92BF92CF92DF92E9
:100F4000EF92FF920F931F93CF93DF93F82E3B0105
:100F5000A42EB52E81E0A81688E0B80620F0AA24B9
:100F6000BB246894B3F8CF2DD0E024969C2E88241F
:100F700084010D5F1F4F0F2EF8E1CF2EF4E0DF2E1E
:100F8000F02DC6016F2D0E947E0BEC01C8010E945E
:100F9000660B873111F08C3121F4CA15DB0588F31B
:100FA00002C0AA24BB24C8E1D4E0CE016F2DA30166
:100FB00095010E94A60CCE016F2D40E20E947F0D8C
:100FC000E40122960BC0C8010E94660B882331F40D
:100FD0008F2D0E94CA06AA24BB240AC0CE010E94FB
:100FE000660B84FFF0CF8C2F9D2F60E10E94E80AF2
:100FF0008A2D9B2DDF91CF911F910F91FF90EF9044
:10100000DF90CF90BF90AF909F908F907F906F9028
:101010000895AF92BF92CF92DF92EF92FF920F931B
:101020001F93CF93DF93182F6B01EA0188E194E0BF
:10103000612F0E94CC0BE82EF92EE114F10471F41B
:10104000B12EAA24C5018D5F9B4F0E94660B84318F
:10105000D1F08823C1F08C31B1F022C0CE15DF056C
:101060000CF47E011E141F0474F4C8E1D4E0CE0118
:10107000612FA601970100E00E94270DCE01612F8C
:1010800040E40E947F0D8E2D9F2DDF91CF911F9107
:101090000F91FF90EF90DF90CF90BF90AF900895A9
:1010A000EE24EA94FE2CEFCF0F93282FAB0188E1BA
:1010B00094E0622F21E030E001E00E94270D81E002
:1010C00090E00F910895AF92BF92CF92DF92FF927E
:1010D0000F931F93CF93DF93F82E5B01F901680103
:1010E0008081882351F48181882339F48281882387
:1010F00021F48381882309F453C0C114D10409F475
:1011000052C0042F152F88E00130180710F000E0BE
:1011100018E00115110509F448C0CF2DD0E0249640
:10112000DC2FCC27CE010C96BF0144E050E00E949A
:101130003F0BCE0140966D2D0E94E80ACE014196EC
:101140006C2D0E94E80A0F2EF8E1CF2EF4E0DF2E7E
:10115000F02DC6016F2DA50198010E94A60CC601B5
:101160006F2D40E20E947F0D22960DC0CE010E949D
:10117000660B83FF08C08F2D9C2D68E10E94E80A52
:1011800000E010E012C0FC2ECD2ECE010E94660BB6
:1011900084FFECCF8C2F9D2F60E10E94E80A05C0F0
:1011A00000E010E002C000E010E0802F912FDF91FE
:1011B000CF911F910F91FF90DF90CF90BF90AF9094
:1011C00008952F923F924F925F926F927F928F92EB
:1011D0009F92AF92BF92DF92EF92FF920F931F9375
:1011E000CF93DF93CDB7DEB72A970FB6F894DEBF63
:1011F0000FBECDBFD82E3B01590148014115510505
:1012000009F4E2C0082F10E00C5F1F4F102F0027D9
:101210000F2EF8E24F2E5524F02D400E511EC20124
:101220000E94660BE82E0F2EF9E22F2E3324F02DAC
:10123000200E311EC1010E94660B282F30E09E2D2A
:1012400080E07901E82AF92AC8010E94660B90E043
:10125000877090708330910509F444C08430910503
:1012600009F478C08230910509F0A5C088E194E0C6
:101270006D2DA7019E012F5F3F4F08E010E00E94F7
:10128000D90CC70108969A8789878981F5018083DF
:101290008A8181838B8182838C8183839D8180E09D
:1012A0002E81820F911DF401918380839F8180E0C4
:1012B00028857C01E20EF11C88E194E06D2D4985C2
:1012C0005A85930187010E94D90C09851A850E0D54
:1012D0001F1DC201612F0E94E80AC101602F0E94F8
:1012E000E80A6BC00F2EF8E18F2EF4E09F2EF02D50
:1012F000C4016D2DA7019E012F5F3F4F06E010E056
:101300000E94D90CC70106969A8789878981F501C1
:1013100080838A8181838B8182838C8183839D8179
:1013200080E02E817C01E20EF11CC4016D2D498507
:101330005A85930187010E94D90C09851A850E0DE3
:101340001F1DC201612F0E94E80AC101602F0E9487
:10135000E80A33C00F2EF8E18F2EF4E09F2EF02D17
:10136000C4016D2DA7019E012F5F3F4F02E010E0E9
:101370000E94D90CAA24BB246894A1F8AE0CBF1C0F
:10138000398120E08A8190E002977C01E20EF31E11
:10139000C4016D2DA501930187010E94D90C85011F
:1013A0000E0D1F1DC201612F0E94E80AC101602FAE
:1013B0000E94E80A02C0EE24FF2488E194E06D2D2B
:1013C00040E40E947F0D02C0EE24FF248E2D9F2D4D
:1013D0002A960FB6F894DEBF0FBECDBFDF91CF9136
:1013E0001F910F91FF90EF90DF90BF90AF909F9073
:1013F0008F907F906F905F904F903F902F900895C7
:10140000DF92EF92FF920F931F93CF93DF93D82E2B
:101410009B01042F152F88E00130180710F000E021
:1014200018E00115110599F1C8E1D4E0CE016D2D48
:10143000A90198010E94A60CCE016D2D40E20E94E8
:101440007F0D8D2D90E00496982F8827EC01229631
:101450000F2EF3E0EF2EFF24F02DE80EF91E0EC044
:10146000C7010E94660BCE010E94660B83FF06C077
:101470008D2D0E94CA0600E010E009C0CE010E9436
:10148000660B84FFEDCFCE0160E10E94E80A802F59
:10149000912FDF91CF911F910F91FF90EF90DF90EF
:1014A0000895AF92BF92CF92DF92FF920F931F9356
:1014B000CF93DF93C82F6B015A01890188E194E033
:1014C0006C2F0E947E0B8017910740F488E194E016
:1014D0006C2F0E947E0BF82ED92F02C0F02ED12F38
:1014E00088E194E06C2FA60195010F2D1D2F0E941D
:1014F0001B0C8F2D9D2FDF91CF911F910F91FF908E
:10150000DF90CF90BF90AF9008950F931F93CF932C
:10151000DF93FB018A019081992349F491819923FA
:1015200031F49281992319F493819923E1F0011503
:101530001105E1F0C82FD0E02496DC2FCC27CE0196
:101540000C96BF0144E050E00E943F0BCE01409654
:10155000612F0E94E80ACE014196602F0E94E80A9E
:1015600081E090E005C080E090E002C080E090E083
:10157000DF91CF911F910F9108951F93CF93DF9328
:10158000182F88E194E0612F40E20E947F0DD12F57
:1015900080E0C82FCE5FDB4F0CC0CE010E94660BEF
:1015A00083FF07C0CE0168E10E94E80A80E090E076
:1015B0000BC0CE010E94660B84FFEFCFCE0160E12D
:1015C0000E94E80A81E090E0DF91CF911F91089599
:1015D0002A9820EF2EBD0DB407FEFDCF2EB59EBD7F
:1015E0000DB407FEFDCF9EB58EBD0DB407FEFDCF39
:1015F0008EB56EBD0DB407FEFDCF8EB52A9A81E083
:101600000895CF93DF93EC016CE271E080E090E00D
:101610000E943E150E947414229A80E090E060E8D7
:101620000E94E80A8BE190E065E50E94E80A8AE101
:1016300090E065E50E94E80A80E090E49983888361
:1016400080E090E69987888780E098E49B838A838E
:1016500080E098E69B878A8780E090E59D838C8375
:1016600080E090E79D878C8780E098E59F838E835C
:1016700080E098E79F878E87DF91CF91089541158D
:10168000510509F1E62FF72F9A01280F391F70EF46
:101690002A987EBD0DB407FEFDCF6EB59EBD0DB47C
:1016A00007FEFDCF6EB58EBD0DB407FEFDCF6EB546
:1016B000019661916EBD0DB407FEFDCF6EB52A9AFD
:1016C0008217930729F7842F952F08952A982FE0E2
:1016D0002EBD0DB407FEFDCF2EB59EBD0DB407FE89
:1016E000FDCF9EB58EBD0DB407FEFDCF8EB51EBCE1
:1016F0000DB407FEFDCF8EB52A9A08958F929F9262
:10170000AF92BF92CF92DF92EF92FF920F931F930F
:10171000CF93DF93862F90E00496982F8827AA24F2
:10172000BB246894A5F8A80EB91E0F2EF1E2CF2EA7
:10173000DD24F02DC80ED91E00E010E0C5010E9486
:10174000660BC82FC6010E94660B90E0FC2EEE24AB
:10175000EC01CE29DF29209769F0C5010E94660BB4
:10176000082FC6010E94660B90E0902E88248C0101
:10177000082919290C171D0709F7802F912FDF91D0
:10178000CF911F910F91FF90EF90DF90CF90BF907E
:10179000AF909F908F9008958F929F92AF92BF923B
:1017A000CF92DF92EF92FF920F931F93CF93DF932D
:1017B000862F90E00496982F88270F2EF6E2AF2E02
:1017C000BB24F02DA80EB91E0F2EF7E2CF2EDD247C
:1017D000F02DC80ED91E00E010E0C5010E94660B76
:1017E000C82FC6010E94660B90E0FC2EEE24EC018F
:1017F000CE29DF29209769F0C5010E94660B082FCA
:10180000C6010E94660B90E0902E88248C01082966
:1018100019290C171D0709F7802F912FDF91CF9100
:101820001F910F91FF90EF90DF90CF90BF90AF90FE
:101830009F908F9008952F923F924F925F926F9258
:101840007F928F929F92AF92BF92CF92DF92EF9250
:10185000FF920F931F93CF93DF932C015A0119012D
:101860007801C62EDD24C6010496D82FCC270F2E72
:10187000F4E26F2E7724F02D6C0E7D1EC3010E94C2
:10188000660B182F0F2EF5E28F2E9924F02D8C0E5B
:101890009D1EC4010E94660BC82FD0E0912F80E0EE
:1018A0008C2B9D2BEC01CA0DDB1DAE015770C601C0
:1018B000880F991F840D951DFC01808191819A01EB
:1018C000280F391FCA018E0D9F1DF8E081309F0738
:1018D000D8F080E098E05C01A41AB50AC901B10112
:1018E000A5010E943F0BC601880F991F840D951D0D
:1018F000B1016A0D7B1DA7014A195B09FC018081BA
:1019000091810E943F0B05C0C901B101A7010E944E
:101910003F0BCE0DDF1DC3016D2F0E94E80AC401ED
:101920006C2F0E94E80ADF91CF911F910F91FF90D9
:10193000EF90DF90CF90BF90AF909F908F907F906F
:101940006F905F904F903F902F9008950F931F934B
:10195000FA01890140E050E09F010E941B0C1F9199
:101960000F9108954115510509F1E62FF72F9A01BE
:10197000280F391F7FE02A987EBD0DB407FEFDCFEA
:101980006EB59EBD0DB407FEFDCF6EB58EBD0DB418
:1019900007FEFDCF6EB501961EBC0DB407FEFDCF50
:1019A0006EB561932A9A8217930729F7842F952F92
:1019B0000895AF92BF92CF92DF92EF92FF920F9372
:1019C0001F93CF93DF936C0159015770C62FD0E05E
:1019D000CE010496880F991F8C0D9D1DFC018081FE
:1019E00091819A01280F391FC801840F951FF8E0D3
:1019F00081309F07E0F080E098E07C01E41AF50A6E
:101A0000C901B501A7010E94B20CCE010496880F4E
:101A1000991F8C0D9D1DB5016E0D7F1DA8014E19DE
:101A20005F09FC01808191810E94B20C05C0C9014F
:101A3000B501A8010E94B20CDF91CF911F910F91C7
:101A4000FF90EF90DF90CF90BF90AF9008954F92AE
:101A50005F926F927F928F929F92AF92BF92CF923E
:101A6000DF92FF920F931F93CF93DF933C01162FCA
:101A70002A016901F02EC62FD0E02496DC2FCC2756
:101A80000F2EF8E28F2E9924F02D8C0E9D1EC4018E
:101A90000E94660B082F0F2EF9E2AF2EBB24F02D0B
:101AA000AC0EBD1EC5010E94660B282F30E0902FA2
:101AB00080E0E901C82BD92BC301612FAE0192014F
:101AC00086010E94D90CFF2051F4CC0DDD1DC4010C
:101AD0006D2F0E94E80AC5016C2F0E94E80ADF9171
:101AE000CF911F910F91FF90DF90CF90BF90AF905B
:101AF0009F908F907F906F905F904F900895CF93BD
:101B0000DF93D62F80E0C82FCF5FDB4FCE01642F4D
:101B10000E94E80ACE010E94660B8823D9F7DF9164
:101B2000CF910895FC0124853585F901E05CFF4FD4
:101B3000808191812E5B3F4FF90120813181821B91
:101B4000930B8F7390700895FC0184859585FC013B
:101B5000E05CFF4F20813181FC01EE5BFF4F408153
:101B600051812417350759F0FC01EE5BFF4F2081AE
:101B70003181820F931FFC01808190E008958FEFE7
:101B80009FEF0895DC011C968D919C911D97FC019F
:101B9000E05CFF4F20813181FC01EE5BFF4F408113
:101BA00051812417350799F0FC01EE5BFF4F20812E
:101BB0003181820F931FDC018C91208131812F5F55
:101BC0003F4F2F7330703183208390E008958FEF63
:101BD0009FEF0895DC011E96ED91FC911F97DF01A8
:101BE000A05CBF4FEE5BFF4F2D913C911197808120
:101BF000918128173907C1F708951F93CF93DF9379
:101C0000EC01AE85BF85FD01E05CFF4F2081318195
:101C10002F5F3F4F2F733070122F732FFD01EE5B3C
:101C2000FF4F412F572F8081918128173907C9F322
:101C3000FD01E05CFF4F80819181A80FB91F6C937B
:101C4000EE85FF85E05CFF4F51834083EE89FF897D
:101C5000408121E030E0C9010D8C02C0880F991F3E
:101C60000A94E2F7842B808381E090E0DF91CF91AA
:101C70001F91089508951F920F920FB60F9211248D
:101C80002F933F934F938F939F93EF93FF934091A5
:101C9000C6008091CB049091CC0401968F73907014
:101CA0002091CD043091CE048217930759F0E09132
:101CB000CB04F091CC04E557FB4F40839093CC04C8
:101CC0008093CB04FF91EF919F918F914F913F9122
:101CD0002F910F900FBE0F901F90189588E294E0FF
:101CE0000E94920D009711F00E943A0E08951F92E3
:101CF0000F920FB60F9211242F933F938F939F93C0
:101D0000EF93FF9320918704309188048091890498
:101D100090918A042817390731F4E1ECF0E08081D2
:101D20008F7D808314C0E0918904F0918A04E95B7F
:101D3000FB4F20818091890490918A0401968F73D2
:101D4000907090938A04809389042093C600FF9139
:101D5000EF919F918F913F912F910F900FBE0F9018
:101D60001F9018958F92AF92BF92CF92DF92EF9211
:101D7000FF920F931F93CF93DF93CDB7DEB7FC0194
:101D80001382128288EE93E0A0E0B0E08483958312
:101D9000A683B78383E891E0918380837587648706
:101DA00057874687318B208B138B028BF58AE48A09
:101DB000D78AC68AB18EA08E828E8E85838F8F85BC
:101DC000848F8889858F8989868FDF91CF911F9134
:101DD0000F91FF90EF90DF90CF90BF90AF908F90DA
:101DE00008952F923F924F925F926F927F928F92BF
:101DF0009F92AF92BF92CF92DF92EF92FF920F939A
:101E00001F93CF93DF938C016A017B01C1E04030C7
:101E100021EE520720E0620720E0720721F4C0E0C3
:101E200002C0CD2F18C02224332423940F2EF0E0BB
:101E30008F2EF9E09F2EFDE3AF2EF0E0BF2EF02DA8
:101E40000F2EF0E84F2EF4E85F2EFEE16F2EF0E04B
:101E50007F2EF02DD0E0CC23F1F0D8015496ED91F7
:101E6000FC915597C1015E960C9002C0880F991F96
:101E70000A94E2F78083C501B401A70196010E948C
:101E80000334DA01C9010197A109B109B695A795F3
:101E90009795879515C0D8015496ED91FC9155976B
:101EA0001082C301B201A70196010E940334DA0136
:101EB000C9010197A109B109B695A795979587958D
:101EC000B0E180309B0718F0CC2309F0AACFD801ED
:101ED0005096ED91FC91519790835296ED91FC9123
:101EE000539780835696ED91FC915797408121E05E
:101EF00030E0C9015A960C905A9702C0880F991F7A
:101F00000A94E2F7842B80835696ED91FC915797C3
:101F10004081C9015B960C905B9702C0880F991FA6
:101F20000A94E2F7842B80835696ED91FC915797A3
:101F30004081C9015C960C905C9702C0880F991F84
:101F40000A94E2F7842B80835696ED91FC91579783
:101F500080815D960C905D9702C0220F331F0A941A
:101F6000E2F7209528232083DF91CF911F910F91D5
:101F7000FF90EF90DF90CF90BF90AF909F908F90A9
:101F80007F906F905F904F903F902F900895CF93E8
:101F9000DF93EC01EE85FF85DF01A05CBF4FEE5BB8
:101FA000FF4F8D919C91119720813181821793076A
:101FB000C1F7EE89FF89408121E030E0C9010A8C38
:101FC00002C0880F991F0A94E2F7809584238083CA
:101FD000EE89FF894081C9010B8C02C0880F991FCF
:101FE0000A94E2F7809584238083EE89FF894081FB
:101FF000C9010C8C02C0880F991F0A94E2F78095E2
:1020000084238083EE89FF8980810D8C02C0220F9A
:10201000331F0A94E2F72095282320838C859D8521
:10202000FC01EE5BFF4F20813181805C9F4FFC0102
:1020300031832083DF91CF91089581E008958F92BD
:10204000AF92BF92CF92DF92EF92FF920F931F93C6
:1020500000D000D0EDB7FEB7319683E0ADB7BEB784
:1020600011968C9387E0818385E0828381E083836E
:1020700088E294E06BE874E047E454E025EC30E05B
:1020800004EC10E00F2EF0ECEF2EFF24F02D0F2EBD
:10209000F1ECCF2EDD24F02D0F2EF6ECAF2EBB246D
:1020A000F02D8824689482F80E94B20E0F900F9051
:1020B0000F900F901F910F91FF90EF90DF90CF90B6
:1020C000BF90AF908F9008958F929F92AF92BF92E2
:1020D000CF92DF92EF92FF920F931F93CF93DF93F4
:1020E0004C017B01AA24BB246894A1F8A80EB91E58
:1020F00000E010E0CC24DD24F50161915F01C7010F
:102100004AE050E00E94F812EC01C7016EE20E9422
:10211000C5118C0F9D1FC80ED91E0F5F1F4F0330B6
:10212000110551F7C701F40165814AE050E00E94B2
:10213000F8128C0D9D1DDF91CF911F910F91FF9093
:10214000EF90DF90CF90BF90AF909F908F900895C9
:10215000FC0183EA91E091838083128213821482CE
:10216000158208950F93FC0183EA91E091838083A7
:1021700062834383248305830F910895FC0183EADE
:1021800091E09183808342835383648375830895B0
:10219000CF93DF93FC0183EA91E091838083EB018D
:1021A00088819981AA81BB8182839383A483B5832B
:1021B000DF91CF910895FB0140815181628173814C
:1021C000FC0142835383648375830895FC01428339
:1021D00053836483758308959C012E5F3F4FCB0129
:1021E000B90144E050E00E94DD36282F392F81E00C
:1021F0002115310509F080E008950F938FEC94E0EC
:1022000060E040E020E000E00E94B2100F910895ED
:102210000E94463408950E94DC34089521E030E0A5
:10222000FC018081882311F020E030E0822F932F81
:10223000089521E0FC012083089508950895CF9228
:10224000DF92EF92FF920F931F93CF93DF936C0176
:102250007B01EA01209791F000E010E0D7016D9139
:102260007D01D601ED91FC910190F081E02DC60138
:102270000995080F191F219789F702C000E010E0A7
:10228000802F912FDF91CF911F910F91FF90EF90B1
:10229000DF90CF900895EF92FF920F931F93CF930B
:1022A000DF937C01EB01FB016491662391F02196A1
:1022B00000E010E0F701A081B181ED91FC91C70130
:1022C0000995080F191FFE0121966491662391F765
:1022D00002C000E010E0802F912FDF91CF911F917D
:1022E0000F91FF90EF900895AF92BF92CF92DF923F
:1022F000EF92FF920F931F93CF93DF935C016B01DB
:10230000DB0114968D919C9115970097E1F000E008
:1023100010E0EE24FF24D501ED91FC91C081D18124
:10232000C601B8010E948D1B682FC501FE010995E9
:10233000E80EF91E0F5F1F4FF60184819581081783
:10234000190748F302C0EE24FF248E2D9F2DDF9144
:10235000CF911F910F91FF90EF90DF90CF90BF90A2
:10236000AF900895E62FF72FDF010D900020E9F7D9
:10237000AD01415050404E1B5F0BDC01ED91FC91D3
:102380000280F381E02D09950895DC01ED91FC9127
:102390000190F081E02D099508959C01CB01DB01AE
:1023A000ED91FC910190F081E02DB901099508951E
:1023B0000F931F93CF93DF938C016DE00E94C511A3
:1023C000EC01C8016AE00E94C5118C0F9D1FDF91CE
:1023D000CF911F910F9108950F931F93CF93DF9388
:1023E0008C010E944B11EC01C8010E94D8118C0F86
:1023F0009D1FDF91CF911F910F9108950F931F9310
:10240000CF93DF938C010E947411EC01C8010E94EC
:10241000D8118C0F9D1FDF91CF911F910F910895BF
:102420000F931F93CF93DF938C010E94B211EC01A5
:10243000C8010E94D8118C0F9D1FDF91CF911F9171
:102440000F9108950F931F93CF93DF938C010E94F8
:10245000C511EC01C8010E94D8118C0F9D1FDF919E
:10246000CF911F910F9108950F931F93CF93DF93F7
:102470008C010E94CD11EC01C8010E94D8118C0F73
:102480009D1FDF91CF911F910F9108954F925F9201
:102490006F927F928F929F92AF92BF92CF92DF9274
:1024A000EF92FF920F931F93CF93DF93CDB7DEB7D9
:1024B000A1970FB6F894DEBF0FBECDBF4C01142F0D
:1024C000352F862F972F022F19A2223008F40AE009
:1024D0000F2EF1E2AF2EBB24F02DAC0EBD1E402E10
:1024E00055246624772403C0122F842F952F612F43
:1024F000732FA30192010E940334C22ED32EE42E27
:10250000F52E029F802D1124181B0894A108B108F4
:102510001A3010F4105D01C0195CD5011C93C11470
:10252000D104E104F10401F7EA2DFB2DDF010D9048
:102530000020E9F71197AD014E1B5F0BD401ED911F
:10254000FC910280F381E02DC401B5010995A196AB
:102550000FB6F894DEBF0FBECDBFDF91CF911F91B4
:102560000F91FF90EF90DF90CF90BF90AF909F9032
:102570008F907F906F905F904F9008952115310557
:1025800049F4DC01ED91FC910190F081E02D642F84
:10259000099508950E94461208950F931F93CF93B3
:1025A000DF938C010E94BE12EC01C8010E94D81179
:1025B0008C0F9D1FDF91CF911F910F9108959A016C
:1025C000AB0160E070E00E94BE1208950F931F936C
:1025D000CF93DF938C010E94DF12EC01C8010E94AF
:1025E000D8118C0F9D1FDF91CF911F910F910895EE
:1025F0009A01462F50E060E070E00E94BE120895FC
:102600000F931F93CF93DF938C010E94F812EC017C
:10261000C8010E94D8118C0F9D1FDF91CF911F918F
:102620000F910895CF92DF92EF92FF920F931F9335
:10263000CF93DF93EC016A017B012115310541F451
:10264000E881F9810190F081E02D642F09951DC08A
:102650002A303105C1F4772394F46DE20E94C5114C
:102660008C0144275527BA014C195D096E097F0971
:10267000CE012AE00E944612800F911F06C02AE078
:102680000E94461202C00E944612DF91CF911F9114
:102690000F91FF90EF90DF90CF9008950F931F93CD
:1026A000CF93DF938C010E941213EC01C8010E94AA
:1026B000D8118C0F9D1FDF91CF911F910F9108951D
:1026C0009A01FB01AF01662757FD6095762F0E94A6
:1026D000121308950F931F93CF93DF938C010E94E1
:1026E0006013EC01C8010E94D8118C0F9D1FDF916F
:1026F000CF911F910F9108954F925F926F927F92A9
:102700008F929F92AF92BF92DF92EF92FF920F93C0
:102710001F93CF93DF933C014A015B01E22ECB0173
:10272000BA0120E030E0A9010E943232882354F43B
:10273000C3016DE20E94C5112C01B7FAB094B7F83D
:10274000B09402C044245524EE2009F4A3C0C0E094
:1027500050E040E030E02FE3852F942FA32FB22FDD
:10276000BC01CD0120E030E040E251E40E9436326D
:10277000562F472F382F292FCF5FCE1569F7C50168
:10278000B401E22F052F142F232F3E2FA90198010A
:102790000E94CE31162F072FF82ED92E862F902F7C
:1027A000AF2DBD2DBC01CD010E94A332C62FA72E97
:1027B000882ED92F0E94CF329B01AC01812F902F00
:1027C000AF2DBD2DBC01CD010E94CD31F62ED72EEF
:1027D000182F092FC3014C2F5A2D682D7D2F2AE069
:1027E00030E00E94BE12EC01C3016BEA71E00E946E
:1027F000B211C80FD91F5E01A40CB51C8F2D9D2DE1
:10280000A12FB02FBC01CD0120E030E040E251E427
:102810000E948133162F072FF82ED92E862F902F46
:10282000AF2DBD2DBC01CD010E949E32AB01BC017C
:10283000EA01C301BA014AE050E00E946013A80E09
:10284000B91EBE01882777FD8095982F0E94D1324E
:102850009B01AC01812F902FAF2DBD2DBC01CD016F
:102860000E94CD31F62ED72E182F092FEA9431F67B
:102870008A2D9B2DDF91CF911F910F91FF90EF90AB
:10288000DF90BF90AF909F908F907F906F905F9000
:102890004F900895C501B40120E030E040E05FE3CF
:1028A0000E94CE310E94A332AB01BC01C3012AE0D9
:1028B00030E00E94BE125C01A40CB51CD9CF0E946E
:1028C0007C1308950F931F93CF93DF938C010E9485
:1028D0005F14EC01C8010E94D8118C0F9D1FDF917D
:1028E000CF911F910F9108958DE061E00E94D9155D
:1028F0008BE061E00E94D9158AE061E00E94D91561
:102900008DE060E00E940D168BE060E00E940D16E5
:102910008AE061E00E940D168CB580618CBD8CB59B
:1029200080648CBD08958CB58F7B8CBD0895882301
:1029300021F48CB580628CBD08958CB58F7D8CBDE3
:1029400008959CB5937F892B8CBD08959CB5282F45
:1029500023709C7F922B9CBD2DB590E0959587951B
:10296000959587958170922F9E7F892B8DBD0895B7
:102970001F920F920FB60F9211242F933F938F93B4
:102980009F93AF93BF938091D6049091D704A09169
:10299000D804B091D9043091DE04232F2D5F2D3758
:1029A00020F40196A11DB11D05C0232F2A570296C0
:1029B000A11DB11D2093DE048093D6049093D7040B
:1029C000A093D804B093D9048091DA049091DB04E9
:1029D000A091DC04B091DD040196A11DB11D80938E
:1029E000DA049093DB04A093DC04B093DD04BF9180
:1029F000AF919F918F913F912F910F900FBE0F90AC
:102A00001F9018950F931F938FB7F8940091D604D9
:102A10001091D7042091D8043091D9048FBFB80108
:102A2000C9011F910F9108950F931F939FB7F894B9
:102A30000091DA041091DB042091DC043091DD0474
:102A400086B5A89B06C08F3F21F00F5F1F4F2F4F09
:102A50003F4F9FBF322F212F102F0027080F111D2E
:102A6000211D311D42E0000F111F221F331F4A9507
:102A7000D1F7B801C9011F910F910895CF92DF924C
:102A8000EF92FF92CF93DF936B017C010E941415AC
:102A9000DC01CB01EC010FC00E9414156C1B7D0BF7
:102AA00083E0683E780738F00894C108D108E1084F
:102AB000F108C851DC4FC114D104E104F10461F7FD
:102AC000DF91CF91FF90EF90DF90CF900895019725
:102AD00039F0880F991F880F991F02970197F1F716
:102AE0000895789484B5826084BD84B5816084BD86
:102AF00085B5826085BD85B5816085BDEEE6F0E077
:102B0000808181608083E1E8F0E0108280818260D2
:102B10008083808181608083E0E8F0E08081816053
:102B20008083E1EBF0E0808184608083E0EBF0E083
:102B3000808181608083EAE7F0E080818460808327
:102B400080818260808380818160808380818068D1
:102B500080831092C1000895833071F0843028F48E
:102B60008130A1F0823021F514C08630B1F0873079
:102B7000D1F08430E9F404C0809180008F7703C0E5
:102B8000809180008F7D80938000089584B58F7739
:102B900002C084B58F7D84BD08958091B0008F7789
:102BA0008093B00008958091B0008F7D8093B00035
:102BB000089590E0FC01E458FF4F249180579F4F07
:102BC000FC018491882341F190E0880F991FFC015A
:102BD000E854FF4F45915491DA0182559F4FFC0113
:102BE00085919491FC019FB7F8948C91662331F400
:102BF000209582238C938081822308C0623049F41F
:102C0000322F309583238C938081822B80839FBFCA
:102C10000895822B8C939FBF08950F931F93CF939A
:102C2000DF930F92CDB7DEB7282F30E0F901E859D6
:102C3000FF4F8491F901E458FF4F1491F901E057D7
:102C4000FF4F04910023D1F0882321F069830E9473
:102C5000AC156981E02FF0E0EE0FFF1FE255FF4F4A
:102C600085919491DC019FB7F8948C91662319F4B7
:102C70001095812301C0812B8C939FBF0F90DF9112
:102C8000CF911F910F910895CF93DF93282F30E0BC
:102C9000F901E859FF4F8491F901E458FF4FC491BD
:102CA000F901E057FF4FD491DD2391F0882311F013
:102CB0000E94AC15ED2FF0E0EE0FFF1FEC55FF4F1B
:102CC00085919491FC0120812C2381E090E011F406
:102CD00080E090E0DF91CF910895FC0180819181A7
:102CE0000E94DC340895CF93DF93EC0188819981B1
:102CF000009711F00E94DC34198218821D821C8218
:102D00001B821A82DF91CF9108950F931F93CF9367
:102D1000DF93EC018B016F5F7F4F888199810E9467
:102D2000D335282F392F2115310531F039832883E8
:102D30001B830A8381E001C080E0DF91CF911F9166
:102D40000F910895CF93DF93EC01888199810097CB
:102D500029F08A819B818617970770F4CE010E9423
:102D60008516882359F08C819D81009749F4E8816C
:102D7000F981108281E005C081E003C080E001C0DC
:102D800081E0DF91CF910895EF92FF920F931F930F
:102D9000CF93DF93EC017B018A01BA010E94A21656
:102DA000882321F4CE010E94731607C01D830C8373
:102DB00088819981B7010E9419378C2F9D2FDF914F
:102DC000CF911F910F91FF90EF900895CF93DF93D4
:102DD000DC0111961C921E9213961C921E92129761
:102DE00015961C921E92149716961C9216976115B2
:102DF000710569F0E62FF72FEF0109900020E9F740
:102E0000AE01415050404E1B5F0B0E94C416DF9133
:102E1000CF910895CF93DF93EC01FB0186179707BD
:102E200069F0208131812115310531F044815581CE
:102E3000B9010E94C41602C00E9473168C2F9D2FE8
:102E4000DF91CF910895FC011182108213821282CA
:102E50001582148216820E940A170895CF93DF9379
:102E6000C82FD92F6115710571F0E62FF72FDF01FB
:102E70000D900020E9F7AD01415050404E1B5F0B13
:102E80000E94C41602C00E9473168C2F9D2FDF91E2
:102E9000CF9108950F931F93CF93DF93CDB7DEB7F4
:102EA000A1970FB6F894DEBF0FBECDBF8C01FC0119
:102EB0001182108213821282158214821682CB0133
:102EC000BA01AE014F5F5F4F30E00E94CC37C801BE
:102ED000BE016F5F7F4F0E942E17A1960FB6F89428
:102EE000DEBF0FBECDBFDF91CF911F910F9108952F
:102EF0000F931F93CF93DF93CDB7DEB7A2970FB693
:102F0000F894DEBF0FBECDBF8C01FC011182108290
:102F100013821282158214821682CB01BA01AE018D
:102F20004F5F5F4F30E00E948337C801BE016F5F83
:102F30007F4F0E942E17A2960FB6F894DEBF0FBEE9
:102F4000CDBFDF91CF911F910F9108950F931F93E4
:102F5000CF93DF93CDB7DEB761970FB6F894DEBF9E
:102F60000FBECDBF8C01CB01F801118210821382FC
:102F70001282158214821682BE016F5F7F4F50E06D
:102F80000E94F137C801BE016F5F7F4F0E942E176C
:102F900061960FB6F894DEBF0FBECDBFDF91CF9123
:102FA0001F910F9108950F931F93CF93DF93CDB788
:102FB000DEB762970FB6F894DEBF0FBECDBF8C01AF
:102FC000CB01F801118210821382128215821482C1
:102FD0001682BE016F5F7F4F50E00E946237C801CA
:102FE000BE016F5F7F4F0E942E1762960FB6F89456
:102FF000DEBF0FBECDBFDF91CF911F910F9108951E
:103000000F931F93CF93DF93CDB7DEB729970FB6FA
:10301000F894DEBF0FBECDBF8C01862FF801118260
:1030200010821382128215821482168290E0BE01F1
:103030006F5F7F4F50E00E94F137C801BE016F5FA4
:103040007F4F0E942E1729960FB6F894DEBF0FBE51
:10305000CDBFDF91CF911F910F910895CF93DF9353
:1030600000D0CDB7DEB7FC0111821082138212822C
:1030700015821482168269831A82BE016F5F7F4FA8
:103080000E942E170F900F90DF91CF910895EF922D
:10309000FF920F931F93CF93DF938C017B01FC0171
:1030A000C481D58161157105C9F041155105C1F083
:1030B000C40FD51FBE010E94A216882399F0F80103
:1030C0008081918124813581820F931FB7010E94F5
:1030D0001937F801D583C48381E005C080E003C0BF
:1030E00081E001C080E0DF91CF911F910F91FF90AF
:1030F000EF900895FB012081318144815581B90110
:103100000E94471808956115710571F0E62FF72F99
:10311000DF010D900020E9F7AD01415050404E1BFA
:103120005F0B0E944718089580E00895CF93DF93C6
:1031300000D0CDB7DEB769831A82BE016F5F7F4FC3
:1031400041E050E00E9447180F900F90DF91CF911F
:103150000895EF92FF920F931F93CF93DF9300D0C8
:1031600000D0CDB7DEB77C01862F90E08E010F5FD7
:103170001F4FB8014AE050E00E946237F801019009
:103180000020E9F7AF0141505040401B510BC701EF
:10319000B8010E9447180F900F900F900F90DF9189
:1031A000CF911F910F91FF90EF900895EF92FF92B2
:1031B0000F931F93CF93DF93CDB7DEB727970FB64B
:1031C000F894DEBF0FBECDBF7C01CB018E010F5F37
:1031D0001F4FB8014AE050E00E946237F8010190A9
:1031E0000020E9F7AF0141505040401B510BC7018F
:1031F000B8010E94471827960FB6F894DEBF0FBE9D
:10320000CDBFDF91CF911F910F91FF90EF90089567
:10321000EF92FF920F931F93CF93DF9300D000D0D4
:1032200000D0CDB7DEB77C01CB018E010F5F1F4F01
:10323000B8014AE050E00E94F137F8010190002007
:10324000E9F7AF0141505040401B510BC701B80195
:103250000E94471826960FB6F894DEBF0FBECDBF6A
:10326000DF91CF911F910F91FF90EF900895EF9212
:10327000FF920F931F93CF93DF93CDB7DEB72C97B9
:103280000FB6F894DEBF0FBECDBF7C01CB01BA01F3
:103290008E010F5F1F4FA8012AE030E00E948337A4
:1032A000F80101900020E9F7AF0141505040401B68
:1032B000510BC701B8010E9447182C960FB6F8941D
:1032C000DEBF0FBECDBFDF91CF911F910F91FF9059
:1032D000EF900895EF92FF920F931F93CF93DF9398
:1032E000CDB7DEB72B970FB6F894DEBF0FBECDBFBC
:1032F0007C01CB01BA018E010F5F1F4FA8012AE0AC
:1033000030E00E94CC37F80101900020E9F7AF01CE
:1033100041505040401B510BC701B8010E94471853
:103320002B960FB6F894DEBF0FBECDBFDF91CF91C5
:103330001F910F91FF90EF900895CF93DF93C82FC7
:10334000D92FFB012081318144815581B9010E942F
:103350004718882321F48C2F9D2F0E9473168C2FE1
:103360009D2FDF91CF910895CF93DF93C82FD92F51
:103370006115710579F0E62FF72FDF010D90002020
:10338000E9F7AD01415050404E1B5F0B0E944718BA
:10339000882321F48C2F9D2F0E9473168C2F9D2F34
:1033A000DF91CF910895CF93DF93D82FC92F0E943B
:1033B0009618882321F48D2F9C2F0E9473168D2F31
:1033C0009C2FDF91CF910895CF93DF93D82FC92FF2
:1033D0000E94A918882321F48D2F9C2F0E94731618
:1033E0008D2F9C2FDF91CF910895CF93DF93D82F0E
:1033F000C92F0E94D618882321F48D2F9C2F0E945C
:1034000073168D2F9C2FDF91CF910895CF93DF936B
:10341000D82FC92F0E940819882321F48D2F9C2FA3
:103420000E9473168D2F9C2FDF91CF910895CF931B
:10343000DF93D82FC92F0E943719882321F48D2FAD
:103440009C2F0E9473168D2F9C2FDF91CF91089592
:10345000CF93DF93D82FC92F0E946A19882321F4B4
:103460008D2F9C2F0E9473168D2F9C2FDF91CF9153
:103470000895DC01FB018D919C911197009731F02B
:103480006081718161157105D1F40EC0A081B18197
:103490001097D1F0848195810097C9F02C9130E08C
:1034A000309521953F4F18C014962D913C9115975A
:1034B0002115310579F0FC01208130E00DC00E941A
:1034C0001037282F392F08C020E030E005C020E059
:1034D00030E002C020E030E0822F932F0895FC01FD
:1034E00024813581FB01448155812417350739F446
:1034F0000E94391A21E0009719F020E001C020E075
:10350000822F0895FC0184819581009761F46115F3
:10351000710539F081E0FB0190819923D9F080E0B9
:10352000089581E008956115710549F40190F081D5
:10353000E02D81E09081992369F080E008958081F9
:1035400091810E941037282F392F81E021153105F4
:1035500009F080E008950E94391A892F881F882772
:10356000881F08950E94391A21E0181619060CF0D8
:1035700020E0822F08950E94391A21E018161906BA
:103580000CF420E0822F08950E94391A892F80952B
:10359000881F8827881F0895EF92FF920F931F932B
:1035A000CF93DF93DC01FB018617970729F114966F
:1035B0008D919C9115972481358182179307F1F4A1
:1035C0000097F1F0E080F1800D911C9111970DC0F2
:1035D00090E00E94CD36EC01F70181917F0190E0EF
:1035E0000E94CD36C817D90769F4F80181918F017F
:1035F000882371F781E007C081E005C080E003C047
:1036000081E001C080E0DF91CF911F910F91FF9089
:10361000EF900895FC01DB0114962D913C911597D4
:1036200084819581821B930B84179507B8F0808164
:1036300091810097A9F06D917C91119761157105A9
:1036400089F0840F951FA9010E942037282F392F58
:1036500081E02115310539F080E0089580E008957A
:1036600080E0089580E00895FC0124813581FB010C
:10367000448155812417350728F040E050E00E942E
:103680000A1B089580E00895FC01DB018481958187
:1036900014962D913C91159782179307C8F040819D
:1036A000518141155105B1F06D917C9111976115D2
:1036B000710591F0821B930B840F951F0E941037A8
:1036C000282F392F81E02115310539F080E0089548
:1036D00080E0089580E0089580E00895FC018481F1
:1036E00095816817790730F480819181680F791F7F
:1036F000FB0140830895FC01848195816817790757
:1037000020F480819181009729F41092DF048FEDDD
:1037100094E00895860F971F0895FC018481958198
:103720006817790748F480819181009739F0680F14
:10373000791FFB018081089580E0089580E008955D
:103740000E948D1B08950F931F93CF93DF93FC016D
:10375000EB0141155105E9F02097D9F0848195815D
:103760002817390710F0188214C0415050408C01BE
:10377000021B130B4017510708F48A016081718105
:10378000620F731FCE01A8010E942E37C00FD11FF8
:103790001882DF91CF911F910F910895CF93DF93FE
:1037A000FC01848195814817590768F4C081D18153
:1037B000CE01840F951F70E00E940537009731F00D
:1037C0008C1B9D0B05C08FEF9FEF02C08FEF9FEF0B
:1037D000DF91CF91089540E050E00E94CE1B089504
:1037E000CF93DF93FC01848195814817590778F4C2
:1037F000C081D181FB0160817181CE01840F951F51
:103800000E944837009731F08C1B9D0B05C08FEF4D
:103810009FEF02C08FEF9FEFDF91CF91089540E0BF
:1038200050E00E94F01B0895DF92EF92FF920F93F9
:103830001F93CF93DF938C01DC0114968D919C91A3
:10384000159748175907E0F47A010894E11CF11C18
:10385000ED91FC911197EE0DFF1DD0801082CD915E
:10386000DC91CE0170E00E943D37CE0DDF1DD88285
:10387000009749F0F80120813181821B930B05C02C
:103880008FEF9FEF02C08FEF9FEFDF91CF911F91DE
:103890000F91FF90EF90DF900895FC0144815581D6
:1038A000415050400E94141C0895AF92BF92CF9295
:1038B000DF92EF92FF920F931F93CF93DF93FC0160
:1038C0006B017A01DB0114962D913C91159721151E
:1038D000310571F184819581009771F18217930709
:1038E00078F14817590720F07C010894E108F108A5
:1038F000C081D1818E010E0D1F1D0C171D0720F1F7
:10390000CE01AA24AA94BA2CF601608171810E948A
:1039100048379C010097D9F08C1B9D0BE816F906DF
:1039200008F05C01C90101960817190768F70FC074
:10393000AA24AA94BA2C0BC0AA24AA94BA2C07C011
:10394000AA24AA94BA2C03C0AA24AA94BA2C8A2D19
:103950009B2DDF91CF911F910F91FF90EF90DF9002
:10396000CF90BF90AF900895FC0144815581DB0159
:1039700014968D919C911597481B590BCF010E946D
:10398000551C0895BF92CF92DF92EF92FF920F9352
:103990001F93CF93DF937C016B018A01E901241708
:1039A000350720F4812F8901C42FD82FC70165EB7B
:1039B00071E00E94E616D60114968D919C911597A0
:1039C00080179107C8F08C179D0708F4EC01D60109
:1039D000ED91FC911197EC0FFD1FB08010826D915D
:1039E0007C91600F711FC7010E942E17F601808124
:1039F0009181C80FD91FB882C701DF91CF911F9164
:103A00000F91FF90EF90DF90CF90BF900895CF93EC
:103A1000DF93EC01FB01248135810E94C21CCE01A1
:103A2000DF91CF910895DC01ED91FC9111973097D2
:103A300061F08081882349F03196861719F4DF01FF
:103A400011974C9381918823C1F708954F925F920B
:103A50006F927F928F929F92AF92BF92CF92DF929E
:103A6000EF92FF920F931F93CF93DF933C014B0193
:103A70007A01FC01A480B580A114B10409F4CAC084
:103A8000FB01C480D580C114D10409F4C3C0FA017C
:103A9000848195812C014C185D08C201F3010081DD
:103AA00011814114510479F018C0F70160817181CE
:103AB000448155818C2F9D2F0E94EA36F7010481A5
:103AC00015810C0F1D1FF40160817181C8010E94D6
:103AD0004837EC01009749F79DC0992364F1E5014F
:103AE0003EC0E601C01BD10B8A2D9B2D602F712F8C
:103AF0004C2F5D2F0E94EA36CA0DDB1DF701608155
:103B00007181448155818C2F9D2F0E94EA36F701E7
:103B1000848195815E01A80EB91EF401848195818E
:103B20008601080F191FF30184819581840D951D6D
:103B30009583848301C05801F40160817181C801BB
:103B40000E9448376C01009761F6C501B8010E94D8
:103B5000193760C08C010C0D1D1DC40DD51DF4015D
:103B600060817181C8010E944837009799F7CA1592
:103B7000DB0509F44FC0F301828193818C179D0707
:103B800008F042C0C301BE010E948516882309F4D3
:103B900041C03AC05523F4F1C301B4010E94551C41
:103BA000EC019923BCF1F30160817181F4018481FE
:103BB00095818C0F9D1F680F791FF30144815581FA
:103BC000481B590BCB01840D951D0E94F336F30160
:103BD00084819581840D951D958384832081318115
:103BE000820F931FFC011082F301808191818C0F61
:103BF0009D1FF70160817181448155810E94EA36E1
:103C0000AE0141505040C6CFF3014481558141502F
:103C10005040C0CFDF91CF911F910F91FF90EF9057
:103C2000DF90CF90BF90AF909F908F907F906F90DC
:103C30005F904F9008950F931F93CF93DF93FC01F4
:103C4000C081D181209779F08881882361F08E012D
:103C50000F5F1F4F90E00E94CD368993F80181914C
:103C60008F018823B9F7DF91CF911F910F910895AC
:103C70000F931F93CF93DF93FC01C081D1812097D5
:103C800079F08881882361F08E010F5F1F4F90E0EB
:103C90000E94D5368993F80181918F018823B9F765
:103CA000DF91CF911F910F910895AF92BF92CF9264
:103CB000DF92EF92FF920F931F93CF93DF937C01DC
:103CC000DC01CD90DC901197C114D104F1F1149670
:103CD000AD90BC901597A114B104B9F1E6018E0125
:103CE0002196F801808190E00E94C5360097B9F7CF
:103CF000E5012197CC0DDD1D888190E00E94C5363D
:103D00000097C9F0C017D107B0F02197F5CF8C2DDF
:103D10009D2D602F712F4C2F5D2F0E94EA36D70109
:103D2000ED91FC91119714968D919C911597E80F48
:103D3000F91F10820AC02196C01BD10BF701D58351
:103D4000C483C016D10658F7E2CFDF91CF911F91FF
:103D50000F91FF90EF90DF90CF90BF90AF900895BC
:103D60000F931F93FC0180819181009729F00E949D
:103D70009E368B019C0103C000E010E09801602F8B
:103D8000712F822F932F1F910F9108950E96E82F78
:103D9000F92F84E1DF011D928A95E9F708950895CE
:103DA0002F923F924F925F926F927F928F929F924B
:103DB000AF92BF92CF92DF92EF92FF920F931F9339
:103DC000CF93DF93CDB7DEB7E4970FB6F894DEBF9D
:103DD0000FBECDBF2C016A017B0119010E940215A3
:103DE0004B015C018201095B1F4F14C00E94021548
:103DF000DC01CB0188199909AA09BB09C816D906A3
:103E0000EA06FB0608F440C262E370E080E090E05E
:103E10000E943E15702E612EC8010E948D05181655
:103E2000190624F7802F912FBE01695F7F4F42E270
:103E300050E00E943B058F81823009F01DC2F201E3
:103E4000E95BFF4F858996898334910509F016C295
:103E50000B851C852D853E85432F552766277727A3
:103E6000B02FAA2799278827482B592B6A2B7B2B01
:103E7000B22FA12F902F882780709070B070482BA0
:103E8000592B6A2B7B2BBB27A32F922F812F80705E
:103E9000A070B0706A017B01C82AD92AEA2AFB2ADD
:103EA000F101C082D182E282F382B201685F7F4F6A
:103EB000CE01839646E050E00E94DD36282F392F50
:103EC0002115310599F4F20180819181A281B3819C
:103ED000C816D906EA06FB0648F084819581A681BA
:103EE000B7818C159D05AE05BF0530F4872D962D45
:103EF0000E94DD048824CAC18F89988DA98DBA8D4E
:103F0000F20186879787A08BB18B0EEC10E0872D8E
:103F1000962D0E94610501501040C9F788240F2E8C
:103F2000F2E2EF2EFF24F02DE40CF51C0F2EF6E24A
:103F3000AF2EBB24F02DA40CB51CC2018A969AA703
:103F400089A7F2017A96FAABE9ABC201885A9F4F72
:103F50009CAB8BABF2017296FCA7EBA7C201469615
:103F60009EA78DA722243324F2017E96F8ABEFA7FB
:103F7000670179C1872D962D0E94610583339105D4
:103F800009F429C18433910594F48130910589F1B4
:103F90008230910524F4009709F465C157C183303C
:103FA0009105A1F18630910509F050C14FC08A33C7
:103FB000910509F4A1C08B33910544F48533910533
:103FC00071F08633910509F041C160C08B339105D2
:103FD00009F4C9C08F3F910509F038C144C1872D4C
:103FE000962D0E946105872D962D0E946105882ED1
:103FF0003AC1872D962D0E946105872D962D6BA5C0
:104000007CA544E050E00E943B052DC1872D962DF4
:104010000E946105082F872D962D6DA57EA544E091
:1040200050E00E943B0510E00450104010161106AD
:104030000CF019C17101872D962D0E94610508941D
:10404000E11CF11CE016F106B4F30DC1872D962D8D
:104050000E946105082F872D962D6FA578A944E051
:1040600050E00E943B0510E004501040101611066D
:104070000CF0F9C07101872D962D0E9461050894FE
:10408000E11CF11CE016F106B4F3EDC0872D962D6E
:104090000E946105182FF201828D938DA48DB58D3C
:1040A0000097A105B105A9F0CE01019669A97AA9E9
:1040B0000E94C8108B819C81AD81BE81EBA9FCA9B7
:1040C000408151816281738184179507A607B707E4
:1040D00049F4872D962D69A97AA944E050E00E9401
:1040E0003B05C1C0112309F4BEC0872D962D0E9447
:1040F00061051150D1F7B7C0872D962D0E9461053B
:10410000872D962DB50144E050E00E943B05F20159
:1041100006A117A120A531A5832F9927AA27BB2780
:10412000702F662755274427482B592B6A2B7B2B4A
:10413000B22FA12F902F882780709070B070482BDD
:10414000592B6A2B7B2BBB27A32F922F812F80709B
:10415000A070B070842B952BA62BB72B86A397A3AA
:10416000A0A7B1A780C0872D962D0E946105872D3D
:10417000962D69A57AA544E050E00E943B05F20126
:1041800002A513A524A535A5832F9927AA27BB2708
:10419000702F662755274427482B592B6A2B7B2BDA
:1041A000B22FA12F902F882780709070B070482B6D
:1041B000592B6A2B7B2BBB27A32F922F812F80702B
:1041C000A070B070842B952BA62BB72B82A793A73A
:1041D000A4A7B5A748C0872D962D0E946105872DFD
:1041E000962DB60144E050E00E943B05F20102A189
:1041F00013A124A135A1832F9927AA27BB27702FAC
:10420000662755274427482B592B6A2B7B2BB22F27
:10421000A12F902F882780709070B070482B592B59
:104220006A2B7B2BBB27A32F922F812F8070A0702E
:10423000B070842B952BA62BB72B82A393A3A4A39A
:10424000B5A386A797A7A0ABB1AB0DC0872D962DC0
:104250000E946105182F882331F0872D962D0E942A
:1042600061051150D1F7872D962D0E94C3041816B1
:1042700019060CF47FCE03C0882401C08824872D42
:10428000962D0E94DD0402C088248A94882DE4962D
:104290000FB6F894DEBF0FBECDBFDF91CF911F9157
:1042A0000F91FF90EF90DF90CF90BF90AF909F90D5
:1042B0008F907F906F905F904F903F902F900895D8
:1042C000CF93DF93EC01625F7F4F0E94C810CE0155
:1042D000DF91CF910895CF93DF93EC016E5E7F4F16
:1042E0000E94C810CE01DF91CF910895CF93DF9344
:1042F000EC016A5E7F4F0E94C810CE01DF91CF9122
:104300000895CF93DF93EC01665E7F4F0E94C81043
:10431000CE01DF91CF910895CF93DF93EC01625EE0
:104320007F4F0E94C810CE01DF91CF91089580E3A6
:10433000FB018083329601C0482F842F82958F70B5
:104340004F704A3010F4405D01C0495C42938823AD
:1043500099F708959F92AF92BF92CF92DF92EF921A
:10436000FF920F931F93CF93DF93CDB7DEB7AC9738
:104370000FB6F894DEBF0FBECDBF5C01962ED42ED3
:10438000C52E80E2FE013D96DF011D928A95E9F778
:10439000CE0107966FEF4FEF2FEF0FEF0E94B21095
:1043A0000F2EF7E4EF2EFF24F02DEA0CFB1C83EA1E
:1043B00091E09A83898389859A85AB85BC858B83B7
:1043C0009C83AD83BE83C701BE016F5F7F4F43E413
:1043D00050E00E94F405BFEF8F3F9B0709F4F3C044
:1043E00081E08D878E8786E08F87188AF5010481AA
:1043F000158126813781432F552766277727B02FD0
:10440000AA2799278827482B592B6A2B7B2BB22F59
:10441000A12F902F882780709070B070842B952BDF
:10442000A62BB72B012F122F232F332700702070BC
:104430003070802B912BA22BB32B898B9A8BAB8B5B
:10444000BC8BCD8ADE8A80E890E0988F8F8B8E01BE
:10445000035F1F4FC701B8014CE150E00E94DA052D
:1044600080E2D8011D928A95E9F7CC24DD24689476
:10447000C3F8CA0CDB1CF801D60186E00D9001924E
:104480008150E1F78E01035F1F4FC701B80140E182
:1044900050E00E94DA0580E2F80111928A95E9F76E
:1044A00006E010E0C701BE01635F7F4F40E250E0CD
:1044B0000E94DA0501501040A9F783E68D8792E843
:1044C0009E8793E59F87888B85E3898B81E08A8B24
:1044D0009B8A9DE39C8B97E09D8B8E8BFE0177964C
:1044E000D60186E00D9001928150E1F78CE08D8F2E
:1044F0008E8FFE017F96A6EBB1E087E00D900192D2
:104500008150E1F7C501BE016B5D7F4FD5011B9660
:104510004C910E949721C501BE01695D7F4FF50155
:1045200044850E949721C501BE01675D7F4FD5017B
:104530001D964C910E949721C701BE01635F7F4F7A
:104540004EE150E00E94DA05B3E09B1601F582E3EC
:104550008D8784E08E87F50196859F879785988B58
:104560009089998B91899A8B96E39B8B8C8B828D0A
:104570008D8B838D8E8B848D8F8B858D888FC701DE
:10458000BE01635F7F4F4CE050E00E94DA0587E395
:104590008D8786E08E8791E09F8793E0988B898B4B
:1045A0008FE08A8B8AE38B8B8BE38C8B8FEF8D8BE9
:1045B000C701BE01635F7F4F49E050E00E94DA050A
:1045C000C7010E94EF05AC960FB6F894DEBF0FBE90
:1045D000CDBFDF91CF911F910F91FF90EF90DF90B2
:1045E000CF90BF90AF909F9008952F923F924F929F
:1045F0005F926F927F928F929F92AF92BF92CF9273
:10460000DF92EF92FF920F931F93CF93DF93CDB77B
:10461000DEB72A970FB6F894DEBF0FBECDBF8C0170
:1046200061E070E080E090E020ED37E040E050E0B5
:104630000E946229D80114966C93149715967C9366
:10464000159716968C93169717969C9317976C93BD
:1046500011967C93119712968C93129713969C93B4
:10466000F801E95BFF4FF887EF83CF0164E470E066
:104670000E941206882309F441C10E9402154B01D1
:104680005C01CC24DD24FF240F2EF6E46F2E77246A
:10469000F02D600E711EEE24C801CE969A87898790
:1046A0000F2EF8EE2F2EF3E03F2EF0E04F2EF0E02D
:1046B0005F2EF02D7E826D8238010F2D08C1882378
:1046C00021F5F30184819581A681B7810196A11D11
:1046D000B11D84839583A683B7830E940215DC01F4
:1046E000CB0188199909AA09BB09BC01CD01A20116
:1046F00091010E940334C30161E0A9010E94AA2133
:1047000081E0AD81BE818C93C6C0843021F5F30178
:1047100084819581A681B7810196A11DB11D8483F5
:104720009583A683B7830E940215DC01CB0188190B
:104730009909AA09BB09BC01CD01A20191010E94FE
:104740000334C30163E0A9010E94AA21E2E0AD8124
:10475000BE81EC93A0C0813089F5A985BA854D91C1
:104760005D916D917C91C3019E012F5F3F4F0E942F
:10477000D01E082F823009F08EC089819A81AB81CA
:10478000BC81F30184839583A683B7830E940215BD
:10479000DC01CB0188199909AA09BB09BC01CD012B
:1047A000A20191010E940334C30163E0A9010E94A8
:1047B000AA21E2E0AD81BE81EC9373C0823009F0A2
:1047C0006AC0A985BA854D915D916D917C91C301B7
:1047D0009E012F5F3F4F0E94D01E082F853009F0A9
:1047E00054C083E0ED81FE818083F30182A193A117
:1047F000A4A1B5A10097A105B10541F484E893E017
:10480000A0E0B0E082A393A3A4A3B5A3F30186A183
:1048100097A1A0A5B1A50097A105B10561F482A15A
:1048200093A1A4A1B5A1B695A7959795879586A3C1
:1048300097A3A0A7B1A7F30182A593A5A4A5B5A5A9
:104840000097A105B10561F486A197A1A0A5B1A526
:10485000880F991FAA1FBB1F82A793A7A4A7B5A75C
:10486000F30186A197A1A0A5B1A586A797A7A0ABA4
:10487000B1AB82A593A5A4A5B5A582AB93ABA4AB20
:10488000B5ABCC24DD24C39406C0863021F4AD81C1
:10489000BE811C9206C00F3F21F4ED81FE81108283
:1048A0000E2DF1E0CF16D10491F00E940215DC012B
:1048B000CB0188199909AA09BB09F30142AD53AD8F
:1048C00064AD75AD481759076A077B0730F0AD81B5
:1048D000BE818C91833009F0F2CE8F8198850E9441
:1048E000FD05F30184819581A681B7810196A11D03
:1048F000B11D84839583A683B78302C0CC24DD24B5
:104900008C2D9D2D2A960FB6F894DEBF0FBECDBF1D
:10491000DF91CF911F910F91FF90EF90DF90CF909B
:10492000BF90AF909F908F907F906F905F904F90CF
:104930003F902F9008956F927F928F929F92AF92A7
:10494000BF92CF92DF92EF92FF920F931F93CF937C
:10495000DF93EC010E940215C62ED72EE82EF92E09
:104960008EA99FA9A8ADB9AD0097A105B10509F41D
:10497000A2C0FE01EE5BFF4F80819181A281B381D5
:10498000A7019601281B390B4A0B5B0BCA01B90121
:104990000AF45AC03F010F2EF8EE8F2EF3E09F2E3F
:1049A000F0E0AF2EF0E0BF2EF02D8C0C9D1CAE1C65
:1049B000BF1C28EE33E040E050E00E94253489011E
:1049C0009A01DC01CB01B501A401481B590B6A0B0C
:1049D0007B0BF30140835183628373830F5F1F4F0F
:1049E0002F4F3F4F4EA55FA568A979A9D901C801EE
:1049F000880F991FAA1FBB1F481759076A077B0713
:104A00002CF41EA61FA618AA19AA08C0401B510BF9
:104A1000620B730B4EA75FA768AB79AB4AA95BA982
:104A20006CA97DA9481759076A077B072CF41AAAB5
:104A30001BAA1CAA1DAA08C0401B510B620B730BBA
:104A40004AAB5BAB6CAB7DABFE01EA5BFF4F2081F9
:104A50002330A9F48EA59FA5A8A9B9A918161906EF
:104A60001A061B068CF08F0184E08083CE010E9421
:104A7000F5220196F8012081233041F002C080E048
:104A800090E0222319F026C080E090E04AA95BA9BB
:104A90006CA97DA91416150616061706DCF0FE0192
:104AA000EA5BFF4F1082CE010E94C61ECE010E941B
:104AB000F52203960FC0FE01EE5BFF4FD701C60142
:104AC00088519C4FAF4FBF4F80839183A283B383A4
:104AD00080E090E0CEAADFAAE8AEF9AEDF91CF91F8
:104AE0001F910F91FF90EF90DF90CF90BF90AF900C
:104AF0009F908F907F906F900895AF92BF92CF92CA
:104B0000DF92EF92FF920F931F93CF93DF936C018D
:104B1000B62EA72EDA01C901F60112A213A214A221
:104B200015A216A217A210A611A612A613A614A6C5
:104B300015A616AA17AA10AE11AE82AF93AFA4AFF6
:104B4000B5AFFE96E082F18202831383E6012896D8
:104B500086E0FE0111928A95E9F7C6010E94C61E01
:104B6000EB2DFA2D86E0019009928150E1F7F601D4
:104B7000EA5BFF4F1082C6010E94F522DF91CF91C0
:104B80001F910F91FF90EF90DF90CF90BF90AF906B
:104B900008950F9380EE94E060E040E020E000E0B4
:104BA0000E94B2100F910895CF93DF93FC01EB01A7
:104BB0008A819B81AC81BD8182839383A483B583E9
:104BC00017821682DF91CF9108950F931F93CF9391
:104BD000DF93DB01EA018C91882329F0FB013196F8
:104BE00081918823E9F780E090E040E050E000E028
:104BF00010E01CC08F3F910509F054F5FE01E40F51
:104C0000F51F82834F5F5F4FC80110C09C01220FC8
:104C1000331F880F991F880F991F880F991F280F1E
:104C2000391F862F90E0C097820F931F6D916623E6
:104C3000E1F044305105CCF46E3241F7DBCF443023
:104C400051054CF4C40FD51F8A8381E090E008C061
:104C500080E090E005C080E090E002C080E090E05D
:104C6000DF91CF911F910F9108958F3F910539F3F7
:104C700034F3F4CFAF92BF92CF92DF92EF92FF92D4
:104C80000F931F93CF93DF9300D00F92CDB7DEB772
:104C90008C017B010E940215DC01CB01F801978396
:104CA0008683AA24BB246894A3F8A00EB11EB80181
:104CB0006A5F7F4FC50142E050E00E94DA0581E063
:104CC00090E09B838A83C501BE016E5F7F4F42E007
:104CD00050E00E94DA0580E091E09B838A83C50161
:104CE000BE016E5F7F4F42E050E00E94DA051B82FA
:104CF0001A82C501BE016E5F7F4F42E050E00E9404
:104D0000DA05C501BE016E5F7F4F42E050E00E94B0
:104D1000DA05C501BE016E5F7F4F42E050E00E94A0
:104D2000DA05F7018081882311F527C07F01819181
:104D3000882309F451C08E32C9F74EC00983C501DA
:104D4000BE016F5F7F4F41E050E00E94DA05C50170
:104D5000B601A8010E94DA05F7018081882369F075
:104D600067010894C11CD11C9C2D8D2D03C06701C7
:104D70009E2D8F2DE92FF82FD9CF1982C501BE01A5
:104D80006F5F7F4F41E050E00E94DA0500E011E0E4
:104D90001B830A83C501BE016E5F7F4F42E050E076
:104DA0000E94DA051B830A83C501BE016E5F7F4F37
:104DB00042E050E00E94DA0581E090E00F900F9011
:104DC0000F90DF91CF911F910F91FF90EF90DF90A7
:104DD000CF90BF90AF90089587010C191D09101650
:104DE00011060CF4ABCFB8CF2F923F924F925F9247
:104DF0006F927F928F929F92AF92BF92CF92DF92EB
:104E0000EF92FF920F931F93CF93DF93CDB7DEB74F
:104E100063970FB6F894DEBF0FBECDBF6C018B0158
:104E20001A010E9402152B013C01EE24FF24689414
:104E3000E3F8EC0CFD1C4801AA24BB2414C00E941A
:104E40000215DC01CB0184199509A609B70988165A
:104E50009906AA06BB0608F43BC162E370E080E055
:104E600090E00E943E150E2D1F2DC7010E948D055A
:104E70001816190624F7F601428153816481758161
:104E8000818D928DA38DB48D481759076A077B07D2
:104E900009F021C1858D968D8533910509F01EC1DC
:104EA0008E2D9F2D0E94C3048C3091050CF419C1E6
:104EB0008E2D9F2DBE01685F7F4F4CE050E00E9419
:104EC0003B058A859B85582F492F5F834E83F601CA
:104ED00026813781888599852817390711F455234C
:104EE0003CF0802F912F0E94DD048CEF9FEFFBC0E0
:104EF0004F7052704115510539F08E2D9F2D0E9433
:104F0000DD048BEF9FEFEFC08E849F84982489246B
:104F100098248114910459F08C859D85009771F433
:104F2000CC24DD2444245524689442F83EC08E2DC0
:104F30009F2D0E94DD048AEF9FEFD5C0CC24DD2495
:104F400044245524689442F8802F912FBE016F5F4E
:104F50007F4F41E050E00E943B058981882371F03A
:104F600081508983802F912F0E9461058981982F1C
:104F7000915099838823B1F7992331F77201802FDB
:104F8000912F0E9461050894E108F108E114F104F1
:104F9000B1F70894C11CD11C8C859D859827892761
:104FA0009827C816D90680F2BBCF802F912FBE015B
:104FB0006F5F7F4F41E050E00E943B058981982F51
:104FC000907C79F48823A9F081508983802F912FD8
:104FD0000E9461058981982F915099838823B1F7A8
:104FE00006C0802F912F0E946105198202C099236B
:104FF000E1F6802F912FBE016C5F7F4F42E050E0C1
:105000000E943B05802F912FBE016E5F7F4F42E0D3
:1050100050E00E943B057201802F912F0E94610594
:105020000894E108F108E114F104B1F7802F912F01
:10503000BE016A5F7F4F42E050E00E943B058C81D9
:105040009D81F1E080309F0729F08E819F8100973C
:1050500001F530C08A819B8121E080309207A9F759
:105060008E819F81E4E080309E0739F0802F912F60
:105070000E94DD0487EF9FEF36C0B1016E5F7F4F66
:10508000802F912F44E050E00E943B0581E090E0AA
:105090002AC0EE24FF24802F912F0E9461050894DE
:1050A000E11CF11C8E819F81982789279827E8169B
:1050B000F90688F30894C11CD11CC814D90409F05E
:1050C00074CF802F912F0E94DD0486EF9FEF0BC0DD
:1050D0008FEF9FEF08C08EEF9FEF05C08EEF9FEF21
:1050E00002C08DEF9FEF63960FB6F894DEBF0FBE40
:1050F000CDBFDF91CF911F910F91FF90EF90DF9087
:10510000CF90BF90AF909F908F907F906F905F9067
:105110004F903F902F9008958F929F92AF92BF92A1
:10512000CF92DF92EF92FF920F931F93CF93DF9373
:1051300000D000D000D0CDB7DEB77C016B015A01A2
:105140000E94E525009709F069C0F70182819381EB
:10515000A481B5814091E8045091E9046091EA048A
:105160007091EB0484179507A607B70709F459C097
:1051700088249924689483F88E0C9F1C0E94021541
:105180006F70707060507C4FC4010E9412068130B5
:1051900009F04AC083EA91E09A838983F70182810A
:1051A0009381A481B5818B839C83AD83BE83C4012D
:1051B000BE016F5F7F4F45E350E00E94F4058C0114
:1051C000009741F1C701B6010E943A26082F192F16
:1051D00001151105F9F0C4010E94EF058C0100973B
:1051E00031F418C0FFEF0F3F1F07A1F405C00F2EC9
:1051F000F3E0CF2EDD24F02DC70168E873E1A501AF
:105200000E94F426082F192F0894C108D108C11450
:10521000D10441F7C4010E94FD0508C001E010E07F
:1052200005C00EEF1FEF02C000E010E0802F912FAD
:1052300026960FB6F894DEBF0FBECDBFDF91CF919B
:105240001F910F91FF90EF90DF90CF90BF90AF90A4
:105250009F908F9008950F9386EE94E060E040E079
:1052600020E000E00E94B2100F910895009729F00D
:10527000BC0180E090E00E94C8350895CF92DF9293
:10528000EF92FF920F931F936B017C0161157105E3
:105290008105910549F00E94C335A70196010E943E
:1052A00025348B019C0103C000E010E09801602FC1
:1052B000712F822F932F1F910F91FF90EF90DF900E
:1052C000CF900895CF92DF92EF92FF926B017C0115
:1052D000DA01C901C216D306E406F50674F48C1986
:1052E0009D09AE09BF09BC01CD010E943E29DC0128
:1052F000CB01C80ED91EEA1EFB1E6C2D7D2D8E2DF6
:105300009F2DFF90EF90DF90CF9008954F925F9286
:105310006F927F92AF92BF92CF92DF92EF92FF9205
:105320000F931F93CF93DF9300D000D0CDB7DEB79C
:1053300029013A01E982FA820B831C837601650117
:10534000621B730B840B950B2D893E894F89588DF9
:105350002C193D094E095F090E94E43329813A81E5
:105360004B815C8124193509460957090E9425346F
:10537000C20ED31EE41EF51E6C2D7D2D8E2D9F2D8D
:105380000F900F900F900F90DF91CF911F910F9181
:10539000FF90EF90DF90CF90BF90AF907F906F9095
:1053A0005F904F900895089570E0382F20E0262BED
:1053B000372B822F932F0895FC01138A128A0895A8
:1053C0000E94DC2908952F923F924F925F926F9234
:1053D0007F928F929F92AF92BF92CF92DF92EF9285
:1053E000FF920F931F93CF93DF9300D000D00F92C3
:1053F000CDB7DEB74C013B01842F952FFB01E80FA1
:10540000F91F208101969A838983243009F087C08F
:10541000CB01BE016F5F7F4F0E94292DD4015196B1
:105420009C938E93509729813A81F301E20FF31FE9
:105430004081C9010396423009F071C0860D971D65
:10544000FC0180812C5F3F4F3A832983282F30E075
:105450003C832B83121613060CF061C044245524A0
:10546000A82C9D8289819A81F301E80FF91FB080F1
:1054700001969A838983C301BE016F5F7F4F0E94AB
:10548000292D1C01D40152968D919C915397181689
:105490001906B4F50A2D1D81EE24FF246801D801F8
:1054A000ED91FC91119782818B15F9F4838188230A
:1054B00079F4B1E0B38388E294E06DEB71E00E948F
:1054C000B21188E294E06B2D4AE050E00E94001394
:1054D000F60180819181DC01ED91FC9149815A8135
:1054E0000190F081E02DB30109950894E11CF11CB5
:1054F0000E5F1F4FF40182899389E816F90674F252
:1055000089819A81820D931D9A8389830894411C15
:10551000511C2B813C81421653060CF4A3CF0F90F3
:105520000F900F900F900F90DF91CF911F910F91DF
:10553000FF90EF90DF90CF90BF90AF909F908F90B3
:105540007F906F905F904F903F902F9008954F9273
:105550005F926F927F928F929F92AF92BF92CF9203
:10556000DF92EF92FF920F931F93CF93DF933C0153
:105570004B015A01DA014D915C911197FB01E40F47
:10558000F51F84E080834F5F5F4F4D935C93F30181
:1055900060897189C4010E94E630D5012D913C914A
:1055A0001197F401E20FF31F83E082830F2EF3E0E3
:1055B0004F2E5524F02D420E531EC90105968D9392
:1055C0009C93880D991DF3014289DC014C93C9011C
:1055D0000696F50191838083D30152968D919C911B
:1055E000539718161906E4F58301EE24FF24F501FC
:1055F00080819181D801ED91FC912281F401E80F25
:10560000F91F20836C010894C11CD11CEC01239666
:10561000F501D183C083F801A191B1918F01139657
:105620008C911397882351F0ED91FC911197028092
:10563000F381E02DCD01B401A5010995D5016D914E
:105640007C916C1B7D0BC401A6010E94E63008947E
:10565000E11CF11CF30182899389E816F9063CF2FA
:10566000D5016D917C9164197509C401A2010E9454
:10567000E630DF91CF911F910F91FF90EF90DF9077
:10568000CF90BF90AF909F908F907F906F905F90E2
:105690004F900895DF92EF92FF920F931F93CF9355
:1056A000DF937C01D62EFC01828993891816190696
:1056B000E4F48701C0E0D0E0F801A191B1918F013D
:1056C00013968C911397882349F0ED91FC911197D3
:1056D0000480F581E02DCD016D2D09952196F7010E
:1056E00082899389C817D9073CF3DF91CF911F9125
:1056F0000F91FF90EF90DF900895EF92FF920F933C
:105700001F93CF93DF938C017B01FC0182899389E6
:1057100088309105E4F4FC01EE0FFF1FE00FF11F4C
:10572000718360830196F801938B828BC8E2D4E089
:10573000CE0160ED71E00E94B211F7016281CE01ED
:1057400070E04AE050E00E946A1381E010C0C8E2B5
:10575000D4E0CE016FED71E00E94B211F8016289D0
:105760007389CE014AE050E00E94601380E0DF912F
:10577000CF911F910F91FF90EF900895640F751FC7
:10578000FB012081FC01208708950895CF93DF93CA
:10579000EC010E944B3186EF91E0998388831A8255
:1057A0008DE090E09F838E83188681E08B838DE06F
:1057B00061E00E94D915DF91CF910895CF93DF93D7
:1057C000EC010E94021520E931E040E050E00E9427
:1057D0000334DC01CB0184369105A105B10528F421
:1057E0008E8161E00E940D1604C08E8160E00E94EF
:1057F0000D16DF91CF910895CF93DF93EC010E94B6
:10580000021528EC30E040E050E00E940334DC0157
:10581000CB0184369105A105B10528F48E8161E0A4
:105820000E940D1604C08E8160E00E940D16DF916B
:10583000CF910895CF93DF93EC010E94021524E8E5
:1058400033E040E050E00E940334DC01CB018436B9
:105850009105A105B10528F48E8161E00E940D1625
:1058600004C08E8160E00E940D16DF91CF910895F3
:10587000CF93DF93EC010E94021520EB34E040E06F
:1058800050E00E940334DC01CB0182339105A10575
:10589000B10528F48E8160E00E940D1618C086398B
:1058A0009105A105B10528F48E8161E00E940D16D5
:1058B0000EC0883C9105A105B10528F48E8160E0F9
:1058C0000E940D1604C08E8161E00E940D16DF91CA
:1058D000CF910895CF93DF93EC010E94021520ED44
:1058E00037E040E050E00E940334DC01CB01883E09
:1058F00023E0920720E0A20720E0B20728F48E817F
:1059000061E00E940D1604C08E8160E00E940D16B9
:10591000DF91CF9108950E946A2C0895CF93DF9371
:10592000EC010E94021520EB34E040E050E00E94C0
:105930000334DC01CB0182339105A105B10528F4C4
:105940008E8160E00E940D1632C086399105A10556
:10595000B10528F48E8161E00E940D1628C08A3FAF
:105960009105A105B10528F48E8160E00E940D1615
:105970001EC08E3521E0920720E0A20720E0B2078A
:1059800028F48E8161E00E940D1611C0803921E05B
:10599000920720E0A20720E0B20728F48E8160E0A1
:1059A0000E940D1604C08E8161E00E940D16DF91E9
:1059B000CF910895CF93DF93EC01662329F00E94E5
:1059C000FC2B8FEF888727C088858230C9F0833011
:1059D00028F4882369F08130F1F40EC08430C1F0DE
:1059E000843090F08F3FB9F4CE010E94DE2B13C0BB
:1059F000CE010E941A2C0FC0CE010E94382C0BC081
:105A0000CE010E946A2C07C0CE010E948E2C03C0DA
:105A1000CE010E948B2CDF91CF9108951F93CF93DD
:105A2000DF93EC01162F0E941E31CE01612F0E94E0
:105A3000DA2CDF91CF911F910895FB0120813181F4
:105A4000DC01A20FB31F8C912F5F3F4F3183208366
:105A50000895DB012D913C911197FC01E20FF31F9A
:105A6000918180E04081840F911D2E5F3F4F119600
:105A70003C932E9308950F931F93CF93DF93EB01E5
:105A800048815981FC01E40FF51F838190E0A0E07B
:105A9000B0E0B82FAA2799278827028110E020E0DC
:105AA00030E0980111270027080F191F2A1F3B1FFC
:105AB0008081080F111D211D311D818190E0A0E022
:105AC000B0E0BA2FA92F982F8827080F191F2A1F77
:105AD0003B1F4C5F5F4F59834883602F712F822F8C
