:100000000C9409010C943A010C943A010C943A01B5
:100010000C943A010C943A010C943A010C943A0174
:100020000C943A010C943A010C943A010C943A0164
:100030000C943A010C943A010C943A010C943A0154
:100040000C943A010C943A010C943A010C943A0144
:100050000C943A010C943A010C943A010C946517F3
:100060000C943A010C94E50E0C94E50F0C943A01B3
:100070000C943A010C943A010C943A010C943A0114
:100080000C943A010C943A010C943A010C943A0104
:100090000C941D0F0C9424100C943A010C943A010A
:1000A0000C943A010C943A010C943A010C943A01E4
:1000B0000C943A010C943A010C943A010C943A01D4
:1000C0000C943A010C943A010C943A010C94550F9B
:1000D0000C9463100C943A010C948D0F0C94A210A4
:1000E0000C943A010000090A02080B0C0D070603E4
:1000F00004010000000000000000000000000000FB
:1001000000000000000000000000000000000000EF
:1001100011100F00000000000000000000000000AF
:100120000000000000000000000001021020200874
:100130000810204010204080020102010804020142
:1001400001020408102040808040201008040201B1
:10015000800402018040201008040201080402010A
:100160000102040810204080010204081020408091
:1001700005050505070508080808020202020A0A23
:100180000808040404040101010101010101030341
:10019000030303030303040707070C0C0C0C0C0CEC
:1001A0000C0C0202020206060606060606060B0BE9
:1001B0000B0B0B0B0B0B000020002300260029006B
:1001C0002C002F003200000100000301060109018C
:1001D00000002200250028002B002E0031003400F2
:1001E00002010000050108010B01000021002400AC
:1001F00027002A002D003000330001010000040117
:1002000007010A017A02420569074E12AA13E5287E
:10021000452C11241FBECFEFD1E2DEBFCDBF00E0E1
:100220000CBF13E0A0E0B2E0E6EDF6E700E00BBFA4
:1002300002C007900D92A831B107D9F717E0A8E1E5
:10024000B3E001C01D92A53EB107E1F712E0C2E1A3
:10025000D2E000E006C022970109FE010BBF0E9418
:100260005A37C430D10780E00807A9F70E9473020B
:100270000C94693B0C940000EF92FF920F931F9334
:10028000CF93DF930E941E1885E895E040E052EC82
:1002900061E070E00E94201189E090E00E94B513B7
:1002A0008C010E94E02E80912203882341F086EF8A
:1002B00094E06CE173E00E9496027C0103C0EE249E
:1002C000EA94FE2CC1E4D3E060912A0370912B03E1
:1002D000CE010E94BC06689781E0E114F10409F0A8
:1002E00080E088838DE293E0B8010E94972E85E834
:1002F00095E060E072E00E94BD14DF91CF911F9104
:100300000F91FF90EF9008954F925F926F927F92BE
:100310008F929F92AF92BF92CF92DF92EF92FF9215
:100320000F931F93CF93DF93CDB7DEB728970FB608
:10033000F894DEBF0FBECDBF0E94AF172B013C016A
:100340008091EC049091ED04A091EE04B091EF0443
:10035000481659066A067B0640F41092EC04109287
:10036000ED041092EE041092EF0481E493E00E94F9
:1003700037068C01181619060CF06DC00F2EF5E823
:10038000AF2EF5E0BF2EF02DC50167E072E00E94B0
:100390005F14C501B8014AE050E00E940D160F2E0F
:1003A000F1E4CF2EF3E0DF2EF02D0F2EFBE1EF2E48
:1003B000FF24F02DEC0CFD1CC601B70148EC50E009
:1003C0000E94E5050F2EFCEE8F2EFFEF9F2EF02DE5
:1003D0008C0C9D1CC401B70140E050E098010E94C4
:1003E000FD2C18861F8204E214E0C401B801AE019E
:1003F000495F5F4F0E94C12DC50161E172E00E941B
:100400005F146F817885C5014AE050E00E94931522
:1004100083EA92E09A8389838091520390915303F7
:10042000A0915403B09155038B839C83AD83BE830D
:100430004091560350915703C601BE016F5F7F4F35
:100440000E949E064F815885C601B8010E9484060D
:10045000C6010E9499068091EC049091ED04A09150
:10046000EE04B091EF048C509E4FAF4FBF4F61E050
:1004700084159505A605B70508F060E060932C0388
:100480008DE293E00E94642E0E94AF17AB01BC0185
:100490008091180390911903A0911A03B0911B0346
:1004A0000097A105B10541F4409318035093190337
:1004B00060931A0370931B0328960FB6F894DEBF5F
:1004C0000FBECDBFDF91CF911F910F91FF90EF90A5
:1004D000DF90CF90BF90AF909F908F907F906F9064
:1004E0005F904F9008950E941E180E943C010E9448
:1004F0008401FDCF0F93CF93DF9380EF94E060E012
:1005000040E020E000E00E945F13C3E2D3E0CE01B0
:100510000E945513CE010A960E94FA2CCE014E96E7
:100520000E94F506DF91CF910F910895CF92DF924F
:10053000EF92FF920F931F93CF93DF93CDB7DEB768
:100540006E970FB6F894DEBF0FBECDBF6C017B0176
:1005500082E690E00E94B5138C0182E6F8011192C8
:100560008A95E9F7C801895B9F4F0E94F506F6015D
:100570001783068388E195E00E94AB0B89E090E049
:10058000B70146E050E00E94E90BCE01499660E0D9
:1005900040E020E000E00E945F138FE090E0BE01A9
:1005A000655E7F4F44E050E00E94E90BF6018681D2
:1005B0009781B70120E63AEE40E050E00F2EF0EAD6
:1005C000EF2EFFE0FF2EF0E00F2FF0E01F2FF02DB9
:1005D0000E9499288C018130910509F040C0F601F4
:1005E00066817781CE0143960E947C248FE090E063
:1005F000BE016B5E7F4F44E050E00E94E90BF601C4
:1006000066817781CE010D960E94922481E090E070
:10061000BE01615F7F4F44E050E00E94E90BF601AC
:1006200066817781CE0107960E94872485E090E05D
:10063000BE01675F7F4F44E050E00E94E90BF60186
:1006400066817781CE0101960E94A8248B819C81CE
:10065000AD81BE81F60182839383A483B583802F0D
:10066000912F6E960FB6F894DEBF0FBECDBFDF910F
:10067000CF911F910F91FF90EF90DF90CF90089551
:100680008F929F92AF92BF92CF92DF92EF92FF92A2
:100690000F931F93CF93DF934C016B01EA01590134
:1006A00088E195E00E94AB0B89E090E0B60146E05E
:1006B00050E00E94E90BBE016E5F7F4F8FE090E03B
:1006C00044E050E00E94E90BB8016E5F7F4F81E08B
:1006D00090E044E050E00E94E90BB7016E5F7F4F6D
:1006E00085E090E044E050E00E94E90BF501828152
:1006F0009381A481B581F40182839383A483B5831C
:10070000DF91CF911F910F91FF90EF90DF90CF90ED
:10071000BF90AF909F908F9008956F927F928F922D
:100720009F92AF92BF92CF92DF92EF92FF920F9380
:100730001F93CF93DF93CDB7DEB76E970FB6F894C4
:10074000DEBF0FBECDBF4C013B017A0169015801EC
:10075000CE0149966FEF4FEF2FEF00E00E945F133D
:1007600023EA32E03C8B2B8BF70182819381A481B9
:10077000B5818D8B9E8BAF8BB88F3E872D87F60111
:1007800082819381A481B5818F87988BA98BBA8B45
:1007900038872F83F50182819381A481B581898770
:1007A0009A87AB87BC873A8329838B8D9C8DAD8DCF
:1007B000BE8D8B839C83AD83BE83C401B301AE0128
:1007C0004D5E5F4F9E01235F3F4F8E01095F1F4FBC
:1007D0007E010894E11CF11C0E9440036E960FB646
:1007E000F894DEBF0FBECDBFDF91CF911F910F9167
:1007F000FF90EF90DF90CF90BF90AF909F908F9041
:100800007F906F900895EF92FF920F931F93CF9375
:10081000DF93CDB7DEB768970FB6F894DEBF0FBE93
:10082000CDBF7B01DA0112964D915D916D917C9166
:1008300015974D8B5E8B6F8B788FE3EAF2E0FE8726
:10084000ED874F87588B698B7A8BF887EF83D901B7
:1008500012960D911D912D913C91159709871A873C
:100860002B873C87FA83E9834B835C836D837E838C
:1008700021E02E83B701AE01435F5F4F9E01295FE8
:100880003F4F8E010F5F1F4F0E948D0368960FB67A
:10089000F894DEBF0FBECDBFDF91CF911F910F91B6
:1008A000FF90EF900895CF93DF93CDB7DEB76297B7
:1008B0000FB6F894DEBF0FBECDBFFB01DA01129672
:1008C0004D915D916D917C9115974F87588B698BF8
:1008D0007A8B23EA32E038872F8349875A876B87E0
:1008E0007C873A8329834B835C836D837E8321E0FD
:1008F0002E83BF01AE01495F5F4F9E012F5F3F4FC7
:100900000E94030462960FB6F894DEBF0FBECDBFFF
:10091000DF91CF910895EF92FF920F931F93CF93A2
:10092000DF93CDB7DEB768970FB6F894DEBF0FBE82
:10093000CDBF7C01FC0186819781009709F44BC0F3
:100940000E94B7278C018230910521F084309105F7
:1009500009F043C0F70166817781CE0143960E947A
:100960007C248FE090E0BE016B5E7F4F44E050E05E
:100970000E94E90BF70166817781CE010D960E94F6
:10098000922481E090E0BE01615F7F4F44E050E03F
:100990000E94E90BF70166817781CE0107960E94DC
:1009A000872485E090E0BE01675F7F4F44E050E020
:1009B0000E94E90BF70166817781CE0101960E94C2
:1009C000A8248B819C81AD81BE81F70182839383B2
:1009D000A483B58302C000E010E0802F912F6896B9
:1009E0000FB6F894DEBF0FBECDBFDF91CF911F9140
:1009F0000F91FF90EF900895CF93DF93EC010E9449
:100A00005513BE016E5F7F4F8FE090E044E050E0F1
:100A10000E945C0DCE01DF91CF910895CF93DF93BB
:100A2000EC010E945513BE016E5F7F4F85E090E0A0
:100A300044E050E00E945C0DCE01DF91CF9108951B
:100A4000CF93DF93EC010E945513BE016E5F7F4F81
:100A500081E090E044E050E00E945C0DCE01DF9127
:100A6000CF91089523EA32E0FC0131832083FB011A
:100A70004281538164817581FC0142835383648385
:100A8000758308950F938AE095E060E040E020E0F0
:100A900000E00E945F1386EF94E00E9455130F91CF
:100AA0000895DC01ED91FC91008CF18DE02D1995FC
:100AB000089523EA32E0FC0131832083FB01418960
:100AC000528963897489FC014283538364837583EB
:100AD0000895FC01858996890895FC01818D928D88
:100AE0000895CF93DF930F92CDB7DEB76983DC0112
:100AF000ED91FC910280F381E02DBE016F5F7F4F8D
:100B000041E050E019950F90DF91CF910895CF9279
:100B1000DF92EF92FF920F931F93CF93DF93CDB7A6
:100B2000DEB78C01CDB6DEB6DC0159968D919C9175
:100B30005A97009719F1FDB6EEB6F801418D528D26
:100B40008DB79EB7841B950B0FB6F8949EBF0FBE52
:100B50008DBF6DB77EB76F5F7F4F0190F081E02D45
:100B6000008CF18DE02DC8011995FDBEEEBED801B7
:100B700059968D919C915A970097E9F60FB6F89483
:100B8000DEBE0FBECDBEDF91CF911F910F91FF90C2
:100B9000EF90DF90CF900895CF93DF930F92CDB772
:100BA000DEB7FC01818D928D009749F08485BE01EE
:100BB0006F5F7F4F0E94FE08898190E002C08FEF37
:100BC0009FEF0F90DF91CF910895CF93DF93EC01CA
:100BD0009A01498D5A8D41155105A9F02417350701
:100BE00020F08C850E94B30804C08C85A9010E9466
:100BF000B3081816190654F4298D3A8D281B390BA1
:100C00003A8F298F05C08FEF9FEF02C08FEF9FEFC4
:100C1000DF91CF9108950F931F93CF93DF930F929E
:100C2000CDB7DEB78C01FC01818D928D0097A1F0CC
:100C30008485BE016F5F7F4F41E050E00E94B308A2
:100C40001816190664F4F801818D928D0197928F20
:100C5000818F898190E005C08FEF9FEF02C08FEFF9
:100C60009FEF0F90DF91CF911F910F9108950F93F8
:100C70001F93CF93DF93CDB7DEB728970FB6F894C5
:100C8000DEBF0FBECDBF8C01DC01ED91FC91028473
:100C9000F385E02D199588E195E0F80164850E94BF
:100CA000760C009721F1D8011C968C91BE016F5FE4
:100CB0007F4F48E050E00E94B30818161906CCF4A4
:100CC000C8010F96BE016F5F7F4F0E9488139D8100
:100CD00080E02E81820F911DF801968B858B9F817C
:100CE00080E02885820F911D928F818F02C080E065
:100CF00090E028960FB6F894DEBF0FBECDBFDF910F
:100D0000CF911F910F910895CF93DF93EC019B0139
:100D1000FA016F89788D8C85A9019F010E94FB0AD9
:100D20002F89388D280F391F388F2F8BDF91CF9166
:100D30000895FC0184850E94670B0895FC01108EC4
:100D4000178A6E5F7F4F84850E942F0B0895CF9383
:100D5000DF93EC018C85843061F00E947407EC8590
:100D6000F0E0EE0FFF1FE250FB4F1182108284E093
:100D70008C87DF91CF910895CF92DF92EF92FF920F
:100D80001F93CF93DF937C016B01FC01848584303A
:100D900009F5C3E0D4E010E0CE010E94100C8823D6
:100DA00011F0883119F4F701148705C01F5FC05096
:100DB000DF4F143089F7F7018485843069F0D686D7
:100DC000C586128E118E62E0A60120E00E948B077C
:100DD00081E003C080E001C080E0DF91CF911F91EE
:100DE000FF90EF90DF90CF900895FC011382128264
:100DF00048EE53E060E070E0448355836683778378
:100E000085E292E09183808384E08487CF010F960E
:100E10000E9455130895CF92DF92EF92FF920F93A5
:100E20001F93CF93DF93CDB7DEB7E5970FB6F89456
:100E3000DEBF0FBECDBF7C018B016A01CE014396A0
:100E40000E945513CE014B960E94F506CE010D96D9
:100E50000E945513CE01079666EF74E00E9432059A
:100E6000CE014396BE01695F7F4F0E94F028CE01FC
:100E70004396B801AE01435F5F4F0E94A72B8130BC
:100E80009105C1F4D701ED91FC910088F189E02D25
:100E900083EA92E09A8389838F859889A989BA89A0
:100EA0008B839C83AD83BE83C701BE016F5F7F4F81
:100EB000A6011995E5960FB6F894DEBF0FBECDBF1B
:100EC000DF91CF911F910F91FF90EF90DF90CF9026
:100ED00008950F9380E195E060E040E020E000E0BD
:100EE0000E945F130F9108951F93CF93DF93182FE4
:100EF00088E195E0612F40E10E94290ED12F80E02A
:100F0000C82FCE018E5F9B4F6FEF0E94920BDF9137
:100F1000CF911F910895CF92DF92EF92FF921F938E
:100F2000CF93DF93182FC62F7A01D22F862F8150AF
:100F30008530B0F5812F0E947407812F90E00496D0
:100F4000D82ECC246D2F6C2BC6010E94920BE1147D
:100F5000F10459F0C60104966F2D0E94920BC60150
:100F600005966E2D0E94920B13C0C0911605D0916C
:100F700017052196D0931705C0931605C601049650
:100F80006D2F0E94920BC60105966C2F0E94920B4A
:100F900088E195E0612F41E00E94290E81E001C0C7
:100FA00080E0DF91CF911F91FF90EF90DF90CF9085
:100FB0000895CF93C82F382F20E0C9018D5F9B4F34
:100FC0000E94100C833141F488E195E06C2F42E0DF
:100FD0000E94290E81E001C080E0CF910895EF9238
:100FE000FF921F93CF93DF93182FFB017A0180812B
:100FF0008F3F51F481818F3F91F482818F3F79F44B
:1010000083818F3F61F42CC0882349F48181882338
:1010100031F48281882319F48381882319F1E11442
:10102000F10411F1C12FD0E02496DC2FCC27CE01A2
:101030000C96BF0144E050E00E94E90BCE014096BF
:101040006F2D0E94920BCE0141966E2D0E94920B45
:1010500088E195E0612F44E00E94290E81E005C0FF
:1010600080E003C080E001C080E0DF91CF911F915C
:10107000FF90EF900895682F88E195E048E00E9486
:10108000290E08956F927F928F929F92AF92BF9296
:10109000CF92DF92EF92FF920F931F93CF93DF9344
:1010A000F82E3B01A42EB52E81E0A81688E0B806E4
:1010B00020F0AA24BB246894B3F8CF2DD0E0249666
:1010C0009C2E882484010D5F1F4F0F2EF8E1CF2E38
:1010D000F5E0DF2EF02DC6016F2D0E94280CEC01EB
:1010E000C8010E94100C873111F08C3121F4CA150F
:1010F000DB0588F302C0AA24BB24C8E1D5E0CE01F9
:101100006F2DA30195010E94500DCE016F2D40E27D
:101110000E94290EE40122960BC0C8010E94100C07
:10112000882331F48F2D0E947407AA24BB240AC09F
:10113000CE010E94100C84FFF0CF8C2F9D2F60E118
:101140000E94920B8A2D9B2DDF91CF911F910F91C1
:10115000FF90EF90DF90CF90BF90AF909F908F90D7
:101160007F906F900895AF92BF92CF92DF92EF92EF
:10117000FF920F931F93CF93DF93182F6B01EA0118
:1011800088E195E0612F0E94760CE82EF92EE1149B
:10119000F10471F4B12EAA24C5018D5F9B4F0E940A
:1011A000100C8431D1F08823C1F08C31B1F022C011
:1011B000CE15DF050CF47E011E141F0474F4C8E183
:1011C000D5E0CE01612FA601970100E00E94D10D6C
:1011D000CE01612F40E40E94290E8E2D9F2DDF91BC
:1011E000CF911F910F91FF90EF90DF90CF90BF9024
:1011F000AF900895EE24EA94FE2CEFCF0F93282FA2
:10120000AB0188E195E0622F21E030E001E00E942F
:10121000D10D81E090E00F910895AF92BF92CF92EF
:10122000DF92FF920F931F93CF93DF93F82E5B0112
:10123000F90168018081882351F48181882339F480
:101240008281882321F48381882309F453C0C11447
:10125000D10409F452C0042F152F88E0013018077B
:1012600010F000E018E00115110509F448C0CF2D79
:10127000D0E02496DC2FCC27CE010C96BF0144E0B1
:1012800050E00E94E90BCE0140966D2D0E94920B1A
:10129000CE0141966C2D0E94920B0F2EF8E1CF2EBD
:1012A000F5E0DF2EF02DC6016F2DA50198010E94FB
:1012B000500DC6016F2D40E20E94290E22960DC0EE
:1012C000CE010E94100C83FF08C08F2D9C2D68E179
:1012D0000E94920B00E010E012C0FC2ECD2ECE0139
:1012E0000E94100C84FFECCF8C2F9D2F60E10E9498
:1012F000920B05C000E010E002C000E010E0802F7B
:10130000912FDF91CF911F910F91FF90DF90CF90A0
:10131000BF90AF9008952F923F924F925F926F923D
:101320007F928F929F92AF92BF92DF92EF92FF9245
:101330000F931F93CF93DF93CDB7DEB72A970FB6E6
:10134000F894DEBF0FBECDBFD82E3B015901480136
:101350004115510509F4E2C0082F10E00C5F1F4F42
:10136000102F00270F2EF8E24F2E5524F02D400E9F
:10137000511EC2010E94100CE82E0F2EF9E22F2EF2
:101380003324F02D200E311EC1010E94100C282F95
:1013900030E09E2D80E07901E82AF92AC8010E94F8
:1013A000100C90E0877090708330910509F444C070
:1013B0008430910509F478C08230910509F0A5C008
:1013C00088E195E06D2DA7019E012F5F3F4F08E05A
:1013D00010E00E94830DC70108969A87898789814A
:1013E000F50180838A8181838B8182838C818383D1
:1013F0009D8180E02E81820F911DF4019183808375
:101400009F8180E028857C01E20EF11C88E195E057
:101410006D2D49855A85930187010E94830D0985A9
:101420001A850E0D1F1DC201612F0E94920BC10172
:10143000602F0E94920B6BC00F2EF8E18F2EF5E00B
:101440009F2EF02DC4016D2DA7019E012F5F3F4FF0
:1014500006E010E00E94830DC70106969A878987EF
:101460008981F50180838A8181838B8182838C814C
:1014700083839D8180E02E817C01E20EF11CC401FA
:101480006D2D49855A85930187010E94830D098539
:101490001A850E0D1F1DC201612F0E94920BC10102
:1014A000602F0E94920B33C00F2EF8E18F2EF5E0D3
:1014B0009F2EF02DC4016D2DA7019E012F5F3F4F80
:1014C00002E010E00E94830DAA24BB246894A1F8D6
:1014D000AE0CBF1C398120E08A8190E002977C012C
:1014E000E20EF31EC4016D2DA501930187010E9438
:1014F000830D85010E0D1F1DC201612F0E94920BED
:10150000C101602F0E94920B02C0EE24FF2488E1EB
:1015100095E06D2D40E40E94290E02C0EE24FF24C8
:101520008E2D9F2D2A960FB6F894DEBF0FBECDBF2D
:10153000DF91CF911F910F91FF90EF90DF90BF90BF
:10154000AF909F908F907F906F905F904F903F9063
:101550002F900895DF92EF92FF920F931F93CF93F6
:10156000DF93D82E9B01042F152F88E00130180738
:1015700010F000E018E00115110599F1C8E1D5E07F
:10158000CE016D2DA90198010E94500DCE016D2D47
:1015900040E20E94290E8D2D90E00496982F882716
:1015A000EC0122960F2EF3E0EF2EFF24F02DE80E33
:1015B000F91E0EC0C7010E94100CCE010E94100C33
:1015C00083FF06C08D2D0E94740700E010E009C063
:1015D000CE010E94100C84FFEDCFCE0160E10E948D
:1015E000920B802F912FDF91CF911F910F91FF9040
:1015F000EF90DF900895AF92BF92CF92DF92FF926B
:101600000F931F93CF93DF93C82F6B015A0189016A
:1016100088E195E06C2F0E94280C8017910740F418
:1016200088E195E06C2F0E94280CF82ED92F02C07B
:10163000F02ED12F88E195E06C2FA60195010F2D9A
:101640001D2F0E94C50C8F2D9D2FDF91CF911F91D3
:101650000F91FF90DF90CF90BF90AF9008950F93C0
:101660001F93CF93DF93FB018A019081992349F463
:101670009181992331F49281992319F493819923CB
:10168000E1F001151105E1F0C82FD0E02496DC2F20
:10169000CC27CE010C96BF0144E050E00E94E90B3C
:1016A000CE014096612F0E94920BCE014196602F91
:1016B0000E94920B81E090E005C080E090E002C0C3
:1016C00080E090E0DF91CF911F910F9108951F93DB
:1016D000CF93DF93182F88E195E0612F40E20E94BD
:1016E000290ED12F80E0C82FCE5FDB4F0CC0CE017A
:1016F0000E94100C83FF07C0CE0168E10E94920B8C
:1017000080E090E00BC0CE010E94100C84FFEFCF70
:10171000CE0160E10E94920B81E090E0DF91CF91D9
:101720001F9108952C9820EF2EBD0DB407FEFDCF1C
:101730002EB59EBD0DB407FEFDCF9EB58EBD0DB47A
:1017400007FEFDCF8EB56EBD0DB407FEFDCF8EB585
:101750002C9A81E00895CF93DF93EC016CE271E065
:1017600080E090E00E94EB170E942117249A80E00D
:1017700090E060E80E94920B8BE190E065E50E94AA
:10178000920B8AE190E065E50E94920B80E090E484
:101790009983888380E090E69987888780E098E441
:1017A0009B838A8380E098E69B878A8780E090E528
:1017B0009D838C8380E090E79D878C8780E098E50F
:1017C0009F838E8380E098E79F878E87DF91CF91FC
:1017D00008954115510509F1E62FF72F9A01280FB9
:1017E000391F70EF2C987EBD0DB407FEFDCF6EB58E
:1017F0009EBD0DB407FEFDCF6EB58EBD0DB407FEC8
:10180000FDCF6EB5019661916EBD0DB407FEFDCFA3
:101810006EB52C9A8217930729F7842F952F089578
:101820002C982FE02EBD0DB407FEFDCF2EB59EBD2A
:101830000DB407FEFDCF9EB58EBD0DB407FEFDCFE6
:101840008EB51EBC0DB407FEFDCF8EB52C9A089543
:101850008F929F92AF92BF92CF92DF92EF92FF92C0
:101860000F931F93CF93DF93862F90E00496982FCA
:101870008827AA24BB246894A5F8A80EB91E0F2EA9
:10188000F1E2CF2EDD24F02DC80ED91E00E010E0CD
:10189000C5010E94100CC82FC6010E94100C90E0D8
:1018A000FC2EEE24EC01CE29DF29209769F0C5013A
:1018B0000E94100C082FC6010E94100C90E0902E80
:1018C00088248C01082919290C171D0709F7802F76
:1018D000912FDF91CF911F910F91FF90EF90DF90AB
:1018E000CF90BF90AF909F908F9008958F929F92CE
:1018F000AF92BF92CF92DF92EF92FF920F931F931E
:10190000CF93DF93862F90E00496982F88270F2E91
:10191000F6E2AF2EBB24F02DA80EB91E0F2EF7E273
:10192000CF2EDD24F02DC80ED91E00E010E0C50139
:101930000E94100CC82FC6010E94100C90E0FC2ED3
:10194000EE24EC01CE29DF29209769F0C5010E9421
:10195000100C082FC6010E94100C90E0902E8824D5
:101960008C01082919290C171D0709F7802F912FC1
:10197000DF91CF911F910F91FF90EF90DF90CF906B
:10198000BF90AF909F908F9008952F923F924F926B
:101990005F926F927F928F929F92AF92BF92CF92FF
:1019A000DF92EF92FF920F931F93CF93DF932C015F
:1019B0005A0119017801C62EDD24C6010496D82FDC
:1019C000CC270F2EF4E26F2E7724F02D6C0E7D1EA7
:1019D000C3010E94100C182F0F2EF5E28F2E9924B0
:1019E000F02D8C0E9D1EC4010E94100CC82FD0E05B
:1019F000912F80E08C2B9D2BEC01CA0DDB1DAE01DD
:101A00005770C601880F991F840D951DFC018081B8
:101A100091819A01280F391FCA018E0D9F1DF8E090
:101A200081309F07D8F080E098E05C01A41AB50AE5
:101A3000C901B101A5010E94E90BC601880F991FD8
:101A4000840D951DB1016A0D7B1DA7014A195B0923
:101A5000FC01808191810E94E90B05C0C901B1019F
:101A6000A7010E94E90BCE0DDF1DC3016D2F0E945F
:101A7000920BC4016C2F0E94920BDF91CF911F91AA
:101A80000F91FF90EF90DF90CF90BF90AF909F901D
:101A90008F907F906F905F904F903F902F90089520
:101AA0000F931F93FA01890140E050E09F010E94CB
:101AB000C50C1F910F9108954115510509F1E62FAD
:101AC000F72F9A01280F391F7FE02C987EBD0DB4A7
:101AD00007FEFDCF6EB59EBD0DB407FEFDCF6EB502
:101AE0008EBD0DB407FEFDCF6EB501961EBC0DB4C4
:101AF00007FEFDCF6EB561932C9A8217930729F7E5
:101B0000842F952F0895AF92BF92CF92DF92EF92DC
:101B1000FF920F931F93CF93DF936C01590157707E
:101B2000C62FD0E0CE010496880F991F8C0D9D1D05
:101B3000FC01808191819A01280F391FC801840F0F
:101B4000951FF8E081309F07E0F080E098E07C018D
:101B5000E41AF50AC901B501A7010E945C0DCE0186
:101B60000496880F991F8C0D9D1DB5016E0D7F1D6C
:101B7000A8014E195F09FC01808191810E945C0DD2
:101B800005C0C901B501A8010E945C0DDF91CF918C
:101B90001F910F91FF90EF90DF90CF90BF90AF908B
:101BA00008954F925F926F927F928F929F92AF9221
:101BB000BF92CF92DF92FF920F931F93CF93DF9349
:101BC0003C01162F2A016901F02EC62FD0E0249681
:101BD000DC2FCC270F2EF8E28F2E9924F02D8C0EBF
:101BE0009D1EC4010E94100C082F0F2EF9E2AF2E8B
:101BF000BB24F02DAC0EBD1EC5010E94100C282F79
:101C000030E0902F80E0E901C82BD92BC301612F70
:101C1000AE01920186010E94830DFF2051F4CC0D8C
:101C2000DD1DC4016D2F0E94920BC5016C2F0E9417
:101C3000920BDF91CF911F910F91FF90DF90CF908A
:101C4000BF90AF909F908F907F906F905F904F90DC
:101C50000895CF93DF93D62F80E0C82FCF5FDB4F5F
:101C6000CE01642F0E94920BCE010E94100C88239B
:101C7000D9F7DF91CF910895FC0124853585F901CD
:101C8000E05CFF4F808191812E5B3F4FF901208105
:101C90003181821B930B8F7390700895FC018485B2
:101CA0009585FC01E05CFF4F20813181FC01EE5BFA
:101CB000FF4F408151812417350759F0FC01EE5B3D
:101CC000FF4F20813181820F931FFC01808190E0C2
:101CD00008958FEF9FEF0895DC011C968D919C91E4
:101CE0001D97FC01E05CFF4F20813181FC01EE5B20
:101CF000FF4F408151812417350799F0FC01EE5BBD
:101D0000FF4F20813181820F931FDC018C91208154
:101D100031812F5F3F4F2F7330703183208390E0EC
:101D200008958FEF9FEF0895DC011E96ED91FC91D1
:101D30001F97DF01A05CBF4FEE5BFF4F2D913C91E1
:101D400011978081918128173907C1F708951F9352
:101D5000CF93DF93EC01AE85BF85FD01E05CFF4FC3
:101D6000208131812F5F3F4F2F733070122F732FDF
:101D7000FD01EE5BFF4F412F572F80819181281786
:101D80003907C9F3FD01E05CFF4F80819181A80F05
:101D9000B91F6C93EE85FF85E05CFF4F5183408354
:101DA000EE89FF89408121E030E0C9010D8C02C03D
:101DB000880F991F0A94E2F7842B808381E090E0DA
:101DC000DF91CF911F91089508951F920F920FB642
:101DD0000F920BB60F9211242F933F934F938F9333
:101DE0009F93EF93FF934091C6008091C00790911D
:101DF000C10701968F7390702091C2073091C3077D
:101E00008217930759F0E091C007F091C107E0589D
:101E1000F84F40839093C1078093C007FF91EF91E3
:101E20009F918F914F913F912F910F900BBE0F90EB
:101E30000FBE0F901F90189508951F920F920FB626
:101E40000F920BB60F9211242F933F934F938F93C2
:101E50009F93EF93FF934091CE008091380790912C
:101E6000390701968F73907020913A0730913B07A4
:101E70008217930759F0E0913807F0913907E8503D
:101E8000F94F40839093390780933807FF91EF9182
:101E90009F918F914F913F912F910F900BBE0F907B
:101EA0000FBE0F901F90189508951F920F920FB6B6
:101EB0000F920BB60F9211242F933F934F938F9352
:101EC0009F93EF93FF934091D6008091B00690913D
:101ED000B10601968F7390702091B2063091B306CF
:101EE0008217930759F0E091B006F091B106E059DE
:101EF000F94F40839093B1068093B006FF91EF9124
:101F00009F918F914F913F912F910F900BBE0F900A
:101F10000FBE0F901F90189508951F920F920FB645
:101F20000F920BB60F9211242F933F934F938F93E1
:101F30009F93EF93FF9340913601809128069091F3
:101F4000290601968F73907020912A0630912B06F6
:101F50008217930759F0E0912806F0912906E8517D
:101F6000FA4F40839093290680932806FF91EF91C2
:101F70009F918F914F913F912F910F900BBE0F909A
:101F80000FBE0F901F90189585E895E00E943C0EBB
:101F9000009711F00E94E40E86E695E00E943C0E48
:101FA000009711F00E941C0F87E495E00E943C0E00
:101FB000009711F00E94540F88E295E00E943C0EB9
:101FC000009711F00E948C0F08951F920F920FB688
:101FD0000F920BB60F9211242F933F938F939F93E1
:101FE000EF93FF9320917C0730917D0780917E07CE
:101FF00090917F072817390731F4E1ECF0E08081F8
:102000008F7D808314C0E0917E07F0917F07E45CB0
:10201000F84F208180917E0790917F0701968F7302
:10202000907090937F0780937E072093C600FF9166
:10203000EF919F918F913F912F910F900BBE0F9039
:102040000FBE0F901F9018951F920F920FB60F9210
:102050000BB60F9211242F933F938F939F93EF937F
:10206000FF932091F4063091F5068091F606909149
:10207000F7062817390731F4E9ECF0E080818F7D0D
:10208000808314C0E091F606F091F706EC54F94F06
:1020900020818091F6069091F70601968F739070DB
:1020A0009093F7068093F6062093CE00FF91EF9170
:1020B0009F918F913F912F910F900BBE0F900FBE6C
:1020C0000F901F9018951F920F920FB60F920BB69C
:1020D0000F9211242F933F938F939F93EF93FF932E
:1020E00020916C0630916D0680916E0690916F067E
:1020F0002817390731F4E1EDF0E080818F7D80838E
:1021000014C0E0916E06F0916F06E45DF94F2081F6
:1021100080916E0690916F0601968F7390709093E8
:102120006F0680936E062093D600FF91EF919F91EA
:102130008F913F912F910F900BBE0F900FBE0F907C
:102140001F9018951F920F920FB60F920BB60F9219
:1021500011242F933F938F939F93EF93FF9320919D
:10216000E4053091E5058091E6059091E705281793
:10217000390731F4E1E3F1E080818F7D808314C081
:10218000E091E605F091E705EC55FA4F208180914A
:10219000E6059091E70501968F7390709093E7059F
:1021A0008093E60520933601FF91EF919F918F91E7
:1021B0003F912F910F900BBE0F900FBE0F901F906D
:1021C00018958F92AF92BF92CF92DF92EF92FF92CB
:1021D0000F931F93CF93DF93CDB7DEB7FC0113822C
:1021E000128288EE93E0A0E0B0E084839583A6831A
:1021F000B78383E892E091838083758764875787EC
:102200004687318B208B138B028BF58AE48AD78A21
:10221000C68AB18EA08E828E8F85838F8889848FA7
:102220008989858F8A89868FDF91CF911F910F9140
:10223000FF90EF90DF90CF90BF90AF908F90089578
:102240002F923F924F925F926F927F928F929F92C6
:10225000AF92BF92CF92DF92EF92FF920F931F93B4
:10226000CF93DF938C016A017B01C1E0403021EE06
:10227000520720E0620720E0720721F4C0E002C0AC
:10228000CD2F18C02224332423940F2EF0E08F2E5C
:10229000F9E09F2EFDE3AF2EF0E0BF2EF02D0F2EC4
:1022A000F0E84F2EF4E85F2EFEE16F2EF0E07F2E77
:1022B000F02DD0E0CC23F1F0D8015496ED91FC91B3
:1022C0005597C1015E960C9002C0880F991F0A9421
:1022D000E2F78083C501B401A70196010E941D3772
:1022E000DA01C9010197A109B109B695A79597959A
:1022F000879515C0D8015496ED91FC9155971082A1
:10230000C301B201A70196010E941D37DA01C9017C
:102310000197A109B109B695A79597958795B0E161
:1023200080309B0718F0CC2309F0AACFD801509633
:10233000ED91FC91519790835296ED91FC915397BA
:1023400080835696ED91FC915797408121E030E0D3
:10235000C9015A960C905A9702C0880F991F0A9487
:10236000E2F7842B80835696ED91FC91579740813C
:10237000C9015B960C905B9702C0880F991F0A9465
:10238000E2F7842B80835696ED91FC91579740811C
:10239000C9015C960C905C9702C0880F991F0A9443
:1023A000E2F7842B80835696ED91FC9157978081BC
:1023B0005D960C905D9702C0220F331F0A94E2F7DE
:1023C000209528232083DF91CF911F910F91FF90BB
:1023D000EF90DF90CF90BF90AF909F908F907F90C5
:1023E0006F905F904F903F902F900895CF93DF9321
:1023F000EC01EE85FF85DF01A05CBF4FEE5BFF4F78
:102400008D919C9111972081318182179307C1F79B
:10241000EE89FF89408121E030E0C9010A8C02C0C9
:10242000880F991F0A94E2F7809584238083EE89B0
:10243000FF894081C9010B8C02C0880F991F0A9443
:10244000E2F7809584238083EE89FF894081C9016A
:102450000C8C02C0880F991F0A94E2F780958423A0
:102460008083EE89FF8980810D8C02C0220F331F8B
:102470000A94E2F72095282320838C859D85FC0112
:10248000EE5BFF4F20813181805C9F4FFC013183E7
:102490002083DF91CF91089581E008957F928F92FC
:1024A0009F92AF92BF92CF92DF92EF92FF920F93E3
:1024B0001F93CF93DF9300D00F92EDB7FEB7319605
:1024C000C3E0ADB7BEB71196CC93D7E0D1830F2E42
:1024D000F5E09F2EF02D928277247394738285E825
:1024E00095E060E877E04CE357E025EC30E004EC61
:1024F00010E00F2EF0ECEF2EFF24F02D0F2EF1EC5C
:10250000CF2EDD24F02D0F2EF6ECAF2EBB24F02DB8
:102510008824689482F80E94E110EDB7FEB73196E6
:10252000ADB7BEB71196CC93D1839282738286E603
:1025300095E068EF76E044EB56E02DEC30E00CECF3
:1025400010E00F2EF8ECEF2EFF24F02D0F2EF9ECFB
:10255000CF2EDD24F02D0F2EFEECAF2EBB24F02D60
:102560000E94E110EDB7FEB73196ADB7BEB7119638
:10257000CC93D1839282738287E495E060E776E022
:102580004CE256E025ED30E004ED10E00F2EF0EDCA
:10259000EF2EFF24F02D0F2EF1EDCF2EDD24F02DA8
:1025A0000F2EF6EDAF2EBB24F02D0E94E110EDB7FB
:1025B000FEB73196ADB7BEB71196CC93D183928258
:1025C000738288E295E068EE75E044EA55E025E321
:1025D00031E004E311E00F2EF0E3EF2EF1E0FF2EE7
:1025E000F02D0F2EF1E3CF2EF1E0DF2EF02D0F2E88
:1025F000F6E3AF2EF1E0BF2EF02D0E94E1100F9018
:102600000F900F900F90DF91CF911F910F91FF903E
:10261000EF90DF90CF90BF90AF909F908F907F9082
:1026200008958F929F92AF92BF92CF92DF92EF92D6
:10263000FF920F931F93CF93DF934C017B01AA244A
:10264000BB246894A1F8A80EB91E00E010E0CC24C9
:10265000DD24F50161915F01C7014AE050E00E946D
:10266000A515EC01C7016EE20E9472148C0F9D1F2C
:10267000C80ED91E0F5F1F4F0330110551F7C70158
:10268000F40165814AE050E00E94A5158C0D9D1D66
:10269000DF91CF911F910F91FF90EF90DF90CF903E
:1026A000BF90AF909F908F900895FC0183EA92E0D5
:1026B00091838083128213821482158208950F936E
:1026C000FC0183EA92E091838083628343832483C5
:1026D00005830F910895FC0183EA92E09183808342
:1026E00042835383648375830895CF93DF93FC0102
:1026F00083EA92E091838083EB0188819981AA81AA
:10270000BB8182839383A483B583DF91CF910895A6
:10271000FB014081518162817381FC0142835383BB
:10272000648375830895FC014283538364837583B6
:1027300008959C012E5F3F4FCB01B90144E050E06A
:102740000E94183A282F392F81E02115310509F010
:1027500080E008950F9384EC97E060E040E020E093
:1027600000E00E945F130F9108950E945E37089564
:102770000E94F437089521E030E0FC018081882335
:1027800011F020E030E0822F932F089521E0FC012A
:102790002083089508950895CF92DF92EF92FF92DB
:1027A0000F931F93CF93DF936C017B01EA01209776
:1027B00091F000E010E0D7016D917D01D601ED911F
:1027C000FC910190F081E02DC6011995080F191FA9
:1027D000219789F702C000E010E0802F912FDF9150
:1027E000CF911F910F91FF90EF90DF90CF900895C0
:1027F000EF92FF920F931F93CF93DF937C01EB0136
:10280000FB016491662391F0219600E010E0F7014E
:10281000A081B181ED91FC91C7011995080F191F95
:10282000FE0121966491662391F702C000E010E05A
:10283000802F912FDF91CF911F910F91FF90EF90FB
:102840000895AF92BF92CF92DF92EF92FF920F93D3
:102850001F93CF93DF935C016B01DB0114968D9185
:102860009C9115970097E1F000E010E0EE24FF2422
:10287000D501ED91FC91C081D181C601B8010E94C2
:10288000A91E682FC501FE011995E80EF91E0F5FFC
:102890001F4FF601848195810817190748F302C07C
:1028A000EE24FF248E2D9F2DDF91CF911F910F914C
:1028B000FF90EF90DF90CF90BF90AF900895E62FFC
:1028C000F72FDF010D900020E9F7AD014150504096
:1028D0004E1B5F0BDC01ED91FC910280F381E02D3A
:1028E00019950895DC01ED91FC910190F081E02DA6
:1028F000199508959C01CB01DB01ED91FC910190AC
:10290000F081E02DB901199508950F931F93CF938E
:10291000DF938C016DE00E947214EC01C8016AE043
:102920000E9472148C0F9D1FDF91CF911F910F9108
:1029300008950F931F93CF93DF938C010E94F81398
:10294000EC01C8010E9485148C0F9D1FDF91CF916F
:102950001F910F9108950F931F93CF93DF938C01D5
:102960000E942114EC01C8010E9485148C0F9D1F48
:10297000DF91CF911F910F9108950F931F93CF93E4
:10298000DF938C010E945F14EC01C8010E94851442
:102990008C0F9D1FDF91CF911F910F9108950F9381
:1029A0001F93CF93DF938C010E947214EC01C80136
:1029B0000E9485148C0F9D1FDF91CF911F910F9165
:1029C00008950F931F93CF93DF938C010E947A1485
:1029D000EC01C8010E9485148C0F9D1FDF91CF91DF
:1029E0001F910F9108954F925F926F927F928F92F5
:1029F0009F92AF92BF92CF92DF92EF92FF920F938E
:102A00001F93CF93DF93CDB7DEB7A1970FB6F8949E
:102A1000DEBF0FBECDBF4C01142F352F862F972F51
:102A2000022F19A2223008F40AE00F2EF1E2AF2E95
:102A3000BB24F02DAC0EBD1E402E552466247724F9
:102A400003C0122F842F952F612F732FA3019201A2
:102A50000E941D37C22ED32EE42EF52E029F802D0C
:102A60001124181B0894A108B1081A3010F4105D45
:102A700001C0195CD5011C93C114D104E104F10417
:102A800001F7EA2DFB2DDF010D900020E9F71197EA
:102A9000AD014E1B5F0BD401ED91FC910280F381DF
:102AA000E02DC401B5011995A1960FB6F894DEBFCB
:102AB0000FBECDBFDF91CF911F910F91FF90EF908F
:102AC000DF90CF90BF90AF909F908F907F906F904E
:102AD0005F904F9008952115310549F4DC01ED9187
:102AE000FC910190F081E02D642F199508950E94CA
:102AF000F31408950F931F93CF93DF938C010E94DB
:102B00006B15EC01C8010E9485148C0F9D1FDF918D
:102B1000CF911F910F9108959A01AB0160E070E091
:102B20000E946B1508950F931F93CF93DF938C0131
:102B30000E948C15EC01C8010E9485148C0F9D1F0A
:102B4000DF91CF911F910F9108959A01462F50E088
:102B500060E070E00E946B1508950F931F93CF9370
:102B6000DF938C010E94A515EC01C8010E94851419
:102B70008C0F9D1FDF91CF911F910F910895CF92E0
:102B8000DF92EF92FF920F931F93CF93DF93EC01AD
:102B90006A017B012115310541F4E881F981019039
:102BA000F081E02D642F19951DC02A303105C1F444
:102BB000772394F46DE20E9472148C014427552708
:102BC000BA014C195D096E097F09CE012AE00E9405
:102BD000F314800F911F06C02AE00E94F31402C074
:102BE0000E94F314DF91CF911F910F91FF90EF900E
:102BF000DF90CF9008950F931F93CF93DF938C01B5
:102C00000E94BF15EC01C8010E9485148C0F9D1F06
:102C1000DF91CF911F910F9108959A01FB01AF01B0
:102C2000662757FD6095762F0E94BF1508950F9374
:102C30001F93CF93DF938C010E940D16EC01C80106
:102C40000E9485148C0F9D1FDF91CF911F910F91D2
:102C500008954F925F926F927F928F929F92AF9260
:102C6000BF92DF92EF92FF920F931F93CF93DF9368
:102C70003C014A015B01E22ECB01BA0120E030E0C9
:102C8000A9010E944C35882354F4C3016DE20E94CF
:102C900072142C01B7FAB094B7F8B09402C044246F
:102CA0005524EE2009F4A3C0C0E050E040E030E03D
:102CB0002FE3852F942FA32FB22FBC01CD0120E04D
:102CC00030E040E251E40E945035562F472F382F14
:102CD000292FCF5FCE1569F7C501B401E22F052F6B
:102CE000142F232F3E2FA90198010E94E834162F9C
:102CF000072FF82ED92E862F902FAF2DBD2DBC017A
:102D0000CD010E94BD35C62FA72E882ED92F0E9437
:102D1000E9359B01AC01812F902FAF2DBD2DBC015A
:102D2000CD010E94E734F62ED72E182F092FC301AC
:102D30004C2F5A2D682D7D2F2AE030E00E946B1514
:102D4000EC01C3016BEA72E00E945F14C80FD91F47
:102D50005E01A40CB51C8F2D9D2DA12FB02FBC01A1
:102D6000CD0120E030E040E251E40E949B36162F76
:102D7000072FF82ED92E862F902FAF2DBD2DBC01F9
:102D8000CD010E94B835AB01BC01EA01C301BA0113
:102D90004AE050E00E940D16A80EB91EBE01882719
:102DA00077FD8095982F0E94EB359B01AC01812F18
:102DB000902FAF2DBD2DBC01CD010E94E734F62E22
:102DC000D72E182F092FEA9431F68A2D9B2DDF91EB
:102DD000CF911F910F91FF90EF90DF90BF90AF9038
:102DE0009F908F907F906F905F904F900895C50156
:102DF000B40120E030E040E05FE30E94E8340E944C
:102E0000BD35AB01BC01C3012AE030E00E946B1567
:102E10005C01A40CB51CD9CF0E94291608950F930C
:102E20001F93CF93DF938C010E940C17EC01C80114
:102E30000E9485148C0F9D1FDF91CF911F910F91E0
:102E4000089584E361E00E94F41883E361E00E9446
:102E5000F41885E361E00E94F41884E360E00E94C6
:102E6000281983E360E00E94281985E361E00E944D
:102E700028198CB580618CBD8CB580648CBD08959B
:102E80008CB58F7B8CBD0895882321F48CB580622E
:102E90008CBD08958CB58F7D8CBD08959CB5937FB6
:102EA000892B8CBD08959CB5282F23709C7F922B75
:102EB0009CBD2DB590E095958795959587958170EA
:102EC000922F9E7F892B8DBD08951F920F920FB672
:102ED0000F9211242F933F938F939F93AF93BF93A0
:102EE0008091CB079091CC07A091CD07B091CE07F0
:102EF0003091D307232F2D5F2D3720F40196A11D8C
:102F0000B11D05C0232F2A570296A11DB11D209384
:102F1000D3078093CB079093CC07A093CD07B093B2
:102F2000CE078091CF079091D007A091D107B091A3
:102F3000D2070196A11DB11D8093CF079093D007B2
:102F4000A093D107B093D207BF91AF919F918F917A
:102F50003F912F910F900FBE0F901F9018950F93D8
:102F60001F938FB7F8940091CB071091CC07209155
:102F7000CD073091CE078FBFB801C9011F910F91C6
:102F800008950F931F939FB7F8940091CF07109166
:102F9000D0072091D1073091D20786B5A89B06C0F3
:102FA0008F3F21F00F5F1F4F2F4F3F4F9FBF322F9B
:102FB000212F102F0027080F111D211D311D42E068
:102FC000000F111F221F331F4A95D1F7B801C90105
:102FD0001F910F910895CF92DF92EF92FF92CF93BE
:102FE000DF936B017C010E94C117DC01CB01EC0176
:102FF0000FC00E94C1176C1B7D0B83E0683E7807F1
:1030000038F00894C108D108E108F108C851DC4F34
:10301000C114D104E104F10461F7DF91CF91FF9075
:10302000EF90DF90CF900895019739F0880F991FA6
:10303000880F991F02970197F1F70895789484B546
:10304000826084BD84B5816084BD85B5826085BDA4
:1030500085B5816085BDEEE6F0E08081816080838A
:10306000E1E8F0E01082808182608083808181606D
:103070008083E0E8F0E0808181608083E1EBF0E034
:10308000808184608083E0EBF0E0808181608083D8
:10309000E1E9F0E0808182608083808181608083CB
:1030A000E0E9F0E0808181608083E1EAF0E0808106
:1030B00082608083808181608083E0EAF0E08081AB
:1030C00081608083E1E2F1E08081826080838081A1
:1030D00081608083E0E2F1E0808181608083EAE7C3
:1030E000F0E0808184608083808182608083808141
:1030F000816080838081806880831092C100089500
:10310000893009F449C08A30A0F4843051F1853007
:1031100040F4823079F1833000F5813009F063C0EA
:1031200026C0873079F1883098F5863009F05BC089
:1031300025C08D3009F442C08E3028F48B30B1F1B7
:103140008C30C0F52DC0803109F442C0813109F4C2
:1031500045C08F3009F047C037C0809180008F771D
:1031600003C0809180008F7D80938000089584B596
:103170008F7702C084B58F7D84BD08958091B000A3
:103180008F7703C08091B0008F7D8093B000089549
:10319000809190008F7707C0809190008F7D03C051
:1031A00080919000877F8093900008958091A00087
:1031B0008F7707C08091A0008F7D03C08091A00011
:1031C000877F8093A0000895809120018F7703C0AE
:1031D000809120018F7D80932001089580912001AE
:1031E000877F80932001089590E0FC01E65DFE4F0B
:1031F000249180599E4FFC018491882341F190E0F5
:10320000880F991FFC01E651FE4F45915491DA0158
:1032100080539E4FFC0185919491FC019FB7F894D7
:103220008C91662331F4209582238C9380818223B4
:1032300008C0623049F4322F309583238C9380810B
:10324000822B80839FBF0895822B8C939FBF08950C
:103250000F931F93CF93DF930F92CDB7DEB7282F35
:1032600030E0F901EC51FF4F8491F901E65DFE4F2A
:103270001491F901E059FE4F04910023D1F0882305
:1032800021F069830E9480186981E02FF0E0EE0F41
:10329000FF1FE053FE4F85919491DC019FB7F89496
:1032A0008C91662319F41095812301C0812B8C9396
:1032B0009FBF0F90DF91CF911F910F910895CF93F2
:1032C000DF93282F30E0F901EC51FF4F8491F90191
:1032D000E65DFE4FC491F901E059FE4FD491DD2324
:1032E00091F0882311F00E948018ED2FF0E0EE0F8E
:1032F000FF1FEA54FE4F85919491FC0120812C23FD
:1033000081E090E011F480E090E0DF91CF910895AA
:10331000FC01808191810E94F4370895CF93DF935F
:10332000EC0188819981009711F00E94F43719828D
:1033300018821D821C821B821A82DF91CF91089510
:103340000F931F93CF93DF93EC018B016F5F7F4F40
:10335000888199810E94F938282F392F211531054C
:1033600031F0398328831B830A8381E001C080E028
:10337000DF91CF911F910F910895CF93DF93EC01CF
:1033800088819981009729F08A819B818617970708
:1033900070F4CE010E94A019882359F08C819D8180
:1033A000009749F4E881F981108281E005C081E04D
:1033B00003C080E001C081E0DF91CF910895EF92DA
:1033C000FF920F931F93CF93DF93EC017B018A0150
:1033D000BA010E94BD19882321F4CE010E948E19E2
:1033E00007C01D830C8388819981B7010E94543ADC
:1033F0008C2F9D2FDF91CF911F910F91FF90EF9018
:103400000895CF93DF93DC0111961C921E921396C0
:103410001C921E92129715961C921E921497169645
:103420001C9216976115710569F0E62FF72FEF01D1
:1034300009900020E9F7AE01415050404E1B5F0B50
:103440000E94DF19DF91CF910895CF93DF93EC01B4
:10345000FB018617970769F020813181211531051D
:1034600031F044815581B9010E94DF1902C00E94E8
:103470008E198C2F9D2FDF91CF910895FC01118221
:103480001082138212821582148216820E94251ADB
:103490000895CF93DF93C82FD92F6115710571F06F
:1034A000E62FF72FDF010D900020E9F7AD01415025
:1034B00050404E1B5F0B0E94DF1902C00E948E1904
:1034C0008C2F9D2FDF91CF9108950F931F93CF9352
:1034D000DF93CDB7DEB7A1970FB6F894DEBF0FBE6E
:1034E000CDBF8C01FC0111821082138212821582E1
:1034F00014821682CB01BA01AE014F5F5F4F30E0FC
:103500000E94073BC801BE016F5F7F4F0E94491AAE
:10351000A1960FB6F894DEBF0FBECDBFDF91CF915D
:103520001F910F9108950F931F93CF93DF93CDB702
:10353000DEB7A2970FB6F894DEBF0FBECDBF8C01E9
:10354000FC0111821082138212821582148216826B
:10355000CB01BA01AE014F5F5F4F30E00E94BE3A2F
:10356000C801BE016F5F7F4F0E94491AA2960FB635
:10357000F894DEBF0FBECDBFDF91CF911F910F91A9
:1035800008950F931F93CF93DF93CDB7DEB7619765
:103590000FB6F894DEBF0FBECDBF8C01CB01F80192
:1035A0001182108213821282158214821682BE0149
:1035B0006F5F7F4F50E00E942C3BC801BE016F5FE0
:1035C0007F4F0E94491A61960FB6F894DEBF0FBE76
:1035D000CDBFDF91CF911F910F9108950F931F934E
:1035E000CF93DF93CDB7DEB762970FB6F894DEBF07
:1035F0000FBECDBF8C01CB01F80111821082138266
:103600001282158214821682BE016F5F7F4F50E0D6
:103610000E949D3AC801BE016F5F7F4F0E94491A08
:1036200062960FB6F894DEBF0FBECDBFDF91CF918B
:103630001F910F9108950F931F93CF93DF93CDB7F1
:10364000DEB729970FB6F894DEBF0FBECDBF8C0151
:10365000862FF80111821082138212821582148241
:10366000168290E0BE016F5F7F4F50E00E942C3BBE
:10367000C801BE016F5F7F4F0E94491A29960FB69D
:10368000F894DEBF0FBECDBFDF91CF911F910F9198
:103690000895CF93DF930F920F92CDB7DEB7FC0161
:1036A000118210821382128215821482168269831B
:1036B0001A82BE016F5F7F4F0E94491A0F900F90D0
:1036C000DF91CF910895EF92FF920F931F93CF93C5
:1036D000DF938C017B01FC01C481D58161157105EB
:1036E000C9F041155105C1F0C40FD51FBE010E949C
:1036F000BD19882399F0F801808191812481358159
:10370000820F931FB7010E94543AF801D583C483F6
:1037100081E005C080E003C081E001C080E0DF916E
:10372000CF911F910F91FF90EF900895FB012081A1
:10373000318144815581B9010E94631B089561154F
:10374000710571F0E62FF72FDF010D900020E9F7EA
:10375000AD01415050404E1B5F0B0E94631B08950A
:1037600080E00895CF93DF930F920F92CDB7DEB72D
:1037700069831A82BE016F5F7F4F41E050E00E9473
:10378000631B0F900F90DF91CF910895EF92FF92FE
:103790000F931F93CF93DF9300D00F92CDB7DEB777
:1037A0007C01862F90E08E010F5F1F4FB8014AE029
:1037B00050E00E949D3AF80101900020E9F7AF0126
:1037C00041505040401B510BC701B8010E94631B80
:1037D0000F900F900F900F90DF91CF911F910F914D
:1037E000FF90EF900895EF92FF920F931F93CF9366
:1037F000DF93CDB7DEB727970FB6F894DEBF0FBEC5
:10380000CDBF7C01CB018E010F5F1F4FB8014AE095
:1038100050E00E949D3AF80101900020E9F7AF01C5
:1038200041505040401B510BC701B8010E94631B1F
:1038300027960FB6F894DEBF0FBECDBFDF91CF91B4
:103840001F910F91FF90EF900895EF92FF920F93C9
:103850001F93CF93DF9300D000D0CDB7DEB77C01AC
:10386000CB018E010F5F1F4FB8014AE050E00E946C
:103870002C3BF80101900020E9F7AF014150504086
:10388000401B510BC701B8010E94631B26960FB65F
:10389000F894DEBF0FBECDBFDF91CF911F910F9186
:1038A000FF90EF900895EF92FF920F931F93CF93A5
:1038B000DF93CDB7DEB72C970FB6F894DEBF0FBEFF
:1038C000CDBF7C01CB01BA018E010F5F1F4FA80154
:1038D0002AE030E00E94BE3AF80101900020E9F7AA
:1038E000AF0141505040401B510BC701B8010E942D
:1038F000631B2C960FB6F894DEBF0FBECDBFDF91D1
:10390000CF911F910F91FF90EF900895EF92FF924A
:103910000F931F93CF93DF93CDB7DEB72B970FB6DF
:10392000F894DEBF0FBECDBF7C01CB01BA018E0182
:103930000F5F1F4FA8012AE030E00E94073BF8010B
:1039400001900020E9F7AF0141505040401B510B5E
:10395000C701B8010E94631B2B960FB6F894DEBF17
:103960000FBECDBFDF91CF911F910F91FF90EF90D0
:103970000895CF93DF93C82FD92FFB012081318188
:1039800044815581B9010E94631B882321F48C2F47
:103990009D2F0E948E198C2F9D2FDF91CF9108951E
:1039A000CF93DF93C82FD92F6115710579F0E62FDA
:1039B000F72FDF010D900020E9F7AD014150504095
:1039C0004E1B5F0B0E94631B882321F48C2F9D2FBD
:1039D0000E948E198C2F9D2FDF91CF910895CF9348
:1039E000DF93D82FC92F0E94B21B882321F48D2F7B
:1039F0009C2F0E948E198D2F9C2FDF91CF910895BF
:103A0000CF93DF93D82FC92F0E94C61B882321F4A0
:103A10008D2F9C2F0E948E198D2F9C2FDF91CF917F
:103A20000895CF93DF93D82FC92F0E94F31B8823CB
:103A300021F48D2F9C2F0E948E198D2F9C2FDF91AA
:103A4000CF910895CF93DF93D82FC92F0E94251CC3
:103A5000882321F48D2F9C2F0E948E198D2F9C2F4F
:103A6000DF91CF910895CF93DF93D82FC92F0E9474
:103A7000531C882321F48D2F9C2F0E948E198D2F8B
:103A80009C2FDF91CF910895CF93DF93D82FC92F2B
:103A90000E94861C882321F48D2F9C2F0E948E1952
:103AA0008D2F9C2FDF91CF910895DC01FB018D912B
:103AB0009C911197009731F06081718161157105BA
:103AC000D1F40EC0A081B1811097D1F0848195818D
:103AD0000097C9F02C9130E0309521953F4F18C0E8
:103AE00014962D913C9115972115310579F0FC0123
:103AF000208130E00DC00E944B3A282F392F08C09A
:103B000020E030E005C020E030E002C020E030E0FE
:103B1000822F932F0895FC0124813581FB0144817C
:103B200055812417350739F40E94551D21E000976F
:103B300019F020E001C020E0822F0895FC0184816B
:103B40009581009761F46115710539F081E0FB0101
:103B500090819923D9F080E0089581E0089561155E
:103B6000710549F40190F081E02D81E09081992365
:103B700069F080E00895808191810E944B3A282F5E
:103B8000392F81E02115310509F080E008950E9468
:103B9000551D892F881F8827881F08950E94551D4D
:103BA00021E0181619060CF020E0822F08950E94DB
:103BB000551D21E0181619060CF420E0822F0895F7
:103BC0000E94551D892F8095881F8827881F08957A
:103BD000EF92FF920F931F93CF93DF93DC01FB01D2
:103BE0008617970729F114968D919C91159724813A
:103BF000358182179307F1F40097F1F0E080F180AE
:103C00000D911C9111970DC090E00E94083AEC01B3
:103C1000F70181917F0190E00E94083AC817D90707
:103C200069F4F80181918F01882371F781E007C061
:103C300081E005C080E003C081E001C080E0DF9149
:103C4000CF911F910F91FF90EF900895FC01DB0140
:103C500014962D913C91159784819581821B930B2D
:103C600084179507B8F0808191810097A9F06D9134
:103C70007C9111976115710589F0840F951FA90139
:103C80000E945B3A282F392F81E02115310539F048
:103C900080E0089580E0089580E0089580E0089530
:103CA000FC0124813581FB014481558124173507AE
:103CB00028F040E050E00E94261E089580E008951C
:103CC000FC01DB018481958114962D913C9115971F
:103CD00082179307C8F04081518141155105B1F019
:103CE0006D917C9111976115710591F0821B930B79
:103CF000840F951F0E944B3A282F392F81E0211500
:103D0000310539F080E0089580E0089580E008955D
:103D100080E00895FC01848195816817790730F46B
:103D200080819181680F791FFB0140830895FC0118
:103D3000848195816817790720F4808191810097AB
:103D400029F41092D40784ED97E00895860F971F09
:103D50000895FC01848195816817790748F4808172
:103D60009181009739F0680F791FFB0180810895D8
:103D700080E0089580E008950E94A91E08950F93A1
:103D80001F93CF93DF93FC01EB0141155105E9F03F
:103D90002097D9F0848195812817390710F018826F
:103DA00014C0415050408C01021B130B40175107A7
:103DB00008F48A0160817181620F731FCE01A8012E
:103DC0000E94693AC00FD11F1882DF91CF911F91D5
:103DD0000F910895CF93DF93FC018481958148175B
:103DE000590768F4C081D181CE01840F951F70E01E
:103DF0000E94403A009731F08C1B9D0B05C08FEF5D
:103E00009FEF02C08FEF9FEFDF91CF91089540E0C9
:103E100050E00E94EA1E0895CF93DF93FC01848155
:103E200095814817590778F4C081D181FB016081E1
:103E30007181CE01840F951F0E94833A009731F063
:103E40008C1B9D0B05C08FEF9FEF02C08FEF9FEF84
:103E5000DF91CF91089540E050E00E940C1F08953B
:103E6000DF92EF92FF920F931F93CF93DF938C011A
:103E7000DC0114968D919C91159748175907E0F431
:103E80007A010894E11CF11CED91FC911197EE0D63
:103E9000FF1DD0801082CD91DC91CE0170E00E9498
:103EA000783ACE0DDF1DD882009749F0F8012081C5
:103EB0003181821B930B05C08FEF9FEF02C08FEF04
:103EC0009FEFDF91CF911F910F91FF90EF90DF90C7
:103ED0000895FC0144815581415050400E94301F9B
:103EE0000895AF92BF92CF92DF92EF92FF920F931D
:103EF0001F93CF93DF93FC016B017A01DB011496D2
:103F00002D913C9115972115310571F18481958191
:103F1000009771F18217930778F14817590720F03D
:103F20007C010894E108F108C081D1818E010E0D59
:103F30001F1D0C171D0720F1CE01AA24AA94BA2C2C
:103F4000F601608171810E94833A9C010097D9F04B
:103F50008C1B9D0BE816F90608F05C01C90101965F
:103F60000817190768F70FC0AA24AA94BA2C0BC027
:103F7000AA24AA94BA2C07C0AA24AA94BA2C03C0D3
:103F8000AA24AA94BA2C8A2D9B2DDF91CF911F9140
:103F90000F91FF90EF90DF90CF90BF90AF9008957A
:103FA000FC0144815581DB0114968D919C911597FC
:103FB000481B590BCF010E94711F0895BF92CF92E9
:103FC000DF92EF92FF920F931F93CF93DF937C01C9
:103FD0006B018A01E9012417350720F4812F89013B
:103FE000C42FD82FC70165EB72E00E94011AD601D9
:103FF00014968D919C91159780179107C8F08C1796
:104000009D0708F4EC01D601ED91FC911197EC0F9E
:10401000FD1FB08010826D917C91600F711FC701F0
:104020000E94491AF60180819181C80FD91FB88278
:10403000C701DF91CF911F910F91FF90EF90DF901B
:10404000CF90BF900895CF93DF93EC01FB012481C3
:1040500035810E94DE1FCE01DF91CF910895DC01F2
:10406000ED91FC911197309761F08081882349F0A0
:104070003196861719F4DF0111974C9381918823AB
:10408000C1F708954F925F926F927F928F929F92A5
:10409000AF92BF92CF92DF92EF92FF920F931F9356
:1040A000CF93DF933C014B017A01FC01A480B580E2
:1040B000A114B10409F4CAC0FB01C480D580C114A5
:1040C000D10409F4C3C0FA01848195812C014C18F4
:1040D0005D08C201F301008111814114510479F09E
:1040E00018C0F70160817181448155818C2F9D2F0B
:1040F0000E94253AF701048115810C0F1D1FF40160
:1041000060817181C8010E94833AEC01009749F7F0
:104110009DC0992364F1E5013EC0E601C01BD10BAF
:104120008A2D9B2D602F712F4C2F5D2F0E94253AD9
:10413000CA0DDB1DF70160817181448155818C2F8F
:104140009D2F0E94253AF701848195815E01A80E7A
:10415000B91EF401848195818601080F191FF301AE
:1041600084819581840D951D9583848301C05801B8
:10417000F40160817181C8010E94833A6C0100974B
:1041800061F6C501B8010E94543A60C08C010C0D63
:104190001D1DC40DD51DF40160817181C8010E94EF
:1041A000833A009799F7CA15DB0509F44FC0F3016C
:1041B000828193818C179D0708F042C0C301BE0124
:1041C0000E94A019882309F441C03AC05523F4F194
:1041D000C301B4010E94711FEC019923BCF1F301EA
:1041E00060817181F401848195818C0F9D1F680F1E
:1041F000791FF30144815581481B590BCB01840D74
:10420000951D0E942E3AF30184819581840D951DA0
:104210009583848320813181820F931FFC0110825A
:10422000F301808191818C0F9D1FF7016081718165
:10423000448155810E94253AAE0141505040C6CF7D
:10424000F3014481558141505040C0CFDF91CF915F
:104250001F910F91FF90EF90DF90CF90BF90AF90A4
:104260009F908F907F906F905F904F9008950F93E5
:104270001F93CF93DF93FC01C081D181209779F008
:104280008881882361F08E010F5F1F4F90E00E94AC
:10429000083A8993F80181918F018823B9F7DF915A
:1042A000CF911F910F9108950F931F93CF93DF9399
:1042B000FC01C081D181209779F08881882361F049
:1042C0008E010F5F1F4F90E00E94103A8993F80112
:1042D00081918F018823B9F7DF91CF911F910F91C1
:1042E0000895AF92BF92CF92DF92EF92FF920F9319
:1042F0001F93CF93DF937C01DC01CD90DC9011976D
:10430000C114D104F1F11496AD90BC901597A1148D
:10431000B104B9F1E6018E012196F801808190E0A7
:104320000E94003A0097B9F7E5012197CC0DDD1DF9
:10433000888190E00E94003A0097C9F0C017D10729
:10434000B0F02197F5CF8C2D9D2D602F712F4C2F24
:104350005D2F0E94253AD701ED91FC91119714969B
:104360008D919C911597E80FF91F10820AC0219634
:10437000C01BD10BF701D583C483C016D10658F7F3
:10438000E2CFDF91CF911F910F91FF90EF90DF90DF
:10439000CF90BF90AF9008950F931F93FC01808141
:1043A0009181009729F00E94D9398B019C0103C0AB
:1043B00000E010E09801602F712F822F932F1F9142
:1043C0000F9108950E96E82FF92F84E1DF011D92D9
:1043D0008A95E9F7089508952F923F924F925F9240
:1043E0006F927F928F929F92AF92BF92CF92DF9205
:1043F000EF92FF920F931F93CF93DF93CDB7DEB76A
:10440000E4970FB6F894DEBF0FBECDBF2C016A0152
:104410007B0119010E94AF174B015C018201095B0E
:104420001F4F14C00E94AF17DC01CB0188199909F6
:10443000AA09BB09C816D906EA06FB0608F440C259
:1044400062E370E080E090E00E94EB17702E612E36
:10445000C8010E9437061816190624F7802F912FDD
:10446000BE01695F7F4F42E250E00E94E5058F8107
:10447000823009F01DC2F201E95BFF4F8589968900
:104480008334910509F016C20B851C852D853E8568
:10449000432F552766277727B02FAA2799278827E4
:1044A000482B592B6A2B7B2BB22FA12F902F8827BB
:1044B00080709070B070482B592B6A2B7B2BBB27D8
:1044C000A32F922F812F8070A070B0706A017B01A2
:1044D000C82AD92AEA2AFB2AF101C082D182E282C3
:1044E000F382B201685F7F4FCE01839646E050E0D1
:1044F0000E94183A282F392F2115310599F4F2011D
:1045000080819181A281B381C816D906EA06FB0693
:1045100048F084819581A681B7818C159D05AE05F3
:10452000BF0530F4872D962D0E9487058824CAC1C7
:104530008F89988DA98DBA8DF20186879787A08B78
:10454000B18B0EEC10E0872D962D0E940B060150CA
:104550001040C9F788240F2EF2E2EF2EFF24F02D31
:10456000E40CF51C0F2EF6E2AF2EBB24F02DA40CAC
:10457000B51CC2018A969AA789A7F2017A96FAAB6E
:10458000E9ABC201885A9F4F9CAB8BABF20172968C
:10459000FCA7EBA7C20146969EA78DA72224332431
:1045A000F2017E96F8ABEFA7670179C1872D962DB2
:1045B0000E940B068333910509F429C184339105C8
:1045C00094F48130910589F18230910524F40097AB
:1045D00009F465C157C183309105A1F18630910579
:1045E00009F050C14FC08A33910509F4A1C08B3343
:1045F000910544F48533910571F08633910509F0F6
:1046000041C160C08B33910509F4C9C08F3F91054A
:1046100009F038C144C1872D962D0E940B06872DC5
:10462000962D0E940B06882E3AC1872D962D0E944A
:104630000B06872D962D6BA57CA544E050E00E94CB
:10464000E5052DC1872D962D0E940B06082F872D7D
:10465000962D6DA57EA544E050E00E94E50510E092
:1046600004501040101611060CF019C17101872D6D
:10467000962D0E940B060894E11CF11CE016F10631
:10468000B4F30DC1872D962D0E940B06082F872DA0
:10469000962D6FA578A944E050E00E94E50510E052
:1046A00004501040101611060CF0F9C07101872D4E
:1046B000962D0E940B060894E11CF11CE016F106F1
:1046C000B4F3EDC0872D962D0E940B06182FF20132
:1046D000828D938DA48DB58D0097A105B105A9F0AC
:1046E000CE01019669A97AA90E9475138B819C81DC
:1046F000AD81BE81EBA9FCA94081518162817381AA
:1047000084179507A607B70749F4872D962D69A941
:104710007AA944E050E00E94E505C1C0112309F4E4
:10472000BEC0872D962D0E940B061150D1F7B7C041
:10473000872D962D0E940B06872D962DB50144E0FE
:1047400050E00E94E505F20106A117A120A531A5C0
:10475000832F9927AA27BB27702F66275527442721
:10476000482B592B6A2B7B2BB22FA12F902F8827F8
:1047700080709070B070482B592B6A2B7B2BBB2715
:10478000A32F922F812F8070A070B070842B952B57
:10479000A62BB72B86A397A3A0A7B1A780C0872D70
:1047A000962D0E940B06872D962D69A57AA544E0CB
:1047B00050E00E94E505F20102A513A524A535A548
:1047C000832F9927AA27BB27702F662755274427B1
:1047D000482B592B6A2B7B2BB22FA12F902F882788
:1047E00080709070B070482B592B6A2B7B2BBB27A5
:1047F000A32F922F812F8070A070B070842B952BE7
:10480000A62BB72B82A793A7A4A7B5A748C0872D2F
:10481000962D0E940B06872D962DB60144E050E0A0
:104820000E94E505F20102A113A124A135A1832F65
:104830009927AA27BB27702F662755274427482B7F
:10484000592B6A2B7B2BB22FA12F902F882780709A
:104850009070B070482B592B6A2B7B2BBB27A32F52
:10486000922F812F8070A070B070842B952BA62B77
:10487000B72B82A393A3A4A3B5A386A797A7A0ABA6
:10488000B1AB0DC0872D962D0E940B06182F8823E3
:1048900031F0872D962D0E940B061150D1F7872DF0
:1048A000962D0E946D05181619060CF47FCE03C0D4
:1048B000882401C08824872D962D0E94870502C078
:1048C00088248A94882DE4960FB6F894DEBF0FBE34
:1048D000CDBFDF91CF911F910F91FF90EF90DF90AF
:1048E000CF90BF90AF909F908F907F906F905F9090
:1048F0004F903F902F900895CF93DF93EC01625F2C
:104900007F4F0E947513CE01DF91CF910895CF9311
:10491000DF93EC016E5E7F4F0E947513CE01DF9135
:10492000CF910895CF93DF93EC016A5E7F4F0E9491
:104930007513CE01DF91CF910895CF93DF93EC01F2
:10494000665E7F4F0E947513CE01DF91CF9108956F
:10495000CF93DF93EC01625E7F4F0E947513CE010F
:10496000DF91CF91089580E3FB018083329601C0EF
:10497000482F842F82958F704F704A3010F4405D1D
:1049800001C0495C4293882399F708959F92AF92A2
:10499000BF92CF92DF92EF92FF920F931F93CF932C
:1049A000DF93CDB7DEB7AC970FB6F894DEBF0FBE7E
:1049B000CDBF5C01962ED42EC52E80E2FE013D9621
:1049C000DF011D928A95E9F7CE0107966FEF4FEF51
:1049D0002FEF0FEF0E945F130F2EF7E4EF2EFF244F
:1049E000F02DEA0CFB1C83EA92E09A838983898587
:1049F0009A85AB85BC858B839C83AD83BE83C701C1
:104A0000BE016F5F7F4F43E450E00E949E06BFEF00
:104A10008F3F9B0709F4F3C081E08D878E8786E086
:104A20008F87188AF5010481158126813781432FEC
:104A3000552766277727B02FAA2799278827482B3D
:104A4000592B6A2B7B2BB22FA12F902F8827807098
:104A50009070B070842B952BA62BB72B012F122FA3
:104A6000232F3327007020703070802B912BA22BC6
:104A7000B32B898B9A8BAB8BBC8BCD8ADE8A80E87B
:104A800090E0988F8F8B8E01035F1F4FC701B80195
:104A90004CE150E00E94840680E2D8011D928A9584
:104AA000E9F7CC24DD246894C3F8CA0CDB1CF801B8
:104AB000D60186E00D9001928150E1F78E01035FEF
:104AC0001F4FC701B80140E150E00E94840680E218
:104AD000F80111928A95E9F706E010E0C701BE01DE
:104AE000635F7F4F40E250E00E9484060150104017
:104AF000A9F783E68D8792E89E8793E59F87888B49
:104B000085E3898B81E08A8B9B8A9DE39C8B97E070
:104B10009D8B8E8BFE017796D60186E00D900192DB
:104B20008150E1F78CE08D8F8E8FFE017F96A6EB92
:104B3000B2E087E00D9001928150E1F7C501BE011E
:104B40006B5D7F4FD5011B964C910E94B324C5012C
:104B5000BE01695D7F4FF50144850E94B324C50104
:104B6000BE01675D7F4FD5011D964C910E94B32415
:104B7000C701BE01635F7F4F4EE150E00E94840693
:104B8000B3E09B1601F582E38D8784E08E87F50103
:104B900096859F879785988B9089998B91899A8B19
:104BA00096E39B8B8C8B828D8D8B838D8E8B848DEE
:104BB0008F8B858D888FC701BE01635F7F4F4CE06F
:104BC00050E00E94840687E38D8786E08E8791E01F
:104BD0009F8793E0988B898B8FE08A8B8AE38B8BFE
:104BE0008BE38C8B8FEF8D8BC701BE01635F7F4F93
:104BF00049E050E00E948406C7010E949906AC96E5
:104C00000FB6F894DEBF0FBECDBFDF91CF911F91DD
:104C10000F91FF90EF90DF90CF90BF90AF909F905B
:104C200008952F923F924F925F926F927F928F9250
:104C30009F92AF92BF92CF92DF92EF92FF920F932B
:104C40001F93CF93DF93CDB7DEB72A970FB6F894B3
:104C5000DEBF0FBECDBF8C0161E070E080E090E070
:104C600020ED37E040E050E00E947C2CD801149603
:104C70006C93149715967C93159716968C931697AC
:104C800017969C9317976C9311967C931197129695
:104C90008C93129713969C93F801E95BFF4FF8876A
:104CA000EF83CF0164E470E00E94BC06882309F41E
:104CB00041C10E94AF174B015C01CC24DD24FF24CD
:104CC0000F2EF6E46F2E7724F02D600E711EEE2469
:104CD000C801CE969A8789870F2EF8EE2F2EF3E023
:104CE0003F2EF0E04F2EF0E05F2EF02D7E826D82A1
:104CF00038010F2D08C1882321F5F30184819581A6
:104D0000A681B7810196A11DB11D84839583A683D9
:104D1000B7830E94AF17DC01CB0188199909AA0952
:104D2000BB09BC01CD01A20191010E941D37C30145
:104D300061E0A9010E94C62481E0AD81BE818C930F
:104D4000C6C0843021F5F30184819581A681B781A5
:104D50000196A11DB11D84839583A683B7830E940C
:104D6000AF17DC01CB0188199909AA09BB09BC015D
:104D7000CD01A20191010E941D37C30163E0A90189
:104D80000E94C624E2E0AD81BE81EC93A0C08130D8
:104D900089F5A985BA854D915D916D917C91C3018D
:104DA0009E012F5F3F4F0E94EC21082F823009F0B7
:104DB0008EC089819A81AB81BC81F3018483958304
:104DC000A683B7830E94AF17DC01CB01881999092C
:104DD000AA09BB09BC01CD01A20191010E941D37A6
:104DE000C30163E0A9010E94C624E2E0AD81BE8157
:104DF000EC9373C0823009F06AC0A985BA854D91E1
:104E00005D916D917C91C3019E012F5F3F4F0E9488
:104E1000EC21082F853009F054C083E0ED81FE813C
:104E20008083F30182A193A1A4A1B5A10097A1055C
:104E3000B10541F484E893E0A0E0B0E082A393A33D
:104E4000A4A3B5A3F30186A197A1A0A5B1A500973E
:104E5000A105B10561F482A193A1A4A1B5A1B69564
:104E6000A7959795879586A397A3A0A7B1A7F301C8
:104E700082A593A5A4A5B5A50097A105B10561F4E8
:104E800086A197A1A0A5B1A5880F991FAA1FBB1F36
:104E900082A793A7A4A7B5A7F30186A197A1A0A570
:104EA000B1A586A797A7A0ABB1AB82A593A5A4A5F2
:104EB000B5A582AB93ABA4ABB5ABCC24DD24C39436
:104EC00006C0863021F4AD81BE811C9206C00F3F22
:104ED00021F4ED81FE8110820E2DF1E0CF16D10478
:104EE00091F00E94AF17DC01CB0188199909AA093A
:104EF000BB09F30142AD53AD64AD75AD4817590719
:104F00006A077B0730F0AD81BE818C91833009F058
:104F1000F2CE8F8198850E94A706F3018481958146
:104F2000A681B7810196A11DB11D84839583A683B7
:104F3000B78302C0CC24DD248C2D9D2D2A960FB67C
:104F4000F894DEBF0FBECDBFDF91CF911F910F91BF
:104F5000FF90EF90DF90CF90BF90AF909F908F9099
:104F60007F906F905F904F903F902F9008956F9239
:104F70007F928F929F92AF92BF92CF92DF92EF92E9
:104F8000FF920F931F93CF93DF93EC010E94AF1713
:104F9000C62ED72EE82EF92E8EA99FA9A8ADB9ADA1
:104FA0000097A105B10509F4A2C0FE01EE5BFF4F19
:104FB00080819181A281B381A7019601281B390BC1
:104FC0004A0B5B0BCA01B9010AF45AC03F010F2E0C
:104FD000F8EE8F2EF3E09F2EF0E0AF2EF0E0BF2E24
:104FE000F02D8C0C9D1CAE1CBF1C28EE33E040E065
:104FF00050E00E943F3789019A01DC01CB01B501E5
:10500000A401481B590B6A0B7B0BF30140835183AE
:10501000628373830F5F1F4F2F4F3F4F4EA55FA5D6
:1050200068A979A9D901C801880F991FAA1FBB1FB8
:10503000481759076A077B072CF41EA61FA618AA53
:1050400019AA08C0401B510B620B730B4EA75FA738
:1050500068AB79AB4AA95BA96CA97DA94817590728
:105060006A077B072CF41AAA1BAA1CAA1DAA08C04F
:10507000401B510B620B730B4AAB5BAB6CAB7DAB54
:10508000FE01EA5BFF4F20812330A9F48EA59FA586
:10509000A8A9B9A9181619061A061B068CF08F01C3
:1050A00084E08083CE010E9411260196F8012081C0
:1050B000233041F002C080E090E0222319F026C0A6
:1050C00080E090E04AA95BA96CA97DA91416150699
:1050D00016061706DCF0FE01EA5BFF4F1082CE01D8
:1050E0000E94E221CE010E94112603960FC0FE010C
:1050F000EE5BFF4FD701C60188519C4FAF4FBF4FAA
:1051000080839183A283B38380E090E0CEAADFAA5C
:10511000E8AEF9AEDF91CF911F910F91FF90EF9024
:10512000DF90CF90BF90AF909F908F907F906F90C7
:105130000895AF92BF92CF92DF92EF92FF920F93BA
:105140001F93CF93DF936C01B62EA72EDA01C9010E
:10515000F60112A213A214A215A216A217A210A65B
:1051600011A612A613A614A615A616AA17AA10AE63
:1051700011AE82AF93AFA4AFB5AFFE96E082F182DD
:1051800002831383E601289686E0FE0111928A9538
:10519000E9F7C6010E94E221EB2DFA2D86E001908D
:1051A00009928150E1F7F601EA5BFF4F1082C601D8
:1051B0000E941126DF91CF911F910F91FF90EF90E8
:1051C000DF90CF90BF90AF9008950F9385ED97E05B
:1051D00060E040E020E000E00E945F130F9108953E
:1051E000CF93DF93FC01EB018A819B81AC81BD8170
:1051F00082839383A483B58317821682DF91CF9134
:1052000008950F931F93CF93DF93DB01EA018C91F5
:10521000882329F0FB01319681918823E9F780E00A
:1052200090E040E050E000E010E01CC08F3F9105AE
:1052300009F054F5FE01E40FF51F82834F5F5F4FC5
:10524000C80110C09C01220F331F880F991F880FBF
:10525000991F880F991F280F391F862F90E0C0973C
:10526000820F931F6D916623E1F044305105CCF419
:105270006E3241F7DBCF443051054CF4C40FD51FDB
:105280008A8381E090E008C080E090E005C080E083
:1052900090E002C080E090E0DF91CF911F910F91EC
:1052A00008958F3F910539F334F3F4CFAF92BF9255
:1052B000CF92DF92EF92FF920F931F93CF93DF93E2
:1052C00000D0CDB7DEB78C017B010E94AF17DC01A7
:1052D000CB01F80197838683AA24BB246894A3F8A2
:1052E000A00EB11EB8016A5F7F4FC50142E050E0D9
:1052F0000E94840681E090E09B838A83C501BE0101
:105300006E5F7F4F42E050E00E94840680E091E0B3
:105310009B838A83C501BE016E5F7F4F42E050E0F0
:105320000E9484061B821A82C501BE016E5F7F4FF8
:1053300042E050E00E948406C501BE016E5F7F4FCF
:1053400042E050E00E948406C501BE016E5F7F4FBF
:1053500042E050E00E948406F7018081882311F525
:1053600027C07F018191882309F451C08E32C9F78B
:105370004EC00983C501BE016F5F7F4F41E050E021
:105380000E948406C501B601A8010E948406F701A7
:105390008081882369F067010894C11CD11C9C2D71
:1053A0008D2D03C067019E2D8F2DE92FF82FD9CFAA
:1053B0001982C501BE016F5F7F4F41E050E00E943E
:1053C000840600E011E01B830A83C501BE016E5F05
:1053D0007F4F42E050E00E9484061B830A83C50190
:1053E000BE016E5F7F4F42E050E00E94840681E084
:1053F00090E00F900F900F90DF91CF911F910F9140
:10540000FF90EF90DF90CF90BF90AF90089587010D
:105410000C191D09101611060CF4ABCFB8CF2F9242
:105420003F924F925F926F927F928F929F92AF9234
:10543000BF92CF92DF92EF92FF920F931F93CF9381
:10544000DF93CDB7DEB763970FB6F894DEBF0FBE1C
:10545000CDBF6C018B011A010E94AF172B013C01DB
:10546000EE24FF246894E3F8EC0CFD1C4801AA2408
:10547000BB2414C00E94AF17DC01CB01841995092D
:10548000A609B70988169906AA06BB0608F43BC107
:1054900062E370E080E090E00E94EB170E2D1F2D7C
:1054A000C7010E9437061816190624F7F601428133
:1054B000538164817581818D928DA38DB48D481740
:1054C00059076A077B0709F021C1858D968D8533C1
:1054D000910509F01EC18E2D9F2D0E946D058C3007
:1054E00091050CF419C18E2D9F2DBE01685F7F4F71
:1054F0004CE050E00E94E5058A859B85582F492F96
:105500005F834E83F6012681378188859985281728
:10551000390711F455233CF0802F912F0E94870505
:105520008CEF9FEFFBC04F7052704115510539F061
:105530008E2D9F2D0E9487058BEF9FEFEFC08E84ED
:105540009F849824892498248114910459F08C858F
:105550009D85009771F4CC24DD244424552468945F
:1055600042F83EC08E2D9F2D0E9487058AEF9FEF47
:10557000D5C0CC24DD2444245524689442F8802FDF
:10558000912FBE016F5F7F4F41E050E00E94E50523
:105590008981882371F081508983802F912F0E9407
:1055A0000B068981982F915099838823B1F799230D
:1055B00031F77201802F912F0E940B060894E108A9
:1055C000F108E114F104B1F70894C11CD11C8C85D9
:1055D0009D85982789279827C816D90680F2BBCFC2
:1055E000802F912FBE016F5F7F4F41E050E00E94FE
:1055F000E5058981982F907C79F48823A9F0815062
:105600008983802F912F0E940B068981982F9150BA
:1056100099838823B1F706C0802F912F0E940B0633
:10562000198202C09923E1F6802F912FBE016C5F91
:105630007F4F42E050E00E94E505802F912FBE0190
:105640006E5F7F4F42E050E00E94E5057201802FBF
:10565000912F0E940B060894E108F108E114F1046F
:10566000B1F7802F912FBE016A5F7F4F42E050E07B
:105670000E94E5058C819D81F1E080309F0729F033
:105680008E819F81009701F530C08A819B8121E046
:1056900080309207A9F78E819F81E4E080309E07D9
:1056A00039F0802F912F0E94870587EF9FEF36C03A
:1056B000B1016E5F7F4F802F912F44E050E00E9438
:1056C000E50581E090E02AC0EE24FF24802F912F91
:1056D0000E940B060894E11CF11C8E819F81982783
:1056E00089279827E816F90688F30894C11CD11C6D
:1056F000C814D90409F074CF802F912F0E94870518
:1057000086EF9FEF0BC08FEF9FEF08C08EEF9FEFEC
:1057100005C08EEF9FEF02C08DEF9FEF63960FB62F
:10572000F894DEBF0FBECDBFDF91CF911F910F91D7
:10573000FF90EF90DF90CF90BF90AF909F908F90B1
:105740007F906F905F904F903F902F9008958F9231
:105750009F92AF92BF92CF92DF92EF92FF920F9300
:105760001F93CF93DF9300D000D0CDB7DEB77C017D
:105770006B015A010E940129009709F069C0F701E5
:1057800082819381A481B5814091DD075091DE072C
:105790006091DF077091E00784179507A607B707A8
:1057A00009F459C088249924689483F88E0C9F1CAE
:1057B0000E94AF176F70707060507C4FC4010E94E0
:1057C000BC06813009F04AC083EA92E09A8389835B
:1057D000F70182819381A481B5818B839C83AD8302
:1057E000BE83C401BE016F5F7F4F45E350E00E945E
:1057F0009E068C01009741F1C701B6010E9456290F
:10580000082F192F01151105F9F0C4010E949906FE
:105810008C01009731F418C0FFEF0F3F1F07A1F470
:1058200005C00F2EF3E0CF2EDD24F02DC70168E870
:1058300073E1A5010E940F2A082F192F0894C108AF
:10584000D108C114D10441F7C4010E94A70608C0C1
:1058500001E010E005C00EEF1FEF02C000E010E015
:10586000802F912F26960FB6F894DEBF0FBECDBFC6
:10587000DF91CF911F910F91FF90EF90DF90CF902C
:10588000BF90AF909F908F9008950F938BED97E00E
:1058900060E040E020E000E00E945F130F91089577
:1058A000009729F0BC0180E090E00E94EE38089556
:1058B000CF92DF92EF92FF920F931F936B017C01C7
:1058C000611571058105910549F00E94E938A7012C
:1058D00096010E943F378B019C0103C000E010E05D
:1058E0009801602F712F822F932F1F910F91FF909E
:1058F000EF90DF90CF900895CF92DF92EF92FF92DA
:105900006B017C01DA01C901C216D306E406F50673
:1059100074F48C199D09AE09BF09BC01CD010E9428
:10592000582CDC01CB01C80ED91EEA1EFB1E6C2DC3
:105930007D2D8E2D9F2DFF90EF90DF90CF900895BD
:105940004F925F926F927F92AF92BF92CF92DF920F
:10595000EF92FF920F931F93CF93DF9300D00F929C
:10596000CDB7DEB729013A01E982FA820B831C83A5
:1059700076016501621B730B840B950B2E893F89A1
:10598000488D598D2C193D094E095F090E94FE363C
:1059900029813A814B815C812419350946095709CF
:1059A0000E943F37C20ED31EE41EF51E6C2D7D2DC6
:1059B0008E2D9F2D0F900F900F900F90DF91CF9114
:1059C0001F910F91FF90EF90DF90CF90BF90AF901D
:1059D0007F906F905F904F900895089570E0382FFA
:1059E00020E0262B372B822F932F0895FC01138A5A
:1059F000128A08950E94F62C08952F923F924F929A
:105A00005F926F927F928F929F92AF92BF92CF924E
:105A1000DF92EF92FF920F931F93CF93DF9300D00B
:105A20000F920F92CDB7DEB74C013B01842F952F1B
:105A3000FB01E80FF91F208101969A8389832430A6
:105A400009F087C0CB01BE016F5F7F4F0E944330DA
:105A5000D40151969C938E93509729813A81F301FA
:105A6000E20FF31F4081C9010396423009F071C073
:105A7000860D971DFC0180812C5F3F4F3A8329835F
:105A8000282F30E03C832B83121613060CF061C0E4
:105A900044245524A82C9D8289819A81F301E80F22
:105AA000F91FB08001969A838983C301BE016F5F9D
:105AB0007F4F0E9443301C01D40152968D919C91DE
:105AC000539718161906B4F50A2D1D81EE24FF24EC
:105AD0006801D801ED91FC91119782818B15F9F441
