:100000000C9420010C944E280C947F280C94B0285A
:100010000C94E1280C9412290C9443290C94742913
:100020000C94A5290C9451010C9451010C9451018C
:100030000C9451010C9451010C9451010C945101F8
:100040000C9451010C9401220C9451010C94510117
:100050000C9451010C9451010C9451010C94D6292B
:100060000C9451010C9491190C94911A0C94510117
:100070000C9451010C9451010C9451010C945101B8
:100080000C94D6220C9451010C9451010C94510102
:100090000C94C9190C94D01A0C9451010C94510170
:1000A0000C9451010C9451010C94AB230C9451010C
:1000B0000C9451010C9451010C9451010C94802426
:1000C0000C9451010C9451010C9451010C94011A9F
:1000D0000C940F1B0C9451010C94391A0C944E1B68
:1000E0000C945101084AD73B3BCE016E84BCBFFD46
:1000F000C12F3D6C74319ABD56833DDA3D00C77FF8
:1001000011BED9E4BB4C3E916BAAAABE0000008090
:100110003F0000090A02080B0C0D0706030401004A
:1001200000000000000000000000000000000000CF
:100130000000000000000000000000000011100F8F
:1001400000000000000000000000000000000000AF
:10015000000000000000000102102020080810200C
:100160004010204080020102010804020101020443
:100170000810204080804020100804020180040202
:100180000180402010080402010804020101020459
:100190000810204080010204081020408005050559
:1001A00005070508080808020202020A0A080804EE
:1001B000040404010101010101010103030303031C
:1001C000030303040707070C0C0C0C0C0C0C0C02AB
:1001D00002020206060606060606060B0B0B0B0BB2
:1001E0000B0B0B000020002300260029002C002F01
:1001F0000032000001000003010601090100002295
:1002000000250028002B002E0031003400020100E0
:1002100000050108010B0100002100240027002A2D
:10022000002D003000330001010000040107010A25
:1002300001001E0AEE0F1512FA1C561E123D7240E6
:1002400011241FBECFEFD1E2DEBFCDBF00E00CBF57
:1002500013E0A0E0B2E0E6E2FFE900E00BBF02C07D
:1002600007900D92A23CB107D9F719E0A2ECB3E0D8
:1002700001C01D92A33FB107E1F712E0C0E4D2E054
:1002800000E006C022970109FE010BBF0E94824BCD
:10029000C233D10780E00807A9F70E94D00A0C9466
:1002A000914F0C940000A0915306B0915406ED912B
:1002B000FD918081ED91FD919081ED91FD916C9189
:1002C00063708E2309F064609F2309F06860E3E7A0
:1002D000F1E0E60FF11D659565956D936D917D914A
:1002E0008D919D91099423C01AC012C016C010C0F0
:1002F0001EC009C014C013C006C019C009C00DC07B
:1003000007C00DC014C062507040804090400BC0C8
:10031000615070408040904006C06E5F01C06F5FCA
:100320007F4F8F4F9F4F9E938E937E936E93089532
:10033000CF93DF93DA01EC01629620E030E08D91FB
:100340009C9111974991FB01E80FF91F4083019699
:1003500011969C938E932F5F3F4F2430310579F790
:10036000DF91CF910895CF93DF93EC0189850E94AF
:10037000F42A2B813C81AC01421B530B9A018A81E8
:10038000882319F08FEF9FEF02C081E090E0289F53
:10039000B001299F700D389F700D1124882777FDBB
:1003A0008095982F0E94D449DC01CB018D839E83D8
:1003B000AF83B887DF91CF910895EF92FF920F93AB
:1003C0001F93CF93DF930F920F92CDB7DEB77C01CF
:1003D0008B015A834983CB01BE016F5F7F4F0E941F
:1003E000A147DC01CB01F70186839783A087B18702
:1003F000C801BE016F5F7F4F0E94A147DC01CB01A6
:10040000F70182879387A487B587C801BE016F5F14
:100410007F4F0E94A147DC01CB01F70186879787B8
:10042000A08BB18BC801BE016F5F7F4F0E94A147B7
:10043000DC01CB01F701868F978FA0A3B1A3C80180
:10044000BE016F5F7F4F0E94A147DC01CB01F70126
:10045000868B978BA08FB18FC801BE016F5F7F4FD6
:100460000E94A147DC01CB01F701828F938FA48FFB
:10047000B58F0F900F90DF91CF911F910F91FF904B
:10048000EF900895A0915D06B0915E06ED91FD910B
:100490008081ED91FD919081ED91FD916C91637062
:1004A0008E2309F064609F2309F06860E2E6F2E0C1
:1004B000E60FF11D659565956D936D917D918D911B
:1004C0009D91099423C01AC012C016C010C01EC04E
:1004D00009C014C013C006C019C009C00DC007C0B0
:1004E0000DC014C062507040804090400BC06150FD
:1004F00070408040904006C06E5F01C06F5F7F4FCC
:100500008F4F9F4F9E938E937E936E930895A091ED
:100510005B06B0915C06ED91FD918081ED91FD91BE
:100520009081ED91FD916C9163708E2309F0646070
:100530009F2309F06860E7EAF2E0E60FF11D659598
:1005400065956D936D917D918D919D91099423C0D9
:100550001AC012C016C010C01EC009C014C013C0FB
:1005600006C019C009C00DC007C00DC014C062503C
:100570007040804090400BC061507040804090407F
:1005800006C06E5F01C06F5F7F4F8F4F9F4F9E937E
:100590008E937E936E930895A0915906B0915A065A
:1005A000ED91FD918081ED91FD919081ED91FD9115
:1005B0006C9163708E2309F064609F2309F068607A
:1005C000ECEEF2E0E60FF11D659565956D936D918A
:1005D0007D918D919D91099423C01AC012C016C0BF
:1005E00010C01EC009C014C013C006C019C009C085
:1005F0000DC007C00DC014C06250704080409040D4
:100600000BC0615070408040904006C06E5F01C0DA
:100610006F5F7F4F8F4F9F4F9E938E937E936E930E
:100620000895A0915706B0915806ED91FD918081F3
:10063000ED91FD919081ED91FD916C9163708E2310
:1006400009F064609F2309F06860E1E3F3E0E60FDE
:10065000F11D659565956D936D917D918D919D9140
:10066000099423C01AC012C016C010C01EC009C011
:1006700014C013C006C019C009C00DC007C00DC00A
:1006800014C062507040804090400BC06150704078
:100690008040904006C06E5F01C06F5F7F4F8F4FFC
:1006A0009F4F9E938E937E936E930895A0915506CF
:1006B000B0915606ED91FD918081ED91FD91908173
:1006C000ED91FD916C9163708E2309F064609F231E
:1006D00009F06860E6E7F3E0E60FF11D65956595C2
:1006E0006D936D917D918D919D91099423C01AC058
:1006F00012C016C010C01EC009C014C013C006C06E
:1007000019C009C00DC007C00DC014C062507040B0
:10071000804090400BC0615070408040904006C0C7
:100720006E5F01C06F5F7F4F8F4F9F4F9E938E9381
:100730007E936E9308950F931F93CF93DF93EC01F5
:10074000162F042F862F62E00E947B2C802F62E000
:100750000E947B2C212F30E0F901E356FE4FE491FB
:10076000F0E0EE0FFF1FED51FE4F859194918883CD
:100770009983295A3E4FF90124912C83202F30E090
:10078000F901E356FE4FE491F0E0EE0FFF1FED514B
:10079000FE4F859194918A839B83295A3E4FF9019C
:1007A00024912D831F82188619861A8680ED97E082
:1007B0000E94852AE881F98190818C81982381E0CB
:1007C00009F480E0EA81FB8120819D81922309F078
:1007D00082608E831B86123109F44CC0133130F4D1
:1007E000123061F0133009F0B0C014C0143151F16F
:1007F0001431A0F1153109F0A8C018C0D0935406E7
:10080000C093530680E063E571E041E050E00E9450
:10081000A8273BC0D0935606C093550681E066E5F5
:1008200073E041E050E00E94A8272FC0D093580603
:10083000C093570682E061E173E041E050E00E941E
:10084000A82723C0D0935A06C093590683E06CECC6
:1008500072E041E050E00E94A82717C0D0935C06E8
:10086000C0935B0684E067E872E041E050E00E94DC
:10087000A8270BC0D0935E06C0935D0685E062E4B6
:1008800072E041E050E00E94A8278B858F5F8B8744
:10089000023109F44CC0033130F4023061F003300E
:1008A00009F050C014C0043151F10431A0F10531F8
:1008B00009F048C018C0D0935406C093530680E096
:1008C00063E571E041E050E00E94A8273BC0D0936F
:1008D0005606C093550681E066E573E041E050E0BE
:1008E0000E94A8272FC0D0935806C093570682E0D5
:1008F00061E173E041E050E00E94A82723C0D0935B
:100900005A06C093590683E06CEC72E041E050E077
:100910000E94A82717C0D0935C06C0935B0684E0B2
:1009200067E872E041E050E00E94A8270BC0D09336
:100930005E06C0935D0685E062E472E041E050E04F
:100940000E94A8278B858F5F8B87DF91CF911F91A6
:100950000F910895CF93DF93CEEED6E0CE0160E005
:1009600072E00E940B1F40910106509102066091B7
:10097000030670910406CE0122E030E00E94B82107
:10098000CE0167E072E00E940B1F40911E0650915D
:100990001F066091200670912106CE0122E030E012
:1009A0000E94B821CE0161E172E00E940B1F4091CC
:1009B000290650912A0660912B0670912C06CE01D3
:1009C00022E030E00E94B821CE016BE172E00E948B
:1009D0000B1F40912F0650913006609131067091A7
:1009E0003206CE0122E030E00E94BB21DF91CF91A0
:1009F0000895AF92BF92CF92DF92EF92FF920F9342
:100A00001F93CF93DF93CDB7DEB72C970FB6F89433
:100A1000DEBF0FBECDBF6E010894C11CD11C760194
:100A200008E0802F0E94F42AF701819391937F01BF
:100A30000F5F0E30B1F70EEE16E06091C2037091B9
:100A4000C303C8014AE050E00E94B920C80162E235
:100A500072E00E940B1F8E01035F1F4F0F2EFEEEF0
:100A6000EF2EF6E0FF2EF02D0F2EF2E2AF2EF2E089
:100A7000BF2EF02DF601619171916F01C7014AE01F
:100A800050E00E94B920C701B5010E940B1FC0169B
:100A9000D10681F70E94202AAB01BC010EEE16E0C0
:100AA000C8012AE030E00E946B20C8010E94311F7B
:100AB0002C960FB6F894DEBF0FBECDBFDF91CF915D
:100AC0001F910F91FF90EF90DF90CF90BF90AF906C
:100AD0000895682F8DE00E94AF2C08954F925F9289
:100AE0006F927F928F929F92AF92BF92EF92FF92FE
:100AF0000F931F9349015A01905820E030E040E8DD
:100B00005FEB0F2EF0E0EF2EF0E0FF2EF0E80F2F5E
:100B1000FFE31F2FF02D0E94760C2B013C01C50135
:100B2000B40120E030E040E85FEB0E94760C4B011E
:100B30005C01C301B20120E030E84BE354E40E94C1
:100B4000B44A20E030E040EA52E40F2EF0E0EF2E0D
:100B5000F0E8FF2EFBE30F2FF4E41F2FF02D0E948F
:100B6000D10C20E030E84BEB54E40E946F480E9427
:100B7000A149AB01BC0186EE95E0BA010E941626A0
:100B8000C501B401A80197010E94B44A20E030E0F9
:100B900040EA52E40E94D10C20E030E44AEB54E4F5
:100BA0000E946F480E94A149AB01BC0183EE95E011
:100BB000BA010E9416261F910F91FF90EF90BF90EF
:100BC000AF909F908F907F906F905F904F9008951F
:100BD0002F923F924F925F926F927F928F929F924D
:100BE000AF92BF92CF92DF92EF92FF920F931F933B
:100BF000CF93DF9300D00F92CDB7DEB769837A83AE
:100C00008B839C8329013A01809113068823E1F0AC
:100C100080910506909106060E94DF0A80910706E2
:100C200090910806DC01ED91FC910190F081E02D9E
:100C300019958091090690910A06DC01ED91FC91CD
:100C40000190F081E02D1995E0910706F0910806DA
:100C50006581768187819085E0910906F0910A0689
:100C600025813681478150850E94E24820E030E0AE
:100C700044E353E40E94B44A2BED3FE049E450E4DE
:100C80000E9439490E94A1490E94D449362EA72EBC
:100C9000082FB92E8090050690900606F401448135
:100CA00055816681778180911406882371F0832DA8
:100CB0009A2DA02FBB2D8093010690930206A0933E
:100CC0000306B093040610921406CB01BA012091DA
:100CD00001063091020640910306509104060E94DD
:100CE0006F4820910B0630910C0640910D065091F3
:100CF0000E060E94B44A6B017C01832D9A2DA02F11
:100D0000BB2DBC01CD0120910F0630911006409102
:100D10001106509112060E94B44A9B01AC01C70112
:100D2000B6010E946F48362E272EB82EA92E382FD6
:100D3000862F922DAB2DBA2D80930106909302063B
:100D4000A0930306B093040669817A818B819C810C
:100D5000032D122D232F3B2FA90198010E946E48CD
:100D6000C62ED72EE82EF92E462F572F682F792F13
:100D7000CB01BA0120E030E0A9010E94A94A18166F
:100D800024F0F7FAF094F7F8F094C701B601209137
:100D9000F3033091F4034091F5035091F6030E9460
:100DA000A94A181684F480E090E0DC018093D7050E
:100DB0009093D805A093D905B093DA056C017D0115
:100DC0002C013D0113C0D401CD90DD90ED90FC903D
:100DD0008BEC95E0432D522D6B2D7A2D09811A81D4
:100DE0002B813C810E94AC0B6B017C01C701B601D9
:100DF000A30192010E946F484B015C01C701B6013B
:100E0000A30192010E946E489B01AC01C501B4018F
:100E10000E946E050F900F900F900F90DF91CF9171
:100E20001F910F91FF90EF90DF90CF90BF90AF9008
:100E30009F908F907F906F905F904F903F902F90FA
:100E400008954F925F926F927F928F929F92AF928E
:100E5000BF92CF92DF92EF92FF920F931F93CF93A7
:100E6000DF93CDB7DEB72C970FB6F894DEBF0FBE79
:100E7000CDBF0E94322A69877A878B879C878091B1
:100E8000C8039091C903A091CA03B091CB03009706
:100E9000A105B10561F429853A854B855C852093D0
:100EA000C8033093C9034093CA035093CB03809186
:100EB000C8039091C903A091CA03B091CB032985BF
:100EC0003A854B855C85281B390B4A0B5B0BCA01A5
:100ED000B9010E94D24920E034E244E759E40E947B
:100EE0003949DC01CB018093C4039093C503A093DF
:100EF000C603B093C7030E94202A2B013C018091B6
:100F0000C7059091C805A091C905B091CA054816BA
:100F100059066A067B0640F41092C7051092C80570
:100F20001092C9051092CA058CE194E00E94E3106A
:100F30008C01181619060CF06DC00F2EFEEEAF2EA8
:100F4000F6E0BF2EF02DC50164E272E00E940B1F97
:100F5000C501B8014AE050E00E94B9200F2EFCE123
:100F6000CF2EF4E0DF2EF02D0F2EFBE1EF2EFF242D
:100F7000F02DEC0CFD1CC601B70148EC50E00E94BE
:100F800091100F2EFCEE8F2EFFEF9F2EF02D8C0C6C
:100F90009D1CC401B70140E050E098010E948440CC
:100FA00018861F820FEF14E0C401B801AE01495F3B
:100FB0005F4F0E944841C5016EE272E00E940B1F24
:100FC0006F817885C5014AE050E00E943F208BE4A4
:100FD00093E09A83898380912D0490912E04A091AF
:100FE0002F04B09130048B839C83AD83BE834091EA
:100FF000310450913204C601BE016F5F7F4F0E94E1
:101000004A114F815885C601B8010E943011C601AE
:101010000E9445118091C7059091C805A091C9050E
:10102000B091CA058C509E4FAF4FBF4F61E0841501
:101030009505A605B70508F060E06093070488E011
:1010400094E00E94EB414091EF035091F0036091D6
:10105000F1037091F2038EEE96E022E030E00E9400
:10106000B8216091C4037091C5038091C60390912B
:10107000C7032AE037ED43E25CE30E94A94A8823D4
:101080000CF45EC08091DB039091DC03A091DD0342
:10109000B091DE038093CB059093CC05A093CD0552
:1010A000B093CE058091DF039091E003A091E1031E
:1010B000B091E2038093CF059093D005A093D10522
:1010C000B093D2058091E3039091E403A091E503EE
:1010D000B091E6038093D3059093D405A093D505F2
:1010E000B093D60589859A85AB85BC858093C80366
:1010F0009093C903A093CA03B093CB036091EB0311
:101100007091EC038091ED039091EE032091EF0339
:101110003091F0034091F1035091F2030E94E805F1
:101120008091010690910206A0910306B0910406F9
:101130008093E7039093E803A093E903B093EA0355
:101140002C960FB6F894DEBF0FBECDBFDF91CF91C6
:101150001F910F91FF90EF90DF90CF90BF90AF90D5
:101160009F908F907F906F905F904F900895EF9237
:10117000FF920F931F93CF93DF93EC017B010EEE51
:1011800016E0C80168E372E00E94691FBE0188276B
:1011900077FD8095982F0E945C2AC80160E572E077
:1011A0000E94691F1E141F048CF4C0E0D0E00FE2FF
:1011B00016E0C8010E94540B65E070E080E090E00A
:1011C0000E945C2A2196CE15DF0599F78FE296E002
:1011D0000E947A0BCEEED6E0CE016FE572E00E945F
:1011E000691FCE0165E772E00E940B1F60913D060A
:1011F00070913E06CE014AE050E00E94B920DF9196
:10120000CF911F910F91FF90EF9008958F929F9231
:10121000AF92BF92CF92DF92EF92FF920F931F9304
:10122000CF93DF93CDB7DEB72C970FB6F894DEBF20
:101230000FBECDBF8DE061E00E947B2C81E00E945B
:1012400069050EEE16E0C80140E052EC61E070E086
:101250000E94CC1BC80161E872E00E94691F81E016
:101260008093FD0388EB92E290930604809305043B
:10127000DE011796E9EAF2E086E001900D928150D6
:10128000E1F7FE013796A7EFB3E0CE010D9621916D
:101290002D93E817F907D9F707EF13E08FE596E0EC
:1012A000B8010E94420D7C01609105047091060412
:1012B000C80185960E94681181E0E114F10409F0EB
:1012C00080E08093040408E014E0C80165ED73E059
:1012D0000E941E42C8016CEC73E00E941E428AE02C
:1012E00097EDA3EABDEB8093DB039093DC03A0931F
:1012F000DD03B093DE038AE097EDA3EABBEB8093B6
:10130000DF039093E003A093E103B093E2038FE641
:1013100092E1A3E0BAE38093E3039093E403A09304
:10132000E503B093E60380E090E0A0E0B1EC8093A9
:10133000EB039093EC03A093ED03B093EE0380E0F6
:1013400090E0DC018093EF039093F003A093F1030E
:10135000B093F20380E090E0A0E4B0E48093F30364
:101360009093F403A093F503B093F6038EEE96E00A
:1013700060E972E00E940B1F8E010D5F1F4F0F2E60
:10138000F7E0EF2EFF24F02DEC0EFD1E0F2EFFE5F3
:10139000AF2EF6E0BF2EF02D0F2EFEEECF2EF6E094
:1013A000DF2EF02D0F2EF0EA8F2EF2E09F2EF02D83
:1013B000CE010196B5010E94A80FF80161918F013D
:1013C000C6014AE050E00E945120C601B4010E94CB
:1013D0000B1F0E151F0561F70EEE16E0C8010E94E7
:1013E000311F80ED97E068EC70E00E94B70883EE53
:1013F00095E062E070E00E94012686EE95E063E0F1
:1014000070E00E940126C80162EA72E00E94691F32
:1014100080E00E9469052C960FB6F894DEBF0FBEDF
:10142000CDBFDF91CF911F910F91FF90EF90DF9093
:10143000CF90BF90AF909F908F900895CF92DF9202
:10144000EF92FF920F931F93CF93DF938DE496E07B
:1014500060E040E020E000E00E940B1ECFE2D6E01A
:10146000CE0169E070E020E030E040E85FE30E94F8
:10147000D70A23EB32E030932506209324068CE034
:1014800090E090932E0680932D0684EF91E0909348
:1014900028068093270641E04093260630931A06DB
:1014A000209319062DE030E0309323062093220686
:1014B00090931D0680931C0640931B06D09306064E
:1014C000C093050689E196E090930806809307068D
:1014D00084E296E090930A068093090688E491EEF0
:1014E000AAE7BFE380930B0690930C06A0930D062A
:1014F000B0930E0680E097EDA3EABCE380930F065D
:1015000090931006A0931106B09312064093130611
:101510004093140685EF95E065E142E10E949B034C
:1015200089EE95E064E141E10E949B0386EE95E03F
:101530000E944B2583EE95E00E944B258BEC95E0B5
:1015400040E050E0BA018A019B016A017B010E94E0
:10155000920BCEEFD3E0CE010E94011ECE010A967F
:101560000E948140CE014E960E94A11185ED93E02C
:101570000E948E4289EB92E09093D6038093D5032C
:101580008FEF8093D7038CEC93E00E949E42DF9113
:10159000CF911F910F91FF90EF90DF90CF90089522
:1015A0000E948F2A0E9406090E942107FDCFFC019C
:1015B00075876487208B318B428B538B0895EF9214
:1015C000FF920F931F93CF93DF93EC010E94322A77
:1015D000DC01CB014A8D5B8D6C8D7D8D8C019D0175
:1015E000041B150B260B370B8A8F9B8FAC8FBD8F7F
:1015F000C901B8010E94D44920E034E244E759E42B
:101600000E943949DC01CB0188879987AA87BB876B
:101610008C850E94F42A9C01B901882777FD80956A
:10162000982F0E94D449162F072FF82EE92E6E8589
:101630007F85882777FD8095982F0E94D4499B014C
:10164000AC01812F902FAF2DBE2DBC01CD010E948A
:101650006E48288939894A895B890E94B44A262FB5
:10166000372FF82FE92F462F572F682F792F4883D0
:1016700059836A837B83822F932FAF2FBE2FBC01A8
:10168000CD01288539854A855B850E94B44ADC01F5
:10169000CB018C839D83AE83BF83DF91CF911F915C
:1016A0000F91FF90EF900895CF92DF92EF92FF920B
:1016B000CF93DF93EC01CC88DD88EE88FF888C85A2
:1016C0000E94F42AAA2797FDA095BA2FC80ED91E0A
:1016D000EA1EFB1ECC8ADD8AEE8AFF8A888D998DF0
:1016E0000196998F888FDF91CF91FF90EF90DF90D7
:1016F000CF900895CF93DF93EC01288D398D40E092
:1017000050E06C897D898E899F890E94454B3F8777
:101710002E871C8A1D8A1E8A1F8A198E188EDF91B9
:10172000CF910895CF92DF92EF92FF920F931F9384
:10173000FC01408351836283738304831583268372
:101740003783C086D186E286F3861F910F91FF9082
:10175000EF90DF90CF9008954F925F926F927F92BB
:101760009F92AF92BF92CF92DF92EF92FF920F9330
:101770001F93CF93DF9300D00F92CDB7DEB75C01FC
:101780002A013B01C901B801C982DA82EB82FC82DD
:10179000A30192010E946E48162F972EC82E092F82
:1017A000862F992DAC2DB02FBC01CD01D5012D91E7
:1017B0003D914D915C910E94B44A462EF72EE82E41
:1017C000D92E812F992DAC2DB02FBC01CD01F50163
:1017D00024813581468157810E94B44AD5011C96E7
:1017E0002D913D914D915C911F970E946F48F62F6E
:1017F000E72F382F292F982F4F2F5E2F692F722F09
:10180000D5011C964D935D936D937C931F97442D4A
:101810005F2D6E2D7D2DCB01BA01422F0F2F1E2F74
:10182000232F342FA90198010E946F48E62EF72E2E
:10183000182F092F69817A818B819C81F501208580
:101840003185428553850E94B44A512F402F0E2D79
:101850001F2D252F342FA90198010E946F48462F74
:10186000572F682F792FCB01BA010F900F900F904F
:101870000F90DF91CF911F910F91FF90EF90DF902C
:10188000CF90BF90AF909F907F906F905F904F9060
:1018900008952FE730E0261B370B82179307C4F417
:1018A0009B01205830402817390794F468177907AE
:1018B0001CF4861B970B089522273327261B370B12
:1018C000821793071CF4860F971F089580E090E01D
:1018D00008959C01481759073CF0862F972F8217CF
:1018E00093071CF4C9010895CA0108954F925F92AD
:1018F0006F927F928F929F92AF92BF92CF92DF9220
:10190000EF92FF920F931F93CF93DF93B62EA72EE4
:10191000982E892E722E632E542E452EDE2DCF2D1D
:10192000862F972FA92DB82DBC01CD01CD2EDC2EF1
:10193000E02EF12EA70196010E94A94A18168CF0FC
:101940008B2D9A2DA92DB82DBC01CD01072D162D5B
:10195000252D342DA90198010E943549882334F0A2
:1019600009C0BD2EAC2E902E812E04C0B72CA62C03
:10197000952C842C8B2D9A2DA92DB82DBC01CD0131
:10198000DF91CF911F910F91FF90EF90DF90CF905B
:10199000BF90AF909F908F907F906F905F904F908F
:1019A00008954F925F926F927F928F929F92AF9223
:1019B000BF92CF92DF92EF92FF920F931F93CF933C
:1019C000DF934B015C0129013A0167017801C701EE
:1019D000B6010E946E48A70196010E943949C62EA1
:1019E000C72FD82F192FC501B40120E030E0A9017D
:1019F0000E943549882384F4C501B401A3019201F2
:101A00000E946E48412F0C2D1C2F2D2F342FA90121
:101A100098010E94B44A1DC0C501B40120E030E025
:101A2000A9010E94A94A181684F4C501B401A301B2
:101A300092010E946F48412F0C2D1C2F2D2F342F07
:101A4000A90198010E94B44A04C060E070E080E0FF
:101A500090E0382F292F862F972FA32FB22FBC016C
:101A6000CD01DF91CF911F910F91FF90EF90DF900B
:101A7000CF90BF90AF909F908F907F906F905F902E
:101A80004F900895CF92DF92EF92FF920F931F93A2
:101A9000CF93DF93CDB7DEB76E970FB6F894DEBF66
:101AA0000FBECDBF6C017B0182E690E00E94611EFB
:101AB0008C0182E6F80111928A95E9F7C801895BE9
:101AC0009F4F0E94A111F6011783068381E896E0DB
:101AD0000E94571689E090E0B70146E050E00E946E
:101AE0009516CE01499660E040E020E000E00E94BB
:101AF0000B1E8FE090E0BE01655E7F4F44E050E03A
:101B00000E949516F60186819781B70120E63AEE8C
:101B100040E050E00F2EF0EAEF2EFFE0FF2EF0E065
:101B20000F2FF0E01F2FF02D0E94C63C8C0181305A
:101B3000910509F040C0F60166817781CE01439698
:101B40000E94A9388FE090E0BE016B5E7F4F44E0B9
:101B500050E00E949516F60166817781CE010D96C0
:101B60000E94BF3881E090E0BE01615F7F4F44E09A
:101B700050E00E949516F60166817781CE010796A6
:101B80000E94B43885E090E0BE01675F7F4F44E07B
:101B900050E00E949516F60166817781CE0101968C
:101BA0000E94D5388B819C81AD81BE81F6018283F4
:101BB0009383A483B583802F912F6E960FB6F894EC
:101BC000DEBF0FBECDBFDF91CF911F910F91FF9070
:101BD000EF90DF90CF9008958F929F92AF92BF9237
:101BE000CF92DF92EF92FF920F931F93CF93DF93E9
:101BF0004C016B01EA01590181E896E00E945716F9
:101C000089E090E0B60146E050E00E949516BE01E2
:101C10006E5F7F4F8FE090E044E050E00E949516A9
:101C2000B8016E5F7F4F81E090E044E050E00E9499
:101C30009516B7016E5F7F4F85E090E044E050E07D
:101C40000E949516F50182819381A481B581F401EA
:101C500082839383A483B583DF91CF911F910F91EA
:101C6000FF90EF90DF90CF90BF90AF909F908F90BC
:101C700008956F927F928F929F92AF92BF92CF9270
:101C8000DF92EF92FF920F931F93CF93DF93CDB725
:101C9000DEB76E970FB6F894DEBF0FBECDBF4C0116
:101CA0003B017A0169015801CE0149966FEF4FEF70
:101CB0002FEF00E00E940B1E2BE433E03C8B2B8BBC
:101CC000F70182819381A481B5818D8B9E8BAF8B2F
:101CD000B88F3E872D87F60182819381A481B581DB
:101CE0008F87988BA98BBA8B38872F83F5018281D8
:101CF0009381A481B58189879A87AB87BC873A8312
:101D000029838B8D9C8DAD8DBE8D8B839C83AD8304
:101D1000BE83C401B301AE014D5E5F4F9E01235FE0
:101D20003F4F8E01095F1F4F7E010894E11CF11C9B
:101D30000E94EC0D6E960FB6F894DEBF0FBECDBFBD
:101D4000DF91CF911F910F91FF90EF90DF90CF9097
:101D5000BF90AF909F908F907F906F900895EF927B
:101D6000FF920F931F93CF93DF93CDB7DEB76897A2
:101D70000FB6F894DEBF0FBECDBF7B01DA0112961D
:101D80004D915D916D917C9115974D8B5E8B6F8B15
:101D9000788FEBE4F3E0FE87ED874F87588B698BF4
:101DA0007A8BF887EF83D90112960D911D912D91B1
:101DB0003C91159709871A872B873C87FA83E9831B
:101DC0004B835C836D837E8321E02E83B701AE015C
:101DD000435F5F4F9E01295F3F4F8E010F5F1F4F93
:101DE0000E94390E68960FB6F894DEBF0FBECDBFC5
:101DF000DF91CF911F910F91FF90EF900895CF93B6
:101E0000DF93CDB7DEB762970FB6F894DEBF0FBE93
:101E1000CDBFFB01DA0112964D915D916D917C91E0
:101E200015974F87588B698B7A8B2BE433E0388773
:101E30002F8349875A876B877C873A8329834B8313
:101E40005C836D837E8321E02E83BF01AE01495FF9
:101E50005F4F9E012F5F3F4F0E94AF0E62960FB6FD
:101E6000F894DEBF0FBECDBFDF91CF910895EF9202
:101E7000FF920F931F93CF93DF93CDB7DEB7689791
:101E80000FB6F894DEBF0FBECDBF7C01FC0186818A
:101E90009781009709F44BC00E94E43B8C0182308B
:101EA000910521F08430910509F043C0F701668166
:101EB0007781CE0143960E94A9388FE090E0BE0161
:101EC0006B5E7F4F44E050E00E949516F7016681FB
:101ED0007781CE010D960E94BF3881E090E0BE016F
:101EE000615F7F4F44E050E00E949516F7016681E4
:101EF0007781CE0107960E94B43885E090E0BE015C
:101F0000675F7F4F44E050E00E949516F7016681BD
:101F10007781CE0101960E94D5388B819C81AD815D
:101F2000BE81F70182839383A483B58302C000E05E
:101F300010E0802F912F68960FB6F894DEBF0FBE89
:101F4000CDBFDF91CF911F910F91FF90EF9008953A
:101F5000CF93DF93EC010E94011EBE016E5F7F4FA5
:101F60008FE090E044E050E00E940818CE01DF913D
:101F7000CF910895CF93DF93EC010E94011EBE0123
:101F80006E5F7F4F85E090E044E050E00E940818CB
:101F9000CE01DF91CF910895CF93DF93EC010E94A2
:101FA000011EBE016E5F7F4F81E090E044E050E093
:101FB0000E940818CE01DF91CF9108952BE433E001
:101FC000FC0131832083FB0142815381648175814F
:101FD000FC01428353836483758308950F9383E7E1
:101FE00096E060E040E020E000E00E940B1E8FE5FC
:101FF00096E00E94011E0F910895DC01ED91FC9185
:10200000008CF18DE02D199508952BE433E0FC014F
:1020100031832083FB014189528963897489FC01E2
:1020200042835383648375830895FC01858996896F
:102030000895FC01818D928D0895CF93DF930F92C7
:10204000CDB7DEB76983DC01ED91FC910280F381AD
:10205000E02DBE016F5F7F4F41E050E019950F907A
:10206000DF91CF910895CF92DF92EF92FF920F937D
:102070001F93CF93DF93CDB7DEB78C01CDB6DEB61D
:10208000DC0159968D919C915A97009719F1FDB6F4
:10209000EEB6F801418D528D8DB79EB7841B950B1E
:1020A0000FB6F8949EBF0FBE8DBF6DB77EB76F5F42
:1020B0007F4F0190F081E02D008CF18DE02DC80163
:1020C0001995FDBEEEBED80159968D919C915A97F7
:1020D0000097E9F60FB6F894DEBE0FBECDBEDF91D5
:1020E000CF911F910F91FF90EF90DF90CF900895C7
:1020F000CF93DF930F92CDB7DEB7FC01818D928D28
:10210000009749F08485BE016F5F7F4F0E94AA133C
:10211000898190E002C08FEF9FEF0F90DF91CF9108
:102120000895CF93DF93EC019A01498D5A8D4115A3
:102130005105A9F02417350720F08C850E945F1304
:1021400004C08C85A9010E945F131816190654F467
:10215000298D3A8D281B390B3A8F298F05C08FEFB7
:102160009FEF02C08FEF9FEFDF91CF9108950F9304
:102170001F93CF93DF930F92CDB7DEB78C01FC0195
:10218000818D928D0097A1F08485BE016F5F7F4F96
:1021900041E050E00E945F131816190664F4F8013C
:1021A000818D928D0197928F818F898190E005C0FA
:1021B0008FEF9FEF02C08FEF9FEF0F90DF91CF91D6
:1021C0001F910F9108950F931F93CF93DF93CDB776
:1021D000DEB728970FB6F894DEBF0FBECDBF8C01D7
:1021E000DC01ED91FC910284F385E02D199581E8E5
:1021F00096E0F80164850E942217009721F1D8012A
:102200001C968C91BE016F5F7F4F48E050E00E94AA
:102210005F1318161906CCF4C8010F96BE016F5F44
:102220007F4F0E94341E9D8180E02E81820F911D80
:10223000F801968B858B9F8180E02885820F911D08
:10224000928F818F02C080E090E028960FB6F894BC
:10225000DEBF0FBECDBFDF91CF911F910F910895CB
:10226000CF93DF93EC019B01FA016F89788D8C8508
:10227000A9019F010E94A7152F89388D280F391FAA
:10228000388F2F8BDF91CF910895FC0184850E94B8
:1022900013160895FC01108E178A6E5F7F4F848598
:1022A0000E94DB150895CF93DF93EC018C85843079
:1022B00061F00E942012EC85F0E0EE0FFF1FE9595B
:1022C000F94F1182108284E08C87DF91CF910895BD
:1022D000CF92DF92EF92FF921F93CF93DF937C0117
:1022E0006B01FC018485843009F5C3E0D4E010E083
:1022F000CE010E94BC16882311F0883119F4F70131
:10230000148705C01F5FC050DF4F143089F7F701F5
:102310008485843069F0D686C586128E118E62E07F
:10232000A60120E00E94371281E003C080E001C0D6
:1023300080E0DF91CF911F91FF90EF90DF90CF90E1
:102340000895FC011382128248EE53E060E070E0D1
:1023500044835583668377838DEC92E091838083F9
:1023600084E08487CF010F960E94011E0895CF92CA
:10237000DF92EF92FF920F931F93CF93DF93CDB72E
:10238000DEB7E5970FB6F894DEBF0FBECDBF7C0178
:102390008B016A01CE0143960E94011ECE014B962D
:1023A0000E94A111CE010D960E94011ECE0107963A
:1023B0006FE576E00E94DE0FCE014396BE01695FB5
:1023C0007F4F0E941D3DCE014396B801AE01435F91
:1023D0005F4F0E94D43F81309105C1F4D701ED9148
:1023E000FC910088F189E02D8BE493E09A83898346
:1023F0008F859889A989BA898B839C83AD83BE8395
:10240000C701BE016F5F7F4FA6011995E5960FB614
:10241000F894DEBF0FBECDBFDF91CF911F910F911A
:10242000FF90EF90DF90CF9008950F9389E796E0AB
:1024300060E040E020E000E00E940B1E0F91089554
:102440001F93CF93DF93182F81E896E0612F40E12F
:102450000E94D518D12F80E0C82FCE018E5F9B4FF0
:102460006FEF0E943E16DF91CF911F910895CF929A
:10247000DF92EF92FF921F93CF93DF93182FC62F17
:102480007A01D22F862F81508530B0F5812F0E949E
:102490002012812F90E00496D82ECC246D2F6C2B27
:1024A000C6010E943E16E114F10459F0C6010496DB
:1024B0006F2D0E943E16C60105966E2D0E943E1697
:1024C00013C0C0917F06D09180062196D0938006DC
:1024D000C0937F06C60104966D2F0E943E16C6016A
:1024E00005966C2F0E943E1681E896E0612F41E030
:1024F0000E94D51881E001C080E0DF91CF911F914B
:10250000FF90EF90DF90CF900895CF93C82F382F92
:1025100020E0C9018D5F9B4F0E94BC16833141F4BE
:1025200081E896E06C2F42E00E94D51881E001C05E
:1025300080E0CF910895EF92FF921F93CF93DF93A6
:10254000182FFB017A0180818F3F51F481818F3FE9
:1025500091F482818F3F79F483818F3F61F42CC0A5
:10256000882349F48181882331F48281882319F4F6
:102570008381882319F1E114F10411F1C12FD0E016
:102580002496DC2FCC27CE010C96BF0144E050E00E
:102590000E949516CE0140966F2D0E943E16CE01E8
:1025A00041966E2D0E943E1681E896E0612F44E030
:1025B0000E94D51881E005C080E003C080E001C022
:1025C00080E0DF91CF911F91FF90EF900895682FE9
:1025D00081E896E048E00E94D51808956F927F92B6
:1025E0008F929F92AF92BF92CF92DF92EF92FF9223
:1025F0000F931F93CF93DF93F82E3B01A42EB52E9C
:1026000081E0A81688E0B80620F0AA24BB246894CC
:10261000B3F8CF2DD0E024969C2E882484010D5F42
:102620001F4F0F2EF1E8CF2EF6E0DF2EF02DC60162
:102630006F2D0E94D416EC01C8010E94BC16873190
:1026400011F08C3121F4CA15DB0588F302C0AA24ED
:10265000BB24C1E8D6E0CE016F2DA30195010E94F5
:10266000FC17CE016F2D40E20E94D518E40122969E
:102670000BC0C8010E94BC16882331F48F2D0E9424
:102680002012AA24BB240AC0CE010E94BC1684FFDB
:10269000F0CF8C2F9D2F60E10E943E168A2D9B2D3E
:1026A000DF91CF911F910F91FF90EF90DF90CF902E
:1026B000BF90AF909F908F907F906F900895AF9252
:1026C000BF92CF92DF92EF92FF920F931F93CF931F
:1026D000DF93182F6B01EA0181E896E0612F0E94D9
:1026E0002217E82EF92EE114F10471F4B12EAA2478
:1026F000C5018D5F9B4F0E94BC168431D1F08823A9
:10270000C1F08C31B1F022C0CE15DF050CF47E0192
:102710001E141F0474F4C1E8D6E0CE01612FA60197
:10272000970100E00E947D18CE01612F40E40E94D5
:10273000D5188E2D9F2DDF91CF911F910F91FF9076
:10274000EF90DF90CF90BF90AF900895EE24EA9481
:10275000FE2CEFCF0F93282FAB0181E896E0622F7C
:1027600021E030E001E00E947D1881E090E00F91CF
:102770000895AF92BF92CF92DF92FF920F931F9373
:10278000CF93DF93F82E5B01F901680180818823E4
:1027900051F48181882339F48281882321F4838153
:1027A000882309F453C0C114D10409F452C0042F82
:1027B000152F88E00130180710F000E018E001152F
:1027C000110509F448C0CF2DD0E02496DC2FCC278A
:1027D000CE010C96BF0144E050E00E949516CE0158
:1027E00040966D2D0E943E16CE0141966C2D0E94A2
:1027F0003E160F2EF1E8CF2EF6E0DF2EF02DC601AB
:102800006F2DA50198010E94FC17C6016F2D40E2B3
:102810000E94D51822960DC0CE010E94BC1683FFDF
:1028200008C08F2D9C2D68E10E943E1600E010E04C
:1028300012C0FC2ECD2ECE010E94BC1684FFECCF20
:102840008C2F9D2F60E10E943E1605C000E010E035
:1028500002C000E010E0802F912FDF91CF911F91F7
:102860000F91FF90DF90CF90BF90AF9008952F927F
:102870003F924F925F926F927F928F929F92AF9210
:10288000BF92DF92EF92FF920F931F93CF93DF934C
:10289000CDB7DEB72A970FB6F894DEBF0FBECDBF17
:1028A000D82E3B01590148014115510509F4E2C0F8
:1028B000082F10E00C5F1F4F102F00270F2EF8E29B
:1028C0004F2E5524F02D400E511EC2010E94BC1601
:1028D000E82E0F2EF9E22F2E3324F02D200E311E7C
:1028E000C1010E94BC16282F30E09E2D80E07901A6
:1028F000E82AF92AC8010E94BC1690E087709070FF
:102900008330910509F444C08430910509F478C0FE
:102910008230910509F0A5C081E896E06D2DA701F0
:102920009E012F5F3F4F08E010E00E942F18C70163
:1029300008969A8789878981F50180838A818183B6
:102940008B8182838C8183839D8180E02E81820FA5
:10295000911DF401918380839F8180E028857C0113
:10296000E20EF11C81E896E06D2D49855A859301B0
:1029700087010E942F1809851A850E0D1F1DC2019F
:10298000612F0E943E16C101602F0E943E166BC04F
:102990000F2EF1E88F2EF6E09F2EF02DC4016D2D45
:1029A000A7019E012F5F3F4F06E010E00E942F1805
:1029B000C70106969A8789878981F50180838A8174
:1029C00081838B8182838C8183839D8180E02E81B2
:1029D0007C01E20EF11CC4016D2D49855A859301DD
:1029E00087010E942F1809851A850E0D1F1DC2012F
:1029F000612F0E943E16C101602F0E943E1633C017
:102A00000F2EF1E88F2EF6E09F2EF02DC4016D2DD4
:102A1000A7019E012F5F3F4F02E010E00E942F1898
:102A2000AA24BB246894A1F8AE0CBF1C398120E015
:102A30008A8190E002977C01E20EF31EC4016D2DA5
:102A4000A501930187010E942F1885010E0D1F1DFE
:102A5000C201612F0E943E16C101602F0E943E16E6
:102A600002C0EE24FF2481E896E06D2D40E40E9430
:102A7000D51802C0EE24FF248E2D9F2D2A960FB666
:102A8000F894DEBF0FBECDBFDF91CF911F910F91A4
:102A9000FF90EF90DF90BF90AF909F908F907F90CE
:102AA0006F905F904F903F902F900895DF92EF923C
:102AB000FF920F931F93CF93DF93D82E9B01042F88
:102AC000152F88E00130180710F000E018E001151C
:102AD000110599F1C1E8D6E0CE016D2DA90198014B
:102AE0000E94FC17CE016D2D40E20E94D5188D2D5D
:102AF00090E00496982F8827EC0122960F2EF3E0A1
:102B0000EF2EFF24F02DE80EF91E0EC0C7010E9423
:102B1000BC16CE010E94BC1683FF06C08D2D0E94FC
:102B2000201200E010E009C0CE010E94BC1684FF14
:102B3000EDCFCE0160E10E943E16802F912FDF91F4
:102B4000CF911F910F91FF90EF90DF900895AF927A
:102B5000BF92CF92DF92FF920F931F93CF93DF9399
:102B6000C82F6B015A01890181E896E06C2F0E9401
:102B7000D4168017910740F481E896E06C2F0E94EC
:102B8000D416F82ED92F02C0F02ED12F81E896E06E
:102B90006C2FA60195010F2D1D2F0E9471178F2DEF
:102BA0009D2FDF91CF911F910F91FF90DF90CF90DC
:102BB000BF90AF9008950F931F93CF93DF93FB01C6
:102BC0008A019081992349F49181992331F492816A
:102BD000992319F493819923E1F001151105E1F08E
:102BE000C82FD0E02496DC2FCC27CE010C96BF0155
:102BF00044E050E00E949516CE014096612F0E945D
:102C00003E16CE014196602F0E943E1681E090E074
:102C100005C080E090E002C080E090E0DF91CF91BD
:102C20001F910F9108951F93CF93DF93182F81E881
:102C300096E0612F40E20E94D518D12F80E0C82F86
:102C4000CE5FDB4F0CC0CE010E94BC1683FF07C0D5
:102C5000CE0168E10E943E1680E090E00BC0CE01FC
:102C60000E94BC1684FFEFCFCE0160E10E943E16A9
:102C700081E090E0DF91CF911F9108952C9820EF93
:102C80002EBD0DB407FEFDCF2EB59EBD0DB407FEC3
:102C9000FDCF9EB58EBD0DB407FEFDCF8EB56EBDCA
:102CA0000DB407FEFDCF8EB52C9A81E00895CF9329
:102CB000DF93EC016CE271E080E090E00E945C2A1E
:102CC0000E946427249A80E090E060E80E943E160B
:102CD0008BE190E065E50E943E168AE190E065E5B3
:102CE0000E943E1680E090E49983888380E090E61D
:102CF0009987888780E098E49B838A8380E098E6C0
:102D00009B878A8780E090E59D838C8380E090E7B5
:102D10009D878C8780E098E59F838E8380E098E78D
:102D20009F878E87DF91CF9108954115510509F155
:102D3000E62FF72F9A01280F391F70EF2C987EBDD0
:102D40000DB407FEFDCF6EB59EBD0DB407FEFDCFE1
:102D50006EB58EBD0DB407FEFDCF6EB501966191C7
:102D60006EBD0DB407FEFDCF6EB52C9A821793078A
:102D700029F7842F952F08952C982FE02EBD0DB4A0
:102D800007FEFDCF2EB59EBD0DB407FEFDCF9EB54F
:102D90008EBD0DB407FEFDCF8EB51EBC0DB407FE73
:102DA000FDCF8EB52C9A08958F929F92AF92BF92CD
:102DB000CF92DF92EF92FF920F931F93CF93DF9307
:102DC000862F90E00496982F8827AA24BB24689425
:102DD000A5F8A80EB91E0F2EF1E2CF2EDD24F02D9E
:102DE000C80ED91E00E010E0C5010E94BC16C82F15
:102DF000C6010E94BC1690E0FC2EEE24EC01CE2908
:102E0000DF29209769F0C5010E94BC16082FC60172
:102E10000E94BC1690E0902E88248C010829192964
:102E20000C171D0709F7802F912FDF91CF911F916C
:102E30000F91FF90EF90DF90CF90BF90AF909F9059
:102E40008F9008958F929F92AF92BF92CF92DF9210
:102E5000EF92FF920F931F93CF93DF93862F90E013
:102E60000496982F88270F2EF6E2AF2EBB24F02D64
:102E7000A80EB91E0F2EF7E2CF2EDD24F02DC80EBE
:102E8000D91E00E010E0C5010E94BC16C82FC60183
:102E90000E94BC1690E0FC2EEE24EC01CE29DF2926
:102EA000209769F0C5010E94BC16082FC6010E9438
:102EB000BC1690E0902E88248C01082919290C1743
:102EC0001D0709F7802F912FDF91CF911F910F914F
:102ED000FF90EF90DF90CF90BF90AF909F908F903A
:102EE00008952F923F924F925F926F927F928F92AE
:102EF0009F92AF92BF92CF92DF92EF92FF920F9389
:102F00001F93CF93DF932C015A0119017801C62E2C
:102F1000DD24C6010496D82FCC270F2EF4E26F2EA5
:102F20007724F02D6C0E7D1EC3010E94BC16182F55
:102F30000F2EF5E28F2E9924F02D8C0E9D1EC401CC
:102F40000E94BC16C82FD0E0912F80E08C2B9D2BC7
:102F5000EC01CA0DDB1DAE015770C601880F991F29
:102F6000840D951DFC01808191819A01280F391FE4
:102F7000CA018E0D9F1DF8E081309F07D8F080E0D8
:102F800098E05C01A41AB50AC901B101A5010E942B
:102F90009516C601880F991F840D951DB1016A0D04
:102FA0007B1DA7014A195B09FC01808191810E9468
:102FB000951605C0C901B101A7010E949516CE0D55
:102FC000DF1DC3016D2F0E943E16C4016C2F0E94AD
:102FD0003E16DF91CF911F910F91FF90EF90DF9000
:102FE000CF90BF90AF909F908F907F906F905F90A9
:102FF0004F903F902F9008950F931F93FA018901EE
:1030000040E050E09F010E9471171F910F910895B9
:103010004115510509F1E62FF72F9A01280F391FA5
:103020007FE02C987EBD0DB407FEFDCF6EB59EBD32
:103030000DB407FEFDCF6EB58EBD0DB407FEFDCFFE
:103040006EB501961EBC0DB407FEFDCF6EB5619343
:103050002C9A8217930729F7842F952F0895AF9202
:10306000BF92CF92DF92EF92FF920F931F93CF9375
:10307000DF936C0159015770C62FD0E0CE01049642
:10308000880F991F8C0D9D1DFC01808191819A01F3
:10309000280F391FC801840F951FF8E081309F0762
:1030A000E0F080E098E07C01E41AF50AC901B5017E
:1030B000A7010E940818CE010496880F991F8C0D55
:1030C0009D1DB5016E0D7F1DA8014E195F09FC0104
:1030D000808191810E94081805C0C901B501A8012D
:1030E0000E940818DF91CF911F910F91FF90EF90F0
:1030F000DF90CF90BF90AF9008954F925F926F9204
:103100007F928F929F92AF92BF92CF92DF92FF9267
:103110000F931F93CF93DF933C01162F2A01690170
:10312000F02EC62FD0E02496DC2FCC270F2EF8E20D
:103130008F2E9924F02D8C0E9D1EC4010E94BC166A
:10314000082F0F2EF9E2AF2EBB24F02DAC0EBD1EC2
:10315000C5010E94BC16282F30E0902F80E0E901C5
:10316000C82BD92BC301612FAE01920186010E94A9
:103170002F18FF2051F4CC0DDD1DC4016D2F0E94CE
:103180003E16C5016C2F0E943E16DF91CF911F9114
:103190000F91FF90DF90CF90BF90AF909F908F9056
:1031A0007F906F905F904F900895CF93DF93D62FCD
:1031B00080E0C82FCF5FDB4FCE01642F0E943E1608
:1031C000CE010E94BC168823D9F7DF91CF910895D4
:1031D000FC0124853585F901E05CFF4F80819181F8
:1031E0002E5B3F4FF90120813181821B930B8F733E
:1031F00090700895FC0184859585FC01E05CFF4F8B
:1032000020813181FC01EE5BFF4F40815181241709
:10321000350759F0FC01EE5BFF4F20813181820FB1
:10322000931FFC01808190E008958FEF9FEF089538
:10323000DC011C968D919C911D97FC01E05CFF4F79
:1032400020813181FC01EE5BFF4F408151812417C9
:10325000350799F0FC01EE5BFF4F20813181820F31
:10326000931FDC018C91208131812F5F3F4F2F73A1
:1032700030703183208390E008958FEF9FEF0895A1
:10328000DC011E96ED91FC911F97DF01A05CBF4F02
:10329000EE5BFF4F2D913C91119780819181281712
:1032A0003907C1F708951F93CF93DF93EC01AE85E3
:1032B000BF85FD01E05CFF4F208131812F5F3F4FD3
:1032C0002F733070122F732FFD01EE5BFF4F412FD4
:1032D000572F8081918128173907C9F3FD01E05CE0
:1032E000FF4F80819181A80FB91F6C93EE85FF85F8
:1032F000E05CFF4F51834083EE89FF89408121E0EC
:1033000030E0C9010D8C02C0880F991F0A94E2F7C2
:10331000842B808381E090E0DF91CF911F9108950D
:1033200008951F920F920FB60F920BB60F921124B1
:103330002F933F934F938F939F93EF93FF934091DE
:10334000C6008091290990912A0901968F73907087
:1033500020912B0930912C098217930759F0E091A5
:103360002909F0912A09E751F74F408390932A09E0
:1033700080932909FF91EF919F918F914F913F91F8
:103380002F910F900BBE0F900FBE0F901F901895AE
:1033900008951F920F920FB60F920BB60F92112441
:1033A0002F933F934F938F939F93EF93FF9340916E
:1033B000CE008091A1089091A20801968F73907021
:1033C0002091A3083091A4088217930759F0E09147
:1033D000A108F091A208EF59F74F40839093A208FB
:1033E0008093A108FF91EF919F918F914F913F9111
:1033F0002F910F900BBE0F900FBE0F901F9018953E
:1034000008951F920F920FB60F920BB60F921124D0
:103410002F933F934F938F939F93EF93FF934091FD
:10342000D6008091190890911A0801968F739070B8
:1034300020911B0830911C088217930759F0E091E6
:103440001908F0911A08E752F84F408390931A0830
:1034500080931908FF91EF919F918F914F913F9128
:103460002F910F900BBE0F900FBE0F901F901895CD
:1034700008951F920F920FB60F920BB60F92112460
:103480002F933F934F938F939F93EF93FF9340918D
:103490003601809191079091920701968F739070F9
:1034A00020919307309194078217930759F0E09188
:1034B0009107F0919207EF5AF84F4083909392074B
:1034C00080939107FF91EF919F918F914F913F9141
:1034D0002F910F900BBE0F900FBE0F901F9018955D
:1034E0008EEE96E00E94E818009711F00E94901965
:1034F0008FEC96E00E94E818009711F00E94C8191E
:1035000080EB96E00E94E818009711F00E94001AE4
:1035100081E996E00E94E818009711F00E94381A9D
:1035200008951F920F920FB60F920BB60F921124AF
:103530002F933F938F939F93EF93FF932091E508F1
:103540003091E6088091E7089091E808281739073C
:1035500031F4E1ECF0E080818F7D808314C0E09154
:10356000E708F091E808EB55F74F20818091E708D4
:103570009091E80801968F7390709093E80880937B
:10358000E7082093C600FF91EF919F918F913F91A3
:103590002F910F900BBE0F900FBE0F901F9018959C
:1035A0001F920F920FB60F920BB60F9211242F930A
:1035B0003F938F939F93EF93FF9320915D083091FA
:1035C0005E0880915F08909160082817390731F4F0
:1035D000E9ECF0E080818F7D808314C0E0915F088A
:1035E000F0916008E35EF74F208180915F08909131
:1035F000600801968F7390709093600880935F08C5
:103600002093CE00FF91EF919F918F913F912F9149
:103610000F900BBE0F900FBE0F901F9018951F922A
:103620000F920FB60F920BB60F9211242F933F9368
:103630008F939F93EF93FF932091D5073091D607F7
:103640008091D7079091D8072817390731F4E1ED19
:10365000F0E080818F7D808314C0E091D707F091E6
:10366000D807EB56F84F20818091D7079091D80763
:1036700001968F7390709093D8078093D70720930B
:10368000D600FF91EF919F918F913F912F910F90D5
:103690000BBE0F900FBE0F901F9018951F920F92A8
:1036A0000FB60F920BB60F9211242F933F938F9367
:1036B0009F93EF93FF9320914D0730914E07809198
:1036C0004F07909150072817390731F4E1E3F1E0F3
:1036D00080818F7D808314C0E0914F07F091500767
:1036E000E35FF84F208180914F079091500701963A
:1036F0008F7390709093500780934F0720933601FB
:10370000FF91EF919F918F913F912F910F900BBE61
:103710000F900FBE0F901F9018958F92AF92BF928F
:10372000CF92DF92EF92FF920F931F93CF93DF938D
:10373000CDB7DEB7FC011382128288EE93E0A0E0E1
:10374000B0E084839583A683B7838BE293E0918373
:1037500080837587648757874687318B208B138BCF
:10376000028BF58AE48AD78AC68AB18EA08E828EB1
:103770008F85838F8889848F8989858F8A89868FB1
:10378000DF91CF911F910F91FF90EF90DF90CF903D
:10379000BF90AF908F9008952F923F924F925F927B
:1037A0006F927F928F929F92AF92BF92CF92DF9251
:1037B000EF92FF920F931F93CF93DF938C016A01D7
:1037C0007B01C1E0403021EE520720E0620720E09B
:1037D000720721F4C0E002C0CD2F18C02224332488
:1037E00023940F2EF0E08F2EF9E09F2EFDE3AF2EF5
:1037F000F0E0BF2EF02D0F2EF0E84F2EF4E85F2EF4
:10380000FEE16F2EF0E07F2EF02DD0E0CC23F1F022
:10381000D8015496ED91FC915597C1015E960C909C
:1038200002C0880F991F0A94E2F78083C501B40192
:10383000A70196010E94454BDA01C9010197A10930
:10384000B109B695A7959795879515C0D801549657
:10385000ED91FC9155971082C301B201A701960129
:103860000E94454BDA01C9010197A109B109B6953A
:10387000A79597958795B0E180309B0718F0CC23EA
:1038800009F0AACFD8015096ED91FC915197908301
:103890005296ED91FC91539780835696ED91FC9151
:1038A0005797408121E030E0C9015A960C905A9711
:1038B00002C0880F991F0A94E2F7842B80835696E2
:1038C000ED91FC9157974081C9015B960C905B97F5
:1038D00002C0880F991F0A94E2F7842B80835696C2
:1038E000ED91FC9157974081C9015C960C905C97D3
:1038F00002C0880F991F0A94E2F7842B80835696A2
:10390000ED91FC91579780815D960C905D9702C078
:10391000220F331F0A94E2F7209528232083DF919A
:10392000CF911F910F91FF90EF90DF90CF90BF90BC
:10393000AF909F908F907F906F905F904F903F904F
:103940002F900895CF93DF93EC01EE85FF85DF0183
:10395000A05CBF4FEE5BFF4F8D919C911197208132
:10396000318182179307C1F7EE89FF89408121E0F9
:1039700030E0C9010A8C02C0880F991F0A94E2F74F
:10398000809584238083EE89FF894081C9010B8C57
:1039900002C0880F991F0A94E2F7809584238083E0
:1039A000EE89FF894081C9010C8C02C0880F991FE4
:1039B0000A94E2F7809584238083EE89FF898081D1
:1039C0000D8C02C0220F331F0A94E2F720952823A2
:1039D00020838C859D85FC01EE5BFF4F208131812A
:1039E000805C9F4FFC0131832083DF91CF9108954C
:1039F00081E008957F928F929F92AF92BF92CF9273
:103A0000DF92EF92FF920F931F93CF93DF9300D03B
:103A10000F92EDB7FEB73196C3E0ADB7BEB71196C2
:103A2000CC93D7E0D1830F2EF5E09F2EF02D92821C
:103A30007724739473828EEE96E069EE78E045EA1F
:103A400058E025EC30E004EC10E00F2EF0ECEF2E07
:103A5000FF24F02D0F2EF1ECCF2EDD24F02D0F2EB4
:103A6000F6ECAF2EBB24F02D8824689482F80E94D7
:103A70008D1BEDB7FEB73196ADB7BEB71196CC939F
:103A8000D183928273828FEC96E061E678E04DE11B
:103A900058E02DEC30E00CEC10E00F2EF8ECEF2E9F
:103AA000FF24F02D0F2EF9ECCF2EDD24F02D0F2E5C
:103AB000FEECAF2EBB24F02D0E948D1BEDB7FEB7A0
:103AC0003196ADB7BEB71196CC93D18392827382F3
:103AD00080EB96E069ED77E045E957E025ED30E0D1
:103AE00004ED10E00F2EF0EDEF2EFF24F02D0F2E41
:103AF000F1EDCF2EDD24F02D0F2EF6EDAF2EBB24F1
:103B0000F02D0E948D1BEDB7FEB73196ADB7BEB755
:103B10001196CC93D1839282738281E996E061E51C
:103B200077E04DE057E025E331E004E311E00F2EAC
:103B3000F0E3EF2EF1E0FF2EF02D0F2EF1E3CF2E6C
:103B4000F1E0DF2EF02D0F2EF6E3AF2EF1E0BF2EC9
:103B5000F02D0E948D1B0F900F900F900F90DF9112
:103B6000CF911F910F91FF90EF90DF90CF90BF907A
:103B7000AF909F908F907F9008958F929F92AF9279
:103B8000BF92CF92DF92EF92FF920F931F93CF934A
:103B9000DF934C017B01AA24BB246894A1F8A80EF2
:103BA000B91E00E010E0CC24DD24F50161915F0135
:103BB000C7014AE050E00E945120EC01C7016EE2CB
:103BC0000E941E1F8C0F9D1FC80ED91E0F5F1F4F16
:103BD0000330110551F7C701F40165814AE050E057
:103BE0000E9451208C0D9D1DDF91CF911F910F914F
:103BF000FF90EF90DF90CF90BF90AF909F908F900D
:103C00000895FC018BE493E09183808312821382F8
:103C10001482158208950F93FC018BE493E0918345
:103C2000808362834383248305830F910895FC017D
:103C30008BE493E091838083428353836483758311
:103C40000895CF93DF93FC018BE493E0918380830D
:103C5000EB0188819981AA81BB8182839383A483AC
:103C6000B583DF91CF910895FB014081518162813D
:103C70007381FC0142835383648375830895FC013F
:103C8000428353836483758308959C012E5F3F4F65
:103C9000CB01B90144E050E00E94404E282F392F5B
:103CA00081E02115310509F080E008950F938DE240
:103CB00099E060E040E020E000E00E940B1E0F91E0
:103CC00008950E94864B08950E941C4C089521E09F
:103CD00030E0FC018081882311F020E030E0822F69
:103CE000932F089521E0FC012083089508950895FD
:103CF000CF92DF92EF92FF920F931F93CF93DF93B8
:103D00006C017B01EA01209791F000E010E0D701FF
:103D10006D917D01D601ED91FC910190F081E02D36
:103D2000C6011995080F191F219789F702C000E0F5
:103D300010E0802F912FDF91CF911F910F91FF9075
:103D4000EF90DF90CF900895EF92FF920F931F9323
:103D5000CF93DF937C01EB01FB016491662391F02B
:103D6000219600E010E0F701A081B181ED91FC9176
:103D7000C7011995080F191FFE012196649166234A
:103D800091F702C000E010E0802F912FDF91CF91DA
:103D90001F910F91FF90EF900895AF92BF92CF9235
:103DA000DF92EF92FF920F931F93CF93DF935C010B
:103DB0006B01DB0114968D919C9115970097E1F0B2
:103DC00000E010E0EE24FF24D501ED91FC91C081CC
:103DD000D181C601B8010E94D632682FC501FE010B
:103DE0001995E80EF91E0F5F1F4FF601848195812A
:103DF0000817190748F302C0EE24FF248E2D9F2DCB
:103E0000DF91CF911F910F91FF90EF90DF90CF90B6
:103E1000BF90AF900895E62FF72FDF010D9000209F
:103E2000E9F7AD01415050404E1B5F0BDC01ED91B5
:103E3000FC910280F381E02D19950895DC01ED914C
:103E4000FC910190F081E02D199508959C01CB0122
:103E5000DB01ED91FC910190F081E02DB901199504
:103E600008950F931F93CF93DF938C016DE00E9411
:103E70001E1FEC01C8016AE00E941E1F8C0F9D1FCF
:103E8000DF91CF911F910F9108950F931F93CF93BF
:103E9000DF938C010E94A41EEC01C8010E94311F17
:103EA0008C0F9D1FDF91CF911F910F9108950F935C
:103EB0001F93CF93DF938C010E94CD1EEC01C801AC
:103EC0000E94311F8C0F9D1FDF91CF911F910F9189
:103ED00008950F931F93CF93DF938C010E940B1FC4
:103EE000EC01C8010E94311F8C0F9D1FDF91CF9103
:103EF0001F910F9108950F931F93CF93DF938C0120
:103F00000E941E1FEC01C8010E94311F8C0F9D1FD3
:103F1000DF91CF911F910F9108950F931F93CF932E
:103F2000DF938C010E94261FEC01C8010E94311F03
:103F30008C0F9D1FDF91CF911F910F9108954F928C
:103F40005F926F927F928F929F92AF92BF92CF9229
:103F5000DF92EF92FF920F931F93CF93DF93CDB732
:103F6000DEB7A1970FB6F894DEBF0FBECDBF4C01F0
:103F7000142F352F862F972F022F19A2223008F4E5
:103F80000AE00F2EF1E2AF2EBB24F02DAC0EBD1EC9
:103F9000402E55246624772403C0122F842F952F9A
:103FA000612F732FA30192010E94454BC22ED32E85
:103FB000E42EF52E029F802D1124181B0894A108D1
:103FC000B1081A3010F4105D01C0195CD5011C93C2
:103FD000C114D104E104F10401F7EA2DFB2DDF0146
:103FE0000D900020E9F71197AD014E1B5F0BD40136
:103FF000ED91FC910280F381E02DC401B50119958A
:10400000A1960FB6F894DEBF0FBECDBFDF91CF9162
:104010001F910F91FF90EF90DF90CF90BF90AF90E6
:104020009F908F907F906F905F904F900895211593
:10403000310549F4DC01ED91FC910190F081E02D16
:10404000642F199508950E949F1F08950F931F9341
:10405000CF93DF938C010E941720EC01C8010E94CE
:10406000311F8C0F9D1FDF91CF911F910F910895EC
:104070009A01AB0160E070E00E94172008950F9351
:104080001F93CF93DF938C010E943820EC01C8016D
:104090000E94311F8C0F9D1FDF91CF911F910F91B7
:1040A00008959A01462F50E060E070E00E941720CA
:1040B00008950F931F93CF93DF938C010E9451209B
:1040C000EC01C8010E94311F8C0F9D1FDF91CF9121
:1040D0001F910F910895CF92DF92EF92FF920F936D
:1040E0001F93CF93DF93EC016A017B01211531050A
:1040F00041F4E881F9810190F081E02D642F199558
:104100001DC02A303105C1F4772394F46DE20E947A
:104110001E1F8C0144275527BA014C195D096E09F1
:104120007F09CE012AE00E949F1F800F911F06C0C9
:104130002AE00E949F1F02C00E949F1FDF91CF9123
:104140001F910F91FF90EF90DF90CF9008950F9304
:104150001F93CF93DF938C010E946B20EC01C80169
:104160000E94311F8C0F9D1FDF91CF911F910F91E6
:1041700008959A01FB01AF01662757FD6095762FE0
:104180000E946B2008950F931F93CF93DF938C01B0
:104190000E94B920EC01C8010E94311F8C0F9D1FA5
:1041A000DF91CF911F910F9108954F925F926F927F
:1041B0007F928F929F92AF92BF92DF92EF92FF9287
:1041C0000F931F93CF93DF933C014A015B01E22ED3
:1041D000CB01BA0120E030E0A9010E9435498823D3
:1041E00054F4C3016DE20E941E1F2C01B7FAB09473
:1041F000B7F8B09402C044245524EE2009F4A3C0BB
:10420000C0E050E040E030E02FE3852F942FA32F53
:10421000B22FBC01CD0120E030E040E251E40E9429
:104220003949562F472F382F292FCF5FCE1569F7E1
:10423000C501B401E22F052F142F232F3E2FA90112
:1042400098010E946F48162F072FF82ED92E862F1F
:10425000902FAF2DBD2DBC01CD010E94A649C62FC8
:10426000A72E882ED92F0E94D2499B01AC01812F05
:10427000902FAF2DBD2DBC01CD010E946E48F62EB2
:10428000D72E182F092FC3014C2F5A2D682D7D2FA3
:104290002AE030E00E941720EC01C30163E573E0DF
:1042A0000E940B1FC80FD91F5E01A40CB51C8F2DD7
:1042B0009D2DA12FB02FBC01CD0120E030E040E2C8
:1042C00051E40E94B44A162F072FF82ED92E862FBC
:1042D000902FAF2DBD2DBC01CD010E94A149AB0196
:1042E000BC01EA01C301BA014AE050E00E94B920D2
:1042F000A80EB91EBE01882777FD8095982F0E94D1
:10430000D4499B01AC01812F902FAF2DBD2DBC0155
:10431000CD010E946E48F62ED72E182F092FEA9451
:1043200031F68A2D9B2DDF91CF911F910F91FF9038
:10433000EF90DF90BF90AF909F908F907F906F90A5
:104340005F904F900895C501B40120E030E040E057
:104350005FE30E946F480E94A649AB01BC01C30104
:104360002AE030E00E9417205C01A40CB51CD9CFD4
:104370000E94D52008950F931F93CF93DF938C0154
:104380000E94B821EC01C8010E94311F8C0F9D1FB3
:10439000DF91CF911F910F910895282F30E0C9012F
:1043A000880F991F280F391FC901880F991F880F7F
:1043B000991FBC01FC01EE0FFF1F8E0F9F1FFC0118
:1043C000E85CF64F808186FD18C040E050E0CA01ED
:1043D000860F971F01969C01220F331F820F931F98
:1043E000FC01E85CF64F808186FD09C04F5F5F4F9E
:1043F0004B30510561F780E0089581E0089581E038
:1044000008951F920F920FB60F920BB60F921124C0
:104410002F933F934F935F936F937F938F939F93CC
:10442000AF93BF93EF93FF938091350988232CF4CA
:10443000109285001092840031C0209135093327F5
:1044400027FD3095245F3F4F8091330990E0281776
:10445000390724F580913509992787FD90950C96A9
:10446000FC01EE0FFF1F8E0F9F1FFC01E85CF64F53
:10447000808186FF13C080913509992787FD90952B
:104480000C96FC01EE0FFF1F8E0F9F1FFC01E85CD6
:10449000F64F80818F7360E00E94AF2C80913509C8
:1044A0008F5F8093350920913509332727FD30959B
:1044B000245F3F4F8091330990E0281739070CF0B3
:1044C00059C0809135098C300CF054C08091840023
:1044D0009091850020913509332727FD3095245F81
:1044E0003F4FF901EE0FFF1F2E0F3F1FF901E85C50
:1044F000F64F21813281820F931F90938900809320
:10450000880080913509992787FD90950C96FC01CC
:10451000EE0FFF1F8E0F9F1FFC01E85CF64F80819E
:1045200086FF31C080913509992787FD90950C96BB
:10453000FC01EE0FFF1F8E0F9F1FFC01E85CF64F82
:1045400080818F7361E00E94AF2C1DC080E49CE9E4
:10455000909389008093880009C080918400909195
:104560008500049690938900809388008FEF809354
:10457000350909C080918400909185002CE984342C
:10458000920720F3EACFFF91EF91BF91AF919F91F6
:104590008F917F916F915F914F913F912F910F90EC
:1045A0000BBE0F900FBE0F901F9018951F920F9289
:1045B0000FB60F920BB60F9211242F933F934F9388
:1045C0005F936F937F938F939F93AF93BF93EF937B
:1045D000FF938091360988232CF410929500109255
:1045E000940031C020913609332727FD3095285E8D
:1045F0003F4F8091330990E02817390724F58091C7
:104600003609992787FD90954896FC01EE0FFF1F0C
:104610008E0F9F1FFC01E85CF64F808186FF13C060
:1046200080913609992787FD90954896FC01EE0FF9
:10463000FF1F8E0F9F1FFC01E85CF64F80818F7378
:1046400060E00E94AF2C809136098F5F809336091D
:1046500020913609332727FD3095285E3F4F809102
:10466000330990E0281739070CF059C080913609BA
:104670008C300CF054C08091940090919500209162
:104680003609332727FD3095285E3F4FF901EE0F9D
:10469000FF1F2E0F3F1FF901E85CF64F2181328189
:1046A000820F931F90939900809398008091360910
:1046B000992787FD90954896FC01EE0FFF1F8E0FFE
:1046C0009F1FFC01E85CF64F808186FF31C080911E
:1046D0003609992787FD90954896FC01EE0FFF1F3C
:1046E0008E0F9F1FFC01E85CF64F80818F7361E0A5
:1046F0000E94AF2C1DC080E49CE9909399008093A8
:10470000980009C080919400909195000496909330
:104710009900809398008FEF8093360909C08091AB
:104720009400909195002CE98434920720F3EACF0D
:10473000FF91EF91BF91AF919F918F917F916F9179
:104740005F914F913F912F910F900BBE0F900FBE35
:104750000F901F9018951F920F920FB60F920BB6E5
:104760000F9211242F933F934F935F936F937F93F7
:104770008F939F93AF93BF93EF93FF9380913709EC
:1047800088232CF41092A5001092A40031C020912F
:104790003709332727FD30952C5D3F4F8091330932
:1047A00090E02817390724F580913709992787FD6C
:1047B00090958496FC01EE0FFF1F8E0F9F1FFC014A
:1047C000E85CF64F808186FF13C0809137099927F6
:1047D00087FD90958496FC01EE0FFF1F8E0F9F1FA3
:1047E000FC01E85CF64F80818F7360E00E94AF2C83
:1047F000809137098F5F80933709209137093327DC
:1048000027FD30952C5D3F4F8091330990E02817AC
:1048100039070CF059C0809137098C300CF054C026
:104820008091A4009091A50020913709332727FD9E
:1048300030952C5D3F4FF901EE0FFF1F2E0F3F1FEC
:10484000F901E85CF64F21813281820F931F90932A
:10485000A9008093A80080913709992787FD90953A
:104860008496FC01EE0FFF1F8E0F9F1FFC01E85C7A
:10487000F64F808186FF31C080913709992787FDE7
:1048800090958496FC01EE0FFF1F8E0F9F1FFC0179
:10489000E85CF64F80818F7361E00E94AF2C1DC0F1
:1048A00080E49CE99093A9008093A80009C08091BE
:1048B000A4009091A50004969093A9008093A8006D
:1048C0008FEF8093370909C08091A4009091A500D3
:1048D0002CE98434920720F3EACFFF91EF91BF9146
:1048E000AF919F918F917F916F915F914F913F9188
:1048F0002F910F900BBE0F900FBE0F901F90189529
:104900001F920F920FB60F920BB60F9211242F9396
:104910003F934F935F936F937F938F939F93AF9347
:10492000BF93EF93FF938091340988232CF4109266
:104930002501109224012DC020913409332727FD31
:1049400030958091330990E02817390714F580914C
:104950003409992787FD9095FC01EE0FFF1F8E0FFC
:104960009F1FFC01E85CF64F808186FF12C080919A
:104970003409992787FD9095FC01EE0FFF1F8E0FDC
:104980009F1FFC01E85CF64F80818F7360E00E94FE
:10499000AF2C809134098F5F8093340920913409C2
:1049A000332727FD30958091330990E02817390788
:1049B0000CF055C0809134098C300CF050C08091BF
:1049C00024019091250120913409332727FD30954A
:1049D000F901EE0FFF1F2E0F3F1FF901E85CF64FA4
:1049E00021813281820F931F9093290180932801A6
:1049F00080913409992787FD9095FC01EE0FFF1FE8
:104A00008E0F9F1FFC01E85CF64F808186FF30C04F
:104A100080913409992787FD9095FC01EE0FFF1FC7
:104A20008E0F9F1FFC01E85CF64F80818F7361E061
:104A30000E94AF2C1DC080E49CE9909329018093D3
:104A4000280109C08091240190912501049690933A
:104A50002901809328018FEF8093340909C0809148
:104A60002401909125012CE98434920720F3EACFA8
:104A7000FF91EF91BF91AF919F918F917F916F9136
:104A80005F914F913F912F910F900BBE0F900FBEF2
:104A90000F901F901895FC0180913309803398F492
:104AA00080838F5F80933309808190E0FC01EE0F5B
:104AB000FF1F8E0F9F1FFC01E85CF64F88EB9BE009
:104AC0009283818308958FEF80830895CF92DF9240
:104AD000EF92FF920F931F93CF938C01C62F7A0111
:104AE0006901FC018081803308F081C0862F61E07C
:104AF0000E947B2CF8014081842F90E09C01220FC2
:104B0000331F820F931FFC01E85CF64FCF73808147
:104B1000807CC82BC08380E292E08E199F090AF442
:104B200003969595879595958795F801818380E6FD
:104B300099E08C199D090AF40396959587959595AA
:104B40008795F8018283842F6CE00E94394BC82F2F
:104B50000E94CD218823F1F5C13081F410928000AC
:104B600082E0809381001092850010928400B19AB7
:104B7000EFE6F0E08081826080831EC0C23069F47D
:104B80001092900082E08093910010929500109214
:104B9000940088BB809371001DC0C33069F41092EB
:104BA000A00082E08093A1001092A5001092A400C2
:104BB00089BB809372000EC0CC2361F41092200157
:104BC00082E08093210110922501109224018ABB7A
:104BD00080937300F801808190E0FC01EE0FFF1FCD
:104BE000E80FF91FE85CF64F808180648083F8014C
:104BF0008081CF911F910F91FF90EF90DF90CF9028
:104C0000089540E252E020E639E00E9466250895CA
:104C1000FC01808190E0FC01EE0FFF1FE80FF91FFF
:104C2000E85CF64F80818F7B80830895CF92DF927E
:104C3000EF92FF92FC014081403308F041C0818136
:104C4000992787FD909528E830E0281B390B220F23
:104C5000331F220F331F6217730784F08281992755
:104C600087FD909528E532E0281B390B220F331F72
:104C7000220F331F621773070CF49B012250304040
:104C80006901EE24D7FCE094FE2CCC0CDD1CEE1C5C
:104C9000FF1C8EEF9FEFAFEFBFE1C822D922EA22BF
:104CA000FB225FB7F894842F90E09C01220F331F02
:104CB000820F931FFC01E85CF64FD282C1825FBF76
:104CC000FF90EF90DF90CF900895AF92BF92CF9278
:104CD000DF92EF92FF920F931F93CF93DF93EC013C
:104CE00082E0603278070CF04FC0772314F460E064
:104CF00070E000D00F92EDB7FEB73196653B7105BD
:104D000014F064EB70E0CB01AC01662757FD6095B1
:104D1000762F8981992787FD909528E830E0281B18
:104D2000390B5901AA0CBB1CAA0CBB1CCC24B7FC28
:104D3000C094DC2C8A81992787FD909528E532E084
:104D4000281B390BC901880F991F880F991FAA27A3
:104D500097FDA095BA2F80839183A283B383CB0163
:104D6000BA0120E030E0A9010F2EF4EBEF2EF0E0C5
:104D7000FF2EF0E00F2FF0E01F2FF02D0E945F2D8F
:104D80000F900F900F900F90CE010E941626DF918A
:104D9000CF911F910F91FF90EF90DF90CF90BF9038
:104DA000AF900895FC0180818F3FC9F090E0FC0135
:104DB000EE0FFF1F8E0F9F1FFC01E85CF64F8181F5
:104DC0009281880F991F880F991F880F991F9295BC
:104DD00082958F7089279F7089270296089580E0B9
:104DE00090E008958F929F92AF92BF92CF92DF9200
:104DF000EF92FF920F931F93CF93DF93EC010E94EA
:104E0000D22600D00F92AC014F5F5F4F662757FD4F
:104E10006095762F8981992787FD90950F2EF8E868
:104E20008F2E9924F02D881A990A880C991C880CC9
:104E3000991CAA2497FCA094BA2C8A81992787FDF3
:104E4000909528E532E0281B390B7901EE0CFF1C08
:104E5000EE0CFF1C0027F7FC0095102F84EB90E070
:104E6000A0E0B0E0EDB7FEB781839283A383B48363
:104E7000CB01BA01A5019401AA24BB2465010E94BB
:104E80005F2D0F900F900F900F90862F972FDF912F
:104E9000CF911F910F91FF90EF90DF90CF90BF9037
:104EA000AF909F908F900895FC01808190E0FC016D
:104EB000EE0FFF1F8E0F9F1FFC01E85CF64F9081E5
:104EC00081E096FF80E0089584E361E00E947B2CFE
:104ED00083E361E00E947B2C85E361E00E947B2CF0
:104EE00084E360E00E94AF2C83E360E00E94AF2C7B
:104EF00085E361E00E94AF2C8CB580618CBD8CB5E0
:104F000080648CBD08958CB58F7B8CBD08958823FB
:104F100021F48CB580628CBD08958CB58F7D8CBDDD
:104F200008959CB5937F892B8CBD08959CB5282F3F
:104F300023709C7F922B9CBD2DB590E09595879515
:104F4000959587958170922F9E7F892B8DBD0895B1
:104F5000883008F076C0E82FF0E0EE0FFF1FE7532F
:104F6000F64F71836083843029F1853038F48230C4
:104F700069F0833098F48130B9F53EC0863009F489
:104F800047C0863020F1873079F54FC080916900A5
:104F90008C7F842B80936900E89A08958091690042
:104FA000440F551F440F551F837F842B8093690046
:104FB000E99A08958091690074E0440F551F7A952D
:104FC000E1F78F7C842B80936900EA9A08958091A1
:104FD000690066E0440F551F6A95E1F78F73842BD3
:104FE00080936900EB9A089580916A008C7F842BEE
:104FF00080936A00EC9A089580916A00440F551FCF
:10500000440F551F837F842B80936A00ED9A089587
:1050100080916A0024E0440F551F2A95E1F78F7CA8
:10502000842B80936A00EE9A089580916A0096E03E
:10503000440F551F9A95E1F78F73842B80936A0074
:10504000EF9A0895883048F58430A1F0853038F41F
:10505000823061F0833060F4813081F411C0863099
:1050600089F0863048F0873049F40EC0E8980DC0CA
:10507000E9980BC0EA9809C0EB9807C0EC9805C006
:10508000ED9803C0EE9801C0EF98E82FF0E0EE0F26
:10509000FF1FE753F64F1182108208951F920F925F
:1050A0000FB60F920BB60F9211242F933F934F938D
:1050B0005F936F937F938F939F93AF93BF93EF9380
:1050C000FF938091CD099091CE09009729F0E0914E
:1050D000CD09F091CE091995FF91EF91BF91AF9154
:1050E0009F918F917F916F915F914F913F912F9100
:1050F0000F900BBE0F900FBE0F901F9018951F9230
:105100000F920FB60F920BB60F9211242F933F936D
:105110004F935F936F937F938F939F93AF93BF93BF
:10512000EF93FF938091CF099091D009009729F0D8
:10513000E091CF09F091D0091995FF91EF91BF91BE
:10514000AF919F918F917F916F915F914F913F911F
:105150002F910F900BBE0F900FBE0F901F901895C0
:105160001F920F920FB60F920BB60F9211242F932E
:105170003F934F935F936F937F938F939F93AF93DF
:10518000BF93EF93FF938091D1099091D20900973B
:1051900029F0E091D109F091D2091995FF91EF9191
:1051A000BF91AF919F918F917F916F915F914F913F
:1051B0003F912F910F900BBE0F900FBE0F901F903D
:1051C00018951F920F920FB60F920BB60F921124E3
:1051D0002F933F934F935F936F937F938F939F93FF
:1051E000AF93BF93EF93FF938091D3099091D4092C
:1051F000009729F0E091D309F091D4091995FF9116
:10520000EF91BF91AF919F918F917F916F915F913E
:105210004F913F912F910F900BBE0F900FBE0F90AB
:105220001F9018951F920F920FB60F920BB60F9208
:1052300011242F933F934F935F936F937F938F939B
:105240009F93AF93BF93EF93FF938091C909909180
:10525000CA09009729F0E091C909F091CA09199586
:10526000FF91EF91BF91AF919F918F917F916F913E
:105270005F914F913F912F910F900BBE0F900FBEFA
:105280000F901F9018951F920F920FB60F920BB6AA
:105290000F9211242F933F934F935F936F937F93BC
:1052A0008F939F93AF93BF93EF93FF938091CB091D
:1052B0009091CC09009729F0E091CB09F091CC09AD
:1052C0001995FF91EF91BF91AF919F918F917F9130
:1052D0006F915F914F913F912F910F900BBE0F9067
:1052E0000FBE0F901F9018951F920F920FB60F923E
:1052F0000BB60F9211242F933F934F935F936F93AD
:105300007F938F939F93AF93BF93EF93FF9380917E
:10531000D5099091D609009729F0E091D509F0912F
:10532000D6091995FF91EF91BF91AF919F918F9100
:105330007F916F915F914F913F912F910F900BBE95
:105340000F900FBE0F901F9018951F920F920FB6DF
:105350000F920BB60F9211242F933F934F935F93AD
:105360006F937F938F939F93AF93BF93EF93FF932D
:105370008091D7099091D809009729F0E091D70939
:10538000F091D8091995FF91EF91BF91AF919F913D
:105390008F917F916F915F914F913F912F910F90DE
:1053A0000BBE0F900FBE0F901F9018951F920F927B
:1053B0000FB60F9211242F933F938F939F93AF9328
:1053C000BF938091D9099091DA09A091DB09B0913E
:1053D000DC093091E109232F2D5F2D3720F4019650
:1053E000A11DB11D05C0232F2A570296A11DB11D75
:1053F0002093E1098093D9099093DA09A093DB09FE
:10540000B093DC098091DD099091DE09A091DF095C
:10541000B091E0090196A11DB11D8093DD09909323
:10542000DE09A093DF09B093E009BF91AF919F918E
:105430008F913F912F910F900FBE0F901F90189555
:105440000F931F938FB7F8940091D9091091DA093F
:105450002091DB093091DC098FBFB801C9011F9190
:105460000F9108950F931F939FB7F8940091DD0952
:105470001091DE092091DF093091E00986B5A89BE3
:1054800006C08F3F21F00F5F1F4F2F4F3F4F9FBF31
:10549000322F212F102F0027080F111D211D311D24
:1054A00042E0000F111F221F331F4A95D1F7B801A8
:1054B000C9011F910F910895CF92DF92EF92FF9251
:1054C000CF93DF936B017C010E94322ADC01CB0178
:1054D000EC010FC00E94322A6C1B7D0B83E0683EFA
:1054E000780738F00894C108D108E108F108C851DC
:1054F000DC4FC114D104E104F10461F7DF91CF91D5
:10550000FF90EF90DF90CF900895019739F0880FCA
:10551000991F880F991F02970197F1F708957894C2
:1055200084B5826084BD84B5816084BD85B58260A8
:1055300085BD85B5816085BDEEE6F0E08081816046
:105540008083E1E8F0E01082808182608083808146
:1055500081608083E0E8F0E0808181608083E1EB1E
:10556000F0E0808184608083E0EBF0E08081816006
:105570008083E1E9F0E080818260808380818160C6
:105580008083E0E9F0E0808181608083E1EAF0E0FF
:10559000808182608083808181608083E0EAF0E0A6
:1055A000808181608083E1E2F1E08081826080839C
:1055B000808181608083E0E2F1E08081816080838E
:1055C000EAE7F0E08081846080838081826080836C
:1055D0008081816080838081806880831092C10097
:1055E000089580935D030895863308F08653909163
:1055F0007B00282F26952695269530E02170307067
:1056000043E0220F331F4A95E1F7977F922B909347
:105610007B00877090915D039295990F990F907C14
:10562000982B90937C0080917A00806480937A001C
:1056300080917A0086FDFCCF80917800909179006E
:10564000392F20E090E0822B932B08951F93CF9366
:10565000DF93182FEB0161E00E947B2C209711F45F
:10566000812FCCC0CF3FD10511F4812FC9C0E12FCC
:10567000F0E0EF5EFE4FE491E93009F466C0EA30F5
:10568000B0F4E430F1F1E53040F4E23059F1E330C8
:1056900070F5E13009F0AEC020C0E73009F443C036
:1056A000E83008F048C0E63009F0A4C034C0ED305E
:1056B00009F478C0EE3038F4EB3009F45AC0EC301D
:1056C00008F066C04CC0E03109F480C0E13109F453
:1056D00087C0EF3009F08EC06FC084B5806884BD8C
:1056E000C7BD91C084B5806284BDC8BD8CC08091A7
:1056F0008000806880938000D0938900C0938800E8
:1057000082C080918000806280938000D0938B0063
:10571000C0938A0078C08091B00080688093B00008
:10572000C093B30070C08091B00080628093B000DD
:10573000C093B40068C0809190008068809390000E
:10574000D0939900C09398005EC0809190008062D1
:1057500080939000D0939B00C0939A0054C0809196
:105760009000886080939000D0939D00C0939C002F
:105770004AC08091A00080688093A0008091A00022
:105780008F7B8093A000D093A900C093A8003BC05A
:105790008091A00080628093A000D093AB00C09362
:1057A000AA0031C08091A00088608093A000D093AF
:1057B000AD00C093AC0027C0809120018068809329
:1057C0002001D0932901C09328011DC080912001A0
:1057D000806280932001D0932B01C0932A0113C0D3
:1057E00080912001886080932001D0932D01C09387
:1057F0002C0109C0812FC038D10514F460E001C02C
:1058000061E00E94AF2CDF91CF911F910895893004
:1058100009F449C08A30A0F4843051F1853040F455
:10582000823079F1833000F5813009F063C026C001
:10583000873079F1883098F5863009F05BC025C053
:105840008D3009F442C08E3028F48B30B1F18C30A9
:10585000C0F52DC0803109F442C0813109F445C042
:105860008F3009F047C037C0809180008F7703C028
:10587000809180008F7D80938000089584B58F771C
:1058800002C084B58F7D84BD08958091B0008F776C
:1058900003C08091B0008F7D8093B0000895809107
:1058A00090008F7707C0809190008F7D03C080911A
:1058B0009000877F8093900008958091A0008F775B
:1058C00007C08091A0008F7D03C08091A000877FDA
:1058D0008093A0000895809120018F7703C080916C
:1058E00020018F7D80932001089580912001877F82
:1058F00080932001089590E0FC01E95AFE4F249125
:1059000083569E4FFC018491882341F190E0880FDB
:10591000991FFC01E95EFD4F45915491DA018350D6
:105920009E4FFC0185919491FC019FB7F8948C9156
:10593000662331F4209582238C938081822308C0D2
:10594000623049F4322F309583238C938081822BEF
:1059500080839FBF0895822B8C939FBF08950F93E0
:105960001F93CF93DF930F92CDB7DEB7282F30E090
:10597000F901EF5EFE4F8491F901E95AFE4F14914F
:10598000F901E356FE4F04910023D1F0882321F062
:1059900069830E94072C6981E02FF0E0EE0FFF1F62
:1059A000E350FE4F85919491DC019FB7F8948C9160
:1059B000662319F41095812301C0812B8C939FBF1E
:1059C0000F90DF91CF911F910F910895CF93DF93A7
:1059D000282F30E0F901EF5EFE4F8491F901E95A7A
:1059E000FE4FC491F901E356FE4FD491DD2391F0AF
:1059F000882311F00E94072CED2FF0E0EE0FFF1F1F
:105A0000ED51FE4F85919491FC0120812C2381E082
:105A100090E011F480E090E0DF91CF91089500973D
:105A200029F0BC0180E090E00E94164D0895CF92CD
:105A3000DF92EF92FF920F931F936B017C01611530
:105A400071058105910549F00E94114DA70196014C
:105A50000E94674B8B019C0103C000E010E098019D
:105A6000602F712F822F932F1F910F91FF90EF9036
:105A7000DF90CF900895CF92DF92EF92FF926B016B
:105A80007C01DA01C901C216D306E406F50674F4F6
:105A90008C199D09AE09BF09BC01CD010E94172DCB
:105AA000DC01CB01C80ED91EEA1EFB1E6C2D7D2D1C
:105AB0008E2D9F2DFF90EF90DF90CF9008954F9205
:105AC0005F926F927F92AF92BF92CF92DF92EF92EE
:105AD000FF920F931F93CF93DF9300D00F92CDB718
